{
  "contractName": "ApprovalContract",
  "abi": [
    {
      "inputs": [
        {
          "internalType": "address",
          "name": "_addr",
          "type": "address"
        }
      ],
      "stateMutability": "nonpayable",
      "type": "constructor"
    },
    {
      "inputs": [],
      "name": "isActive",
      "outputs": [
        {
          "internalType": "bool",
          "name": "",
          "type": "bool"
        }
      ],
      "stateMutability": "view",
      "type": "function"
    },
    {
      "inputs": [
        {
          "internalType": "uint256",
          "name": "_amount",
          "type": "uint256"
        }
      ],
      "name": "approveTrade",
      "outputs": [
        {
          "internalType": "bool",
          "name": "",
          "type": "bool"
        }
      ],
      "stateMutability": "nonpayable",
      "type": "function"
    },
    {
      "inputs": [],
      "name": "getOwner",
      "outputs": [
        {
          "internalType": "address",
          "name": "",
          "type": "address"
        }
      ],
      "stateMutability": "view",
      "type": "function"
    },
    {
      "inputs": [],
      "name": "kill",
      "outputs": [],
      "stateMutability": "nonpayable",
      "type": "function"
    }
  ],
  "bytecode": "0x608060405234801561001057600080fd5b506040516103683803806103688339818101604052602081101561003357600080fd5b8101908080519060200190929190505050806000806101000a81548173ffffffffffffffffffffffffffffffffffffffff021916908373ffffffffffffffffffffffffffffffffffffffff1602179055506001600060146101000a81548160ff021916908315150217905550506102b9806100af6000396000f3fe608060405234801561001057600080fd5b506004361061004c5760003560e01c806301663e591461005157806322f3e2d41461009757806341c0e1b5146100b9578063893d20e8146100c3575b600080fd5b61007d6004803603602081101561006757600080fd5b810190808035906020019092919050505061010d565b604051808215151515815260200191505060405180910390f35b61009f6101ae565b604051808215151515815260200191505060405180910390f35b6100c16101c4565b005b6100cb61025a565b604051808273ffffffffffffffffffffffffffffffffffffffff1673ffffffffffffffffffffffffffffffffffffffff16815260200191505060405180910390f35b60006101176101ae565b610189576040517f08c379a000000000000000000000000000000000000000000000000000000000815260040180806020018281038252601a8152602001807f436f6e747261637420686173206265656e20726574697265642100000000000081525060200191505060405180910390fd5b60006002838161019557fe5b06146101a457600090506101a9565b600190505b919050565b60008060149054906101000a900460ff16905090565b6101cc6101ae565b61023e576040517f08c379a000000000000000000000000000000000000000000000000000000000815260040180806020018281038252601a8152602001807f436f6e747261637420686173206265656e20726574697265642100000000000081525060200191505060405180910390fd5b60008060146101000a81548160ff021916908315150217905550565b60008060009054906101000a900473ffffffffffffffffffffffffffffffffffffffff1690509056fea2646970667358221220903b091d16080267997cbe068d6935dd0f1541f577943ded4e5eafe9fb3d795a64736f6c63430006020033",
  "source": "pragma solidity ^0.6.2;\n\ncontract ApprovalContract {\n\taddress private owner;\n\tbool private active;\n\n\tconstructor(address _addr) public {\n\t\towner = _addr;\n\t\tactive = true;\n\t}\n\n\tmodifier isOwner() {\n\t\trequire(msg.sender == owner, \"You are not authorsed to action this contract\");\n\t\t_;\n\t}\n\n\tmodifier activeContract() {\n\t\trequire(isActive(), \"Contract has been retired!\");\n\t\t_;\n\t}\n\n\tfunction isActive() public view returns(bool) {\n\t\treturn active;\n\t}\n\n\tfunction approveTrade(uint _amount) activeContract() public virtual returns(bool) {\n\t\tif (_amount % 2 != 0) {\n\t\t\treturn false;\n\t\t}\n\t\treturn true;\n\t}\n\n\tfunction getOwner() public view returns(address) {\n\t\treturn owner;\n\t}\n\n\tfunction kill() activeContract() public {\n\t\tactive = false;\n\t}\n}\n",
  "sourcePath": "/Users/dagan/Documents/Blockchain/ChainShot/DAPPS/testDAPP/CommodityMarket/contracts/ApprovalContract.sol",
  "compiler": {
    "name": "solc",
    "version": "0.6.2+commit.bacdbe57.Emscripten.clang"
  },
  "schemaVersion": "3.0.20",
  "updatedAt": "2020-05-23T12:02:44.437Z",
  "devdoc": {
    "methods": {}
  },
  "userdoc": {
    "methods": {}
  }
}