{
  "contractName": "EntityFactory",
  "abi": [
    {
      "inputs": [],
      "stateMutability": "nonpayable",
      "type": "constructor"
    },
    {
      "inputs": [
        {
          "internalType": "string",
          "name": "_name",
          "type": "string"
        }
      ],
      "name": "newEntity",
      "outputs": [
        {
          "internalType": "address",
          "name": "newEntity",
          "type": "address"
        }
      ],
      "stateMutability": "nonpayable",
      "type": "function"
    }
  ],
  "bytecode": "0x608060405234801561001057600080fd5b5061169d806100206000396000f3fe608060405234801561001057600080fd5b506004361061002b5760003560e01c806301dbe7b814610030575b600080fd5b61004a60048036036100459190810190610100565b610060565b6040516100579190610189565b60405180910390f35b600080826040516100709061009f565b61007a91906101a4565b604051809103906000f080158015610096573d6000803e3d6000fd5b50905050919050565b6113a7806102c183390190565b600082601f8301126100bd57600080fd5b81356100d06100cb826101f3565b6101c6565b915080825260208301602083018583830111156100ec57600080fd5b6100f783828461026d565b50505092915050565b60006020828403121561011257600080fd5b600082013567ffffffffffffffff81111561012c57600080fd5b610138848285016100ac565b91505092915050565b61014a8161023b565b82525050565b600061015b8261021f565b610165818561022a565b935061017581856020860161027c565b61017e816102af565b840191505092915050565b600060208201905061019e6000830184610141565b92915050565b600060208201905081810360008301526101be8184610150565b905092915050565b6000604051905081810181811067ffffffffffffffff821117156101e957600080fd5b8060405250919050565b600067ffffffffffffffff82111561020a57600080fd5b601f19601f8301169050602081019050919050565b600081519050919050565b600082825260208201905092915050565b60006102468261024d565b9050919050565b600073ffffffffffffffffffffffffffffffffffffffff82169050919050565b82818337600083830152505050565b60005b8381101561029a57808201518184015260208101905061027f565b838111156102a9576000848401525b50505050565b6000601f19601f830116905091905056fe60806040523480156200001157600080fd5b50604051620013a7380380620013a78339818101604052620000379190810190620001fe565b336000806101000a81548173ffffffffffffffffffffffffffffffffffffffff021916908373ffffffffffffffffffffffffffffffffffffffff16021790555080600390805190602001906200008f929190620000f3565b5033600260006101000a81548173ffffffffffffffffffffffffffffffffffffffff021916908373ffffffffffffffffffffffffffffffffffffffff1602179055506001600460156101000a81548160ff02191690831515021790555050620002d4565b828054600181600116156101000203166002900490600052602060002090601f016020900481019282601f106200013657805160ff191683800117855562000167565b8280016001018555821562000167579182015b828111156200016657825182559160200191906001019062000149565b5b5090506200017691906200017a565b5090565b6200019f91905b808211156200019b57600081600090555060010162000181565b5090565b90565b600082601f830112620001b457600080fd5b8151620001cb620001c58262000271565b62000243565b91508082526020830160208301858383011115620001e857600080fd5b620001f58382846200029e565b50505092915050565b6000602082840312156200021157600080fd5b600082015167ffffffffffffffff8111156200022c57600080fd5b6200023a84828501620001a2565b91505092915050565b6000604051905081810181811067ffffffffffffffff821117156200026757600080fd5b8060405250919050565b600067ffffffffffffffff8211156200028957600080fd5b601f19601f8301169050602081019050919050565b60005b83811015620002be578082015181840152602081019050620002a1565b83811115620002ce576000848401525b50505050565b6110c380620002e46000396000f3fe608060405234801561001057600080fd5b50600436106100cf5760003560e01c8063ade11f761161008c578063dd98f6f911610066578063dd98f6f914610200578063de4a03861461021e578063de728e831461023c578063f2fde38b1461026c576100cf565b8063ade11f7614610184578063b4893fed146101a0578063b9705c92146101d0576100cf565b806317d7de7c146100d457806322f3e2d4146100f257806325c8c288146101105780632e34911e1461012c5780632fbf8e6d14610148578063893d20e814610166575b600080fd5b6100dc610288565b6040516100e99190610f03565b60405180910390f35b6100fa61032a565b6040516101079190610ee8565b60405180910390f35b61012a60048036036101259190810190610cb7565b610341565b005b61014660048036036101419190810190610cb7565b61055c565b005b6101506106fc565b60405161015d9190610ecd565b60405180910390f35b61016e610726565b60405161017b9190610ecd565b60405180910390f35b61019e60048036036101999190810190610cb7565b61074f565b005b6101ba60048036036101b59190810190610d58565b610938565b6040516101c79190610ecd565b60405180910390f35b6101ea60048036036101e59190810190610ce0565b610979565b6040516101f79190610ee8565b60405180910390f35b610208610a78565b6040516102159190610f85565b60405180910390f35b610226610a85565b6040516102339190610ee8565b60405180910390f35b61025660048036036102519190810190610cb7565b610a9c565b6040516102639190610ee8565b60405180910390f35b61028660048036036102819190810190610cb7565b610aa7565b005b606060038054600181600116156101000203166002900480601f0160208091040260200160405190810160405280929190818152602001828054600181600116156101000203166002900480156103205780601f106102f557610100808354040283529160200191610320565b820191906000526020600020905b81548152906001019060200180831161030357829003601f168201915b5050505050905090565b6000600460159054906101000a900460ff16905090565b60008090506000809054906101000a900473ffffffffffffffffffffffffffffffffffffffff1673ffffffffffffffffffffffffffffffffffffffff163373ffffffffffffffffffffffffffffffffffffffff1614156103a4576001905061043a565b60008090505b600180549050811015610438573373ffffffffffffffffffffffffffffffffffffffff16600182815481106103db57fe5b9060005260206000200160009054906101000a900473ffffffffffffffffffffffffffffffffffffffff1673ffffffffffffffffffffffffffffffffffffffff16141561042b5760019150610438565b80806001019150506103aa565b505b8061047a576040517f08c379a000000000000000000000000000000000000000000000000000000000815260040161047190610f65565b60405180910390fd5b600460009054906101000a900473ffffffffffffffffffffffffffffffffffffffff1673ffffffffffffffffffffffffffffffffffffffff166341c0e1b56040518163ffffffff1660e01b8152600401600060405180830381600087803b1580156104e457600080fd5b505af11580156104f8573d6000803e3d6000fd5b5050505081600460006101000a81548173ffffffffffffffffffffffffffffffffffffffff021916908373ffffffffffffffffffffffffffffffffffffffff1602179055506001600460146101000a81548160ff0219169083151502179055505050565b60008090506000809054906101000a900473ffffffffffffffffffffffffffffffffffffffff1673ffffffffffffffffffffffffffffffffffffffff163373ffffffffffffffffffffffffffffffffffffffff1614156105bf5760019050610655565b60008090505b600180549050811015610653573373ffffffffffffffffffffffffffffffffffffffff16600182815481106105f657fe5b9060005260206000200160009054906101000a900473ffffffffffffffffffffffffffffffffffffffff1673ffffffffffffffffffffffffffffffffffffffff1614156106465760019150610653565b80806001019150506105c5565b505b80610695576040517f08c379a000000000000000000000000000000000000000000000000000000000815260040161068c90610f65565b60405180910390fd5b6001829080600181540180825580915050600190039060005260206000200160009091909190916101000a81548173ffffffffffffffffffffffffffffffffffffffff021916908373ffffffffffffffffffffffffffffffffffffffff1602179055505050565b6000600460009054906101000a900473ffffffffffffffffffffffffffffffffffffffff16905090565b60008060009054906101000a900473ffffffffffffffffffffffffffffffffffffffff16905090565b60008090506000809054906101000a900473ffffffffffffffffffffffffffffffffffffffff1673ffffffffffffffffffffffffffffffffffffffff163373ffffffffffffffffffffffffffffffffffffffff1614156107b25760019050610848565b60008090505b600180549050811015610846573373ffffffffffffffffffffffffffffffffffffffff16600182815481106107e957fe5b9060005260206000200160009054906101000a900473ffffffffffffffffffffffffffffffffffffffff1673ffffffffffffffffffffffffffffffffffffffff1614156108395760019150610846565b80806001019150506107b8565b505b80610888576040517f08c379a000000000000000000000000000000000000000000000000000000000815260040161087f90610f65565b60405180910390fd5b600460149054906101000a900460ff16156108d8576040517f08c379a00000000000000000000000000000000000000000000000000000000081526004016108cf90610f25565b60405180910390fd5b81600460006101000a81548173ffffffffffffffffffffffffffffffffffffffff021916908373ffffffffffffffffffffffffffffffffffffffff1602179055506001600460146101000a81548160ff0219169083151502179055505050565b60006001828154811061094757fe5b9060005260206000200160009054906101000a900473ffffffffffffffffffffffffffffffffffffffff169050919050565b6000610983610a85565b6109c2576040517f08c379a00000000000000000000000000000000000000000000000000000000081526004016109b990610f45565b60405180910390fd5b600460009054906101000a900473ffffffffffffffffffffffffffffffffffffffff1673ffffffffffffffffffffffffffffffffffffffff166301663e59836040518263ffffffff1660e01b8152600401610a1d9190610f85565b602060405180830381600087803b158015610a3757600080fd5b505af1158015610a4b573d6000803e3d6000fd5b505050506040513d601f19601f82011682018060405250610a6f9190810190610d2f565b90509392505050565b6000600180549050905090565b6000600460149054906101000a900460ff16905090565b600060019050919050565b60008090506000809054906101000a900473ffffffffffffffffffffffffffffffffffffffff1673ffffffffffffffffffffffffffffffffffffffff163373ffffffffffffffffffffffffffffffffffffffff161415610b0a5760019050610ba0565b60008090505b600180549050811015610b9e573373ffffffffffffffffffffffffffffffffffffffff1660018281548110610b4157fe5b9060005260206000200160009054906101000a900473ffffffffffffffffffffffffffffffffffffffff1673ffffffffffffffffffffffffffffffffffffffff161415610b915760019150610b9e565b8080600101915050610b10565b505b80610be0576040517f08c379a0000000000000000000000000000000000000000000000000000000008152600401610bd790610f65565b60405180910390fd5b816000806101000a81548173ffffffffffffffffffffffffffffffffffffffff021916908373ffffffffffffffffffffffffffffffffffffffff16021790555060016000610c2e9190610c32565b5050565b5080546000825590600052602060002090810190610c509190610c53565b50565b610c7591905b80821115610c71576000816000905550600101610c59565b5090565b90565b600081359050610c8781611048565b92915050565b600081519050610c9c8161105f565b92915050565b600081359050610cb181611076565b92915050565b600060208284031215610cc957600080fd5b6000610cd784828501610c78565b91505092915050565b600080600060608486031215610cf557600080fd5b6000610d0386828701610c78565b9350506020610d1486828701610c78565b9250506040610d2586828701610ca2565b9150509250925092565b600060208284031215610d4157600080fd5b6000610d4f84828501610c8d565b91505092915050565b600060208284031215610d6a57600080fd5b6000610d7884828501610ca2565b91505092915050565b610d8a81610fbc565b82525050565b610d9981610fce565b82525050565b6000610daa82610fa0565b610db48185610fab565b9350610dc4818560208601611004565b610dcd81611037565b840191505092915050565b6000610de5602d83610fab565b91507f436f6e7472616374206163746976652c20757365206368616e6765417070726f60008301527f76616c436f6e74726163742829000000000000000000000000000000000000006020830152604082019050919050565b6000610e4b601b83610fab565b91507f4e6f2061637469766520617070726f76616c20636f6e747261637400000000006000830152602082019050919050565b6000610e8b601a83610fab565b91507f596f7520617265206e6f74206120546f6b656e206f776e6572210000000000006000830152602082019050919050565b610ec781610ffa565b82525050565b6000602082019050610ee26000830184610d81565b92915050565b6000602082019050610efd6000830184610d90565b92915050565b60006020820190508181036000830152610f1d8184610d9f565b905092915050565b60006020820190508181036000830152610f3e81610dd8565b9050919050565b60006020820190508181036000830152610f5e81610e3e565b9050919050565b60006020820190508181036000830152610f7e81610e7e565b9050919050565b6000602082019050610f9a6000830184610ebe565b92915050565b600081519050919050565b600082825260208201905092915050565b6000610fc782610fda565b9050919050565b60008115159050919050565b600073ffffffffffffffffffffffffffffffffffffffff82169050919050565b6000819050919050565b60005b83811015611022578082015181840152602081019050611007565b83811115611031576000848401525b50505050565b6000601f19601f8301169050919050565b61105181610fbc565b811461105c57600080fd5b50565b61106881610fce565b811461107357600080fd5b50565b61107f81610ffa565b811461108a57600080fd5b5056fea26469706673582212200b6ce8685e1b9907c9e173cbea6de70418a5a20f55bc351bb3bb41e0d78f5bae64736f6c63430006020033a264697066735822122045001236088e1980943a9f51c881ef1ed536f63d44a47796886211173505d82764736f6c63430006020033",
  "source": "pragma solidity ^0.6.2;\npragma experimental ABIEncoderV2;\n\nimport \"./Ownable.sol\";\nimport \"./ApprovalContract.sol\";\n\ncontract EntityFactory {\n    constructor() public {\n    }\n\n    function newEntity(string memory _name) public returns (address newEntity) {\n        Entity newEntity = (new Entity(_name));\n    }\n}\n/**\n * Authorities operational contract\n */\ncontract Entity is Ownable {\n    address private owner;\n    string private name;\n    address private approvalContract;\n    bool private assignedContract;\n    bool private active;\n\n    constructor(string memory _name) public {\n        name = _name;\n        owner = msg.sender;\n        active = true;\n    }\n\n    // ----------------- GETTERS ----------------- //\n\n    function getApprovalContract() public view returns (address) {\n        return approvalContract;\n    }\n\n    function getName() public view returns (string memory) {\n        return name;\n    }\n\n    function activeContract() public view returns (bool) {\n        return assignedContract;\n    }\n\n    function isActive() public view returns (bool) {\n        return active;\n    }\n\n    // --------------- END GETTERS --------------- //\n\n    // ------- ENTITY MANAGEMENT FUNCTIONS ------ //\n\n    /**\n     * Entitys logic of approving the addition of child entities\n     */\n    function askToAdd(address _entitiy) public returns (bool) {\n        return true;\n    }\n\n    // ----- END ENTITY MANAGEMENT FUNCTIONS ---- //\n\n    // -------- ENTITY CONTRACT FUNCTIONS ------- //\n\n    function setApprovalContract(address _addr) public isOwner() {\n        require(\n            !assignedContract,\n            \"Contract active, use changeApprovalContract()\"\n        );\n        approvalContract = _addr;\n        assignedContract = true;\n    }\n\n    function changeApprovalContract(address _addr) public isOwner() {\n        ApprovalContract(approvalContract).kill();\n        approvalContract = _addr;\n        assignedContract = true;\n    }\n\n    // ------ END TOKEN CONTRACT FUNCTIONS ------ //\n\n    // Anyone can ask if a trade is valid\n    function approveTrade(\n        address _from,\n        address _to,\n        uint256 _amount\n    ) public returns (bool) {\n        require(activeContract(), \"No active approval contract\");\n        return\n            ApprovalContract(approvalContract).approveTrade(_amount);\n    }\n}\n",
  "sourcePath": "/Users/dagan/Code/CommodityMarket/water-consortium-contracts/contracts/Entity.sol",
  "compiler": {
    "name": "solc",
    "version": "0.6.2+commit.bacdbe57.Emscripten.clang"
  },
  "schemaVersion": "3.0.20",
  "updatedAt": "2020-06-25T04:14:07.816Z",
  "networkType": "ethereum",
  "devdoc": {
    "methods": {}
  },
  "userdoc": {
    "methods": {}
  }
}