{
  "contractName": "Entity",
  "abi": [
    {
      "inputs": [
        {
          "internalType": "address",
          "name": "_owner",
          "type": "address"
        },
        {
          "internalType": "string",
          "name": "_name",
          "type": "string"
        }
      ],
      "stateMutability": "nonpayable",
      "type": "constructor"
    },
    {
      "inputs": [
        {
          "internalType": "address",
          "name": "_addr",
          "type": "address"
        }
      ],
      "name": "addAdditionalOwner",
      "outputs": [],
      "stateMutability": "nonpayable",
      "type": "function"
    },
    {
      "inputs": [
        {
          "internalType": "uint256",
          "name": "_index",
          "type": "uint256"
        }
      ],
      "name": "getAdditionalOwner",
      "outputs": [
        {
          "internalType": "address",
          "name": "",
          "type": "address"
        }
      ],
      "stateMutability": "view",
      "type": "function"
    },
    {
      "inputs": [],
      "name": "getAdditionalOwnersLength",
      "outputs": [
        {
          "internalType": "uint256",
          "name": "",
          "type": "uint256"
        }
      ],
      "stateMutability": "view",
      "type": "function"
    },
    {
      "inputs": [],
      "name": "getOwner",
      "outputs": [
        {
          "internalType": "address",
          "name": "",
          "type": "address"
        }
      ],
      "stateMutability": "view",
      "type": "function"
    },
    {
      "inputs": [
        {
          "internalType": "address",
          "name": "_addr",
          "type": "address"
        }
      ],
      "name": "transferOwnership",
      "outputs": [],
      "stateMutability": "nonpayable",
      "type": "function"
    },
    {
      "inputs": [],
      "name": "getApprovalContract",
      "outputs": [
        {
          "internalType": "address",
          "name": "",
          "type": "address"
        }
      ],
      "stateMutability": "view",
      "type": "function"
    },
    {
      "inputs": [],
      "name": "getName",
      "outputs": [
        {
          "internalType": "string",
          "name": "",
          "type": "string"
        }
      ],
      "stateMutability": "view",
      "type": "function"
    },
    {
      "inputs": [],
      "name": "activeContract",
      "outputs": [
        {
          "internalType": "bool",
          "name": "",
          "type": "bool"
        }
      ],
      "stateMutability": "view",
      "type": "function"
    },
    {
      "inputs": [],
      "name": "isActive",
      "outputs": [
        {
          "internalType": "bool",
          "name": "",
          "type": "bool"
        }
      ],
      "stateMutability": "view",
      "type": "function"
    },
    {
      "inputs": [
        {
          "internalType": "address",
          "name": "_entitiy",
          "type": "address"
        }
      ],
      "name": "askToAdd",
      "outputs": [
        {
          "internalType": "bool",
          "name": "",
          "type": "bool"
        }
      ],
      "stateMutability": "nonpayable",
      "type": "function"
    },
    {
      "inputs": [
        {
          "internalType": "address",
          "name": "_addr",
          "type": "address"
        }
      ],
      "name": "setApprovalContract",
      "outputs": [],
      "stateMutability": "nonpayable",
      "type": "function"
    },
    {
      "inputs": [
        {
          "internalType": "address",
          "name": "_addr",
          "type": "address"
        }
      ],
      "name": "changeApprovalContract",
      "outputs": [],
      "stateMutability": "nonpayable",
      "type": "function"
    },
    {
      "inputs": [
        {
          "internalType": "address",
          "name": "_from",
          "type": "address"
        },
        {
          "internalType": "address",
          "name": "_to",
          "type": "address"
        },
        {
          "internalType": "uint256",
          "name": "_amount",
          "type": "uint256"
        }
      ],
      "name": "approveTrade",
      "outputs": [
        {
          "internalType": "bool",
          "name": "",
          "type": "bool"
        }
      ],
      "stateMutability": "nonpayable",
      "type": "function"
    }
  ],
  "bytecode": "0x60806040523480156200001157600080fd5b50604051620014ba380380620014ba833981810160405262000037919081019062000216565b336000806101000a81548173ffffffffffffffffffffffffffffffffffffffff021916908373ffffffffffffffffffffffffffffffffffffffff16021790555080600390805190602001906200008f929190620000f4565b5081600260006101000a81548173ffffffffffffffffffffffffffffffffffffffff021916908373ffffffffffffffffffffffffffffffffffffffff1602179055506001600460156101000a81548160ff02191690831515021790555050506200034f565b828054600181600116156101000203166002900490600052602060002090601f016020900481019282601f106200013757805160ff191683800117855562000168565b8280016001018555821562000168579182015b82811115620001675782518255916020019190600101906200014a565b5b5090506200017791906200017b565b5090565b620001a091905b808211156200019c57600081600090555060010162000182565b5090565b90565b600081519050620001b48162000335565b92915050565b600082601f830112620001cc57600080fd5b8151620001e3620001dd826200029e565b62000270565b915080825260208301602083018583830111156200020057600080fd5b6200020d838284620002ff565b50505092915050565b600080604083850312156200022a57600080fd5b60006200023a85828601620001a3565b925050602083015167ffffffffffffffff8111156200025857600080fd5b6200026685828601620001ba565b9150509250929050565b6000604051905081810181811067ffffffffffffffff821117156200029457600080fd5b8060405250919050565b600067ffffffffffffffff821115620002b657600080fd5b601f19601f8301169050602081019050919050565b6000620002d882620002df565b9050919050565b600073ffffffffffffffffffffffffffffffffffffffff82169050919050565b60005b838110156200031f57808201518184015260208101905062000302565b838111156200032f576000848401525b50505050565b6200034081620002cb565b81146200034c57600080fd5b50565b61115b806200035f6000396000f3fe608060405234801561001057600080fd5b50600436106100cf5760003560e01c8063ade11f761161008c578063dd98f6f911610066578063dd98f6f914610200578063de4a03861461021e578063de728e831461023c578063f2fde38b1461026c576100cf565b8063ade11f7614610184578063b4893fed146101a0578063b9705c92146101d0576100cf565b806317d7de7c146100d457806322f3e2d4146100f257806325c8c288146101105780632e34911e1461012c5780632fbf8e6d14610148578063893d20e814610166575b600080fd5b6100dc610288565b6040516100e99190610fbb565b60405180910390f35b6100fa61032a565b6040516101079190610fa0565b60405180910390f35b61012a60048036036101259190810190610daf565b610341565b005b61014660048036036101419190810190610daf565b61055d565b005b6101506106fe565b60405161015d9190610f85565b60405180910390f35b61016e610728565b60405161017b9190610f85565b60405180910390f35b61019e60048036036101999190810190610daf565b610751565b005b6101ba60048036036101b59190810190610e50565b61093b565b6040516101c79190610f85565b60405180910390f35b6101ea60048036036101e59190810190610dd8565b61097c565b6040516101f79190610fa0565b60405180910390f35b610208610b6f565b604051610215919061101d565b60405180910390f35b610226610b7c565b6040516102339190610fa0565b60405180910390f35b61025660048036036102519190810190610daf565b610b93565b6040516102639190610fa0565b60405180910390f35b61028660048036036102819190810190610daf565b610b9e565b005b606060038054600181600116156101000203166002900480601f0160208091040260200160405190810160405280929190818152602001828054600181600116156101000203166002900480156103205780601f106102f557610100808354040283529160200191610320565b820191906000526020600020905b81548152906001019060200180831161030357829003601f168201915b5050505050905090565b6000600460159054906101000a900460ff16905090565b60008090506000809054906101000a900473ffffffffffffffffffffffffffffffffffffffff1673ffffffffffffffffffffffffffffffffffffffff163373ffffffffffffffffffffffffffffffffffffffff1614156103a057600190505b8061043b5760008090505b600180549050811015610439573373ffffffffffffffffffffffffffffffffffffffff16600182815481106103dc57fe5b9060005260206000200160009054906101000a900473ffffffffffffffffffffffffffffffffffffffff1673ffffffffffffffffffffffffffffffffffffffff16141561042c5760019150610439565b80806001019150506103ab565b505b8061047b576040517f08c379a000000000000000000000000000000000000000000000000000000000815260040161047290610ffd565b60405180910390fd5b600460009054906101000a900473ffffffffffffffffffffffffffffffffffffffff1673ffffffffffffffffffffffffffffffffffffffff166341c0e1b56040518163ffffffff1660e01b8152600401600060405180830381600087803b1580156104e557600080fd5b505af11580156104f9573d6000803e3d6000fd5b5050505081600460006101000a81548173ffffffffffffffffffffffffffffffffffffffff021916908373ffffffffffffffffffffffffffffffffffffffff1602179055506001600460146101000a81548160ff0219169083151502179055505050565b60008090506000809054906101000a900473ffffffffffffffffffffffffffffffffffffffff1673ffffffffffffffffffffffffffffffffffffffff163373ffffffffffffffffffffffffffffffffffffffff1614156105bc57600190505b806106575760008090505b600180549050811015610655573373ffffffffffffffffffffffffffffffffffffffff16600182815481106105f857fe5b9060005260206000200160009054906101000a900473ffffffffffffffffffffffffffffffffffffffff1673ffffffffffffffffffffffffffffffffffffffff1614156106485760019150610655565b80806001019150506105c7565b505b80610697576040517f08c379a000000000000000000000000000000000000000000000000000000000815260040161068e90610ffd565b60405180910390fd5b6001829080600181540180825580915050600190039060005260206000200160009091909190916101000a81548173ffffffffffffffffffffffffffffffffffffffff021916908373ffffffffffffffffffffffffffffffffffffffff1602179055505050565b6000600460009054906101000a900473ffffffffffffffffffffffffffffffffffffffff16905090565b60008060009054906101000a900473ffffffffffffffffffffffffffffffffffffffff16905090565b60008090506000809054906101000a900473ffffffffffffffffffffffffffffffffffffffff1673ffffffffffffffffffffffffffffffffffffffff163373ffffffffffffffffffffffffffffffffffffffff1614156107b057600190505b8061084b5760008090505b600180549050811015610849573373ffffffffffffffffffffffffffffffffffffffff16600182815481106107ec57fe5b9060005260206000200160009054906101000a900473ffffffffffffffffffffffffffffffffffffffff1673ffffffffffffffffffffffffffffffffffffffff16141561083c5760019150610849565b80806001019150506107bb565b505b8061088b576040517f08c379a000000000000000000000000000000000000000000000000000000000815260040161088290610ffd565b60405180910390fd5b600460149054906101000a900460ff16156108db576040517f08c379a00000000000000000000000000000000000000000000000000000000081526004016108d290610fdd565b60405180910390fd5b81600460006101000a81548173ffffffffffffffffffffffffffffffffffffffff021916908373ffffffffffffffffffffffffffffffffffffffff1602179055506001600460146101000a81548160ff0219169083151502179055505050565b60006001828154811061094a57fe5b9060005260206000200160009054906101000a900473ffffffffffffffffffffffffffffffffffffffff169050919050565b600080600090506000809054906101000a900473ffffffffffffffffffffffffffffffffffffffff1673ffffffffffffffffffffffffffffffffffffffff163373ffffffffffffffffffffffffffffffffffffffff1614156109dd57600190505b80610a785760008090505b600180549050811015610a76573373ffffffffffffffffffffffffffffffffffffffff1660018281548110610a1957fe5b9060005260206000200160009054906101000a900473ffffffffffffffffffffffffffffffffffffffff1673ffffffffffffffffffffffffffffffffffffffff161415610a695760019150610a76565b80806001019150506109e8565b505b80610ab8576040517f08c379a0000000000000000000000000000000000000000000000000000000008152600401610aaf90610ffd565b60405180910390fd5b600460009054906101000a900473ffffffffffffffffffffffffffffffffffffffff1673ffffffffffffffffffffffffffffffffffffffff166301663e59846040518263ffffffff1660e01b8152600401610b13919061101d565b602060405180830381600087803b158015610b2d57600080fd5b505af1158015610b41573d6000803e3d6000fd5b505050506040513d601f19601f82011682018060405250610b659190810190610e27565b9150509392505050565b6000600180549050905090565b6000600460149054906101000a900460ff16905090565b600060019050919050565b60008090506000809054906101000a900473ffffffffffffffffffffffffffffffffffffffff1673ffffffffffffffffffffffffffffffffffffffff163373ffffffffffffffffffffffffffffffffffffffff161415610bfd57600190505b80610c985760008090505b600180549050811015610c96573373ffffffffffffffffffffffffffffffffffffffff1660018281548110610c3957fe5b9060005260206000200160009054906101000a900473ffffffffffffffffffffffffffffffffffffffff1673ffffffffffffffffffffffffffffffffffffffff161415610c895760019150610c96565b8080600101915050610c08565b505b80610cd8576040517f08c379a0000000000000000000000000000000000000000000000000000000008152600401610ccf90610ffd565b60405180910390fd5b816000806101000a81548173ffffffffffffffffffffffffffffffffffffffff021916908373ffffffffffffffffffffffffffffffffffffffff16021790555060016000610d269190610d2a565b5050565b5080546000825590600052602060002090810190610d489190610d4b565b50565b610d6d91905b80821115610d69576000816000905550600101610d51565b5090565b90565b600081359050610d7f816110e0565b92915050565b600081519050610d94816110f7565b92915050565b600081359050610da98161110e565b92915050565b600060208284031215610dc157600080fd5b6000610dcf84828501610d70565b91505092915050565b600080600060608486031215610ded57600080fd5b6000610dfb86828701610d70565b9350506020610e0c86828701610d70565b9250506040610e1d86828701610d9a565b9150509250925092565b600060208284031215610e3957600080fd5b6000610e4784828501610d85565b91505092915050565b600060208284031215610e6257600080fd5b6000610e7084828501610d9a565b91505092915050565b610e8281611054565b82525050565b610e9181611066565b82525050565b6000610ea282611038565b610eac8185611043565b9350610ebc81856020860161109c565b610ec5816110cf565b840191505092915050565b6000610edd602d83611043565b91507f436f6e7472616374206163746976652c20757365206368616e6765417070726f60008301527f76616c436f6e74726163742829000000000000000000000000000000000000006020830152604082019050919050565b6000610f43601a83611043565b91507f596f7520617265206e6f74206120546f6b656e206f776e6572210000000000006000830152602082019050919050565b610f7f81611092565b82525050565b6000602082019050610f9a6000830184610e79565b92915050565b6000602082019050610fb56000830184610e88565b92915050565b60006020820190508181036000830152610fd58184610e97565b905092915050565b60006020820190508181036000830152610ff681610ed0565b9050919050565b6000602082019050818103600083015261101681610f36565b9050919050565b60006020820190506110326000830184610f76565b92915050565b600081519050919050565b600082825260208201905092915050565b600061105f82611072565b9050919050565b60008115159050919050565b600073ffffffffffffffffffffffffffffffffffffffff82169050919050565b6000819050919050565b60005b838110156110ba57808201518184015260208101905061109f565b838111156110c9576000848401525b50505050565b6000601f19601f8301169050919050565b6110e981611054565b81146110f457600080fd5b50565b61110081611066565b811461110b57600080fd5b50565b61111781611092565b811461112257600080fd5b5056fea2646970667358221220d9e12c7765124d9dfccb198acd9b42d9b20ecb75a1f7ca31ec1cf6bc2ee981c164736f6c63430006020033",
  "source": "pragma solidity ^0.6.2;\npragma experimental ABIEncoderV2;\n\nimport \"./Ownable.sol\";\nimport \"./ApprovalContract.sol\";\n\n/**\n * Authorities operational contract\n */\ncontract Entity is Ownable {\n\n\taddress private owner;\n\tstring private name;\n\taddress private approvalContract;\n\tbool private assignedContract;\n\tbool private active;\n\n\tconstructor(address _owner, string memory _name) public {\n\t\tname = _name;\n\t\towner = _owner;\n\t\tactive = true;\n\t}\n\n\t// ----------------- GETTERS ----------------- //\n\n\tfunction getApprovalContract() public view returns(address) {\n\t\treturn approvalContract;\n\t}\n\n\tfunction getName() public view returns(string memory) {\n\t\treturn name;\n\t}\n\n\tfunction activeContract() public view returns(bool) {\n\t\treturn assignedContract;\n\t}\n\n\tfunction isActive() public view returns(bool) {\n\t\treturn active;\n\t}\n\n\t// --------------- END GETTERS --------------- //\n\n\t// ------- ENTITY MANAGEMENT FUNCTIONS ------ //\n\n\t/**\n\t * Entitys logic of approving the addition of child entities\n\t */\n\tfunction askToAdd(address _entitiy) public returns(bool) {\n\t\treturn true;\n\t}\n\n\t// ----- END ENTITY MANAGEMENT FUNCTIONS ---- //\n\n\t// -------- ENTITY CONTRACT FUNCTIONS ------- //\n\n\tfunction setApprovalContract(address _addr) isOwner() public {\n\t\trequire(!assignedContract, \"Contract active, use changeApprovalContract()\");\n\t\tapprovalContract = _addr;\n\t\tassignedContract = true;\n\t}\n\n\n\n\tfunction changeApprovalContract(address _addr) public isOwner() {\n\t\tApprovalContract(approvalContract).kill();\n\t\tapprovalContract = _addr;\n\t\tassignedContract = true;\n\t}\n\n\t// ------ END TOKEN CONTRACT FUNCTIONS ------ //\n\n\t// Users trade, but entities approve the trade\n\tfunction approveTrade(\n\t\t\taddress _from,\n\t\t\taddress _to,\n\t\t\tuint _amount) isOwner() public returns(bool) {\n\t\t// Request from contract\n\t\treturn ApprovalContract(approvalContract).approveTrade(_amount);\n\t}\n\n}\n",
  "sourcePath": "/Users/dagan/Documents/Blockchain/ChainShot/DAPPS/testDAPP/CommodityMarket/contracts/Entity.sol",
  "compiler": {
    "name": "solc",
    "version": "0.6.2+commit.bacdbe57.Emscripten.clang"
  },
  "schemaVersion": "3.0.20",
  "updatedAt": "2020-05-23T11:30:59.789Z",
  "devdoc": {
    "methods": {}
  },
  "userdoc": {
    "methods": {
      "askToAdd(address)": {
        "notice": "Entitys logic of approving the addition of child entities"
      },
      "transferOwnership(address)": {
        "notice": "Ownership given to a new authority, all other ownership cleared"
      }
    },
    "notice": "Authorities operational contract"
  }
}