{
  "contractName": "Ownable",
  "abi": [
    {
      "inputs": [],
      "stateMutability": "nonpayable",
      "type": "constructor"
    },
    {
      "inputs": [],
      "name": "getOwner",
      "outputs": [
        {
          "internalType": "address",
          "name": "",
          "type": "address"
        }
      ],
      "stateMutability": "view",
      "type": "function"
    },
    {
      "inputs": [
        {
          "internalType": "address",
          "name": "_addr",
          "type": "address"
        }
      ],
      "name": "addAdditionalOwner",
      "outputs": [],
      "stateMutability": "nonpayable",
      "type": "function"
    },
    {
      "inputs": [],
      "name": "getAdditionalOwnersLength",
      "outputs": [
        {
          "internalType": "uint256",
          "name": "",
          "type": "uint256"
        }
      ],
      "stateMutability": "view",
      "type": "function"
    },
    {
      "inputs": [
        {
          "internalType": "uint256",
          "name": "_index",
          "type": "uint256"
        }
      ],
      "name": "getAdditionalOwner",
      "outputs": [
        {
          "internalType": "address",
          "name": "",
          "type": "address"
        }
      ],
      "stateMutability": "view",
      "type": "function"
    },
    {
      "inputs": [
        {
          "internalType": "address",
          "name": "_addr",
          "type": "address"
        }
      ],
      "name": "transferOwnership",
      "outputs": [],
      "stateMutability": "nonpayable",
      "type": "function"
    }
  ],
  "bytecode": "0x608060405234801561001057600080fd5b50336000806101000a81548173ffffffffffffffffffffffffffffffffffffffff021916908373ffffffffffffffffffffffffffffffffffffffff160217905550610640806100606000396000f3fe608060405234801561001057600080fd5b50600436106100575760003560e01c80632e34911e1461005c578063893d20e8146100a0578063b4893fed146100ea578063dd98f6f914610158578063f2fde38b14610176575b600080fd5b61009e6004803603602081101561007257600080fd5b81019080803573ffffffffffffffffffffffffffffffffffffffff1690602001909291905050506101ba565b005b6100a861038e565b604051808273ffffffffffffffffffffffffffffffffffffffff1673ffffffffffffffffffffffffffffffffffffffff16815260200191505060405180910390f35b6101166004803603602081101561010057600080fd5b81019080803590602001909291905050506103b7565b604051808273ffffffffffffffffffffffffffffffffffffffff1673ffffffffffffffffffffffffffffffffffffffff16815260200191505060405180910390f35b6101606103f8565b6040518082815260200191505060405180910390f35b6101b86004803603602081101561018c57600080fd5b81019080803573ffffffffffffffffffffffffffffffffffffffff169060200190929190505050610405565b005b60008090506000809054906101000a900473ffffffffffffffffffffffffffffffffffffffff1673ffffffffffffffffffffffffffffffffffffffff163373ffffffffffffffffffffffffffffffffffffffff16141561021957600190505b806102b45760008090505b6001805490508110156102b2573373ffffffffffffffffffffffffffffffffffffffff166001828154811061025557fe5b9060005260206000200160009054906101000a900473ffffffffffffffffffffffffffffffffffffffff1673ffffffffffffffffffffffffffffffffffffffff1614156102a557600191506102b2565b8080600101915050610224565b505b80610327576040517f08c379a000000000000000000000000000000000000000000000000000000000815260040180806020018281038252601a8152602001807f596f7520617265206e6f74206120546f6b656e206f776e65722100000000000081525060200191505060405180910390fd5b6001829080600181540180825580915050600190039060005260206000200160009091909190916101000a81548173ffffffffffffffffffffffffffffffffffffffff021916908373ffffffffffffffffffffffffffffffffffffffff1602179055505050565b60008060009054906101000a900473ffffffffffffffffffffffffffffffffffffffff16905090565b6000600182815481106103c657fe5b9060005260206000200160009054906101000a900473ffffffffffffffffffffffffffffffffffffffff169050919050565b6000600180549050905090565b60008090506000809054906101000a900473ffffffffffffffffffffffffffffffffffffffff1673ffffffffffffffffffffffffffffffffffffffff163373ffffffffffffffffffffffffffffffffffffffff16141561046457600190505b806104ff5760008090505b6001805490508110156104fd573373ffffffffffffffffffffffffffffffffffffffff16600182815481106104a057fe5b9060005260206000200160009054906101000a900473ffffffffffffffffffffffffffffffffffffffff1673ffffffffffffffffffffffffffffffffffffffff1614156104f057600191506104fd565b808060010191505061046f565b505b80610572576040517f08c379a000000000000000000000000000000000000000000000000000000000815260040180806020018281038252601a8152602001807f596f7520617265206e6f74206120546f6b656e206f776e65722100000000000081525060200191505060405180910390fd5b816000806101000a81548173ffffffffffffffffffffffffffffffffffffffff021916908373ffffffffffffffffffffffffffffffffffffffff160217905550600160006105c091906105c4565b5050565b50805460008255906000526020600020908101906105e291906105e5565b50565b61060791905b808211156106035760008160009055506001016105eb565b5090565b9056fea2646970667358221220d0e9061cecc62a8a14c7e1d6dd979d6cf2df754795ddaee10ea30842590f7b2464736f6c63430006020033",
  "source": "pragma solidity ^0.6.2;\n\ncontract Ownable {\n\taddress private owner;\n\taddress[] private additionalOwners; // important for large orgs\n\n\tconstructor() public {\n\t\towner = msg.sender;\n\t}\n\n\t/**\n\t * Reverts of included functions are modified by non Token addresses\n\t */\n\n\tmodifier isOwner() {\n\t\tbool isOwner = false;\n\t\tif (msg.sender == owner) {\n\t\t\tisOwner = true;\n\t\t}\n\t\tif (!isOwner) {\n\t\t\tfor (uint i = 0; i < additionalOwners.length; i++) {\n\t\t\t\tif (additionalOwners[i] == msg.sender) {\n\t\t\t\t\tisOwner = true;\n\t\t\t\t\tbreak;\n\t\t\t\t}\n\t\t\t}\n\t\t}\n\t\trequire(isOwner, \"You are not a Token owner!\");\n\t\t_;\n\t}\n\n\t// TODO: Add Voting Function here\n\t// TODO: emit event here\n\t// TODO: remove authority, transfer ownership\n\tfunction getOwner() public view returns(address) {\n\t\treturn owner;\n\t}\n\n\tfunction addAdditionalOwner(address _addr) isOwner() public {\n\t\tadditionalOwners.push(_addr);\n\t}\n\n\tfunction getAdditionalOwnersLength() public view returns(uint) {\n\t\treturn additionalOwners.length;\n\t}\n\n\tfunction getAdditionalOwner(uint _index) public view returns(address) {\n\t\treturn additionalOwners[_index];\n\t}\n\n\t/**\n\t * Ownership given to a new authority, all other ownership cleared\n\t */\n\tfunction transferOwnership(address _addr) public isOwner() {\n\t\towner = _addr;\n\t\tdelete additionalOwners;\n\t}\n}\n",
  "sourcePath": "/Users/dagan/Documents/Blockchain/ChainShot/DAPPS/testDAPP/CommodityMarket/contracts/Ownable.sol",
  "compiler": {
    "name": "solc",
    "version": "0.6.2+commit.bacdbe57.Emscripten.clang"
  },
  "schemaVersion": "3.0.20",
  "updatedAt": "2020-05-23T03:03:24.669Z",
  "devdoc": {
    "methods": {}
  },
  "userdoc": {
    "methods": {
      "transferOwnership(address)": {
        "notice": "Ownership given to a new authority, all other ownership cleared"
      }
    }
  }
}