{
  "contractName": "Ownable",
  "abi": [
    {
      "inputs": [],
      "stateMutability": "nonpayable",
      "type": "constructor"
    },
    {
      "inputs": [],
      "name": "getOwner",
      "outputs": [
        {
          "internalType": "address",
          "name": "",
          "type": "address"
        }
      ],
      "stateMutability": "view",
      "type": "function",
      "constant": true
    },
    {
      "inputs": [
        {
          "internalType": "address",
          "name": "_addr",
          "type": "address"
        }
      ],
      "name": "addAdditionalOwner",
      "outputs": [],
      "stateMutability": "nonpayable",
      "type": "function"
    },
    {
      "inputs": [],
      "name": "getAdditionalOwnersLength",
      "outputs": [
        {
          "internalType": "uint256",
          "name": "",
          "type": "uint256"
        }
      ],
      "stateMutability": "view",
      "type": "function",
      "constant": true
    },
    {
      "inputs": [
        {
          "internalType": "uint256",
          "name": "_index",
          "type": "uint256"
        }
      ],
      "name": "getAdditionalOwner",
      "outputs": [
        {
          "internalType": "address",
          "name": "",
          "type": "address"
        }
      ],
      "stateMutability": "view",
      "type": "function",
      "constant": true
    },
    {
      "inputs": [
        {
          "internalType": "address",
          "name": "_addr",
          "type": "address"
        }
      ],
      "name": "transferOwnership",
      "outputs": [],
      "stateMutability": "nonpayable",
      "type": "function"
    }
  ],
  "bytecode": "0x608060405234801561001057600080fd5b50336000806101000a81548173ffffffffffffffffffffffffffffffffffffffff021916908373ffffffffffffffffffffffffffffffffffffffff16021790555061063e806100606000396000f3fe608060405234801561001057600080fd5b50600436106100575760003560e01c80632e34911e1461005c578063893d20e8146100a0578063b4893fed146100ea578063dd98f6f914610158578063f2fde38b14610176575b600080fd5b61009e6004803603602081101561007257600080fd5b81019080803573ffffffffffffffffffffffffffffffffffffffff1690602001909291905050506101ba565b005b6100a861038d565b604051808273ffffffffffffffffffffffffffffffffffffffff1673ffffffffffffffffffffffffffffffffffffffff16815260200191505060405180910390f35b6101166004803603602081101561010057600080fd5b81019080803590602001909291905050506103b6565b604051808273ffffffffffffffffffffffffffffffffffffffff1673ffffffffffffffffffffffffffffffffffffffff16815260200191505060405180910390f35b6101606103f7565b6040518082815260200191505060405180910390f35b6101b86004803603602081101561018c57600080fd5b81019080803573ffffffffffffffffffffffffffffffffffffffff169060200190929190505050610404565b005b60008090506000809054906101000a900473ffffffffffffffffffffffffffffffffffffffff1673ffffffffffffffffffffffffffffffffffffffff163373ffffffffffffffffffffffffffffffffffffffff16141561021d57600190506102b3565b60008090505b6001805490508110156102b1573373ffffffffffffffffffffffffffffffffffffffff166001828154811061025457fe5b9060005260206000200160009054906101000a900473ffffffffffffffffffffffffffffffffffffffff1673ffffffffffffffffffffffffffffffffffffffff1614156102a457600191506102b1565b8080600101915050610223565b505b80610326576040517f08c379a000000000000000000000000000000000000000000000000000000000815260040180806020018281038252601a8152602001807f596f7520617265206e6f74206120546f6b656e206f776e65722100000000000081525060200191505060405180910390fd5b6001829080600181540180825580915050600190039060005260206000200160009091909190916101000a81548173ffffffffffffffffffffffffffffffffffffffff021916908373ffffffffffffffffffffffffffffffffffffffff1602179055505050565b60008060009054906101000a900473ffffffffffffffffffffffffffffffffffffffff16905090565b6000600182815481106103c557fe5b9060005260206000200160009054906101000a900473ffffffffffffffffffffffffffffffffffffffff169050919050565b6000600180549050905090565b60008090506000809054906101000a900473ffffffffffffffffffffffffffffffffffffffff1673ffffffffffffffffffffffffffffffffffffffff163373ffffffffffffffffffffffffffffffffffffffff16141561046757600190506104fd565b60008090505b6001805490508110156104fb573373ffffffffffffffffffffffffffffffffffffffff166001828154811061049e57fe5b9060005260206000200160009054906101000a900473ffffffffffffffffffffffffffffffffffffffff1673ffffffffffffffffffffffffffffffffffffffff1614156104ee57600191506104fb565b808060010191505061046d565b505b80610570576040517f08c379a000000000000000000000000000000000000000000000000000000000815260040180806020018281038252601a8152602001807f596f7520617265206e6f74206120546f6b656e206f776e65722100000000000081525060200191505060405180910390fd5b816000806101000a81548173ffffffffffffffffffffffffffffffffffffffff021916908373ffffffffffffffffffffffffffffffffffffffff160217905550600160006105be91906105c2565b5050565b50805460008255906000526020600020908101906105e091906105e3565b50565b61060591905b808211156106015760008160009055506001016105e9565b5090565b9056fea26469706673582212206c1d2dcc4e6ba5f735d7ca3a4d83b3c13a8bc3638989bd2ea25e936e4a533f6a64736f6c63430006020033",
  "source": "pragma solidity ^0.6.2;\n\n\ncontract Ownable {\n    address private owner;\n    address[] private additionalOwners; // important for large orgs\n\n    constructor() public {\n        owner = msg.sender;\n    }\n\n    /**\n     * Reverts of included functions are modified by non Token addresses\n     */\n\n    modifier isOwner() {\n        bool isOwner = false;\n        if (msg.sender == owner) {\n            isOwner = true;\n        } else {\n            for (uint256 i = 0; i < additionalOwners.length; i++) {\n                if (additionalOwners[i] == msg.sender) {\n                    isOwner = true;\n                    break;\n                }\n            }\n        }\n        require(isOwner, \"You are not a Token owner!\");\n        _;\n    }\n\n    function getOwner() public view returns (address) {\n        return owner;\n    }\n\n    function addAdditionalOwner(address _addr) public isOwner() {\n        additionalOwners.push(_addr);\n    }\n\n    function getAdditionalOwnersLength()\n        public\n        view\n        returns (uint256)\n    {\n        return additionalOwners.length;\n    }\n\n    function getAdditionalOwner(uint256 _index)\n        public\n        view\n        returns (address)\n    {\n        return additionalOwners[_index];\n    }\n\n    /**\n     * Ownership given to a new authority, all other ownership cleared\n     */\n    function transferOwnership(address _addr) public isOwner() {\n        owner = _addr;\n        delete additionalOwners;\n    }\n}\n",
  "sourcePath": "/Users/dagan/Code/CommodityMarket/water-consortium-contracts/contracts/Ownable.sol",
  "compiler": {
    "name": "solc",
    "version": "0.6.2+commit.bacdbe57.Emscripten.clang"
  },
  "schemaVersion": "3.0.20",
  "updatedAt": "2020-06-25T04:14:07.820Z",
  "networkType": "ethereum",
  "devdoc": {
    "methods": {}
  },
  "userdoc": {
    "methods": {
      "transferOwnership(address)": {
        "notice": "Ownership given to a new authority, all other ownership cleared"
      }
    }
  }
}