{
  "contractName": "Token",
  "abi": [
    {
      "inputs": [
        {
          "internalType": "address",
          "name": "_addr",
          "type": "address"
        }
      ],
      "name": "addAdditionalOwner",
      "outputs": [],
      "stateMutability": "nonpayable",
      "type": "function"
    },
    {
      "inputs": [
        {
          "internalType": "uint256",
          "name": "_index",
          "type": "uint256"
        }
      ],
      "name": "getAdditionalOwner",
      "outputs": [
        {
          "internalType": "address",
          "name": "",
          "type": "address"
        }
      ],
      "stateMutability": "view",
      "type": "function"
    },
    {
      "inputs": [],
      "name": "getAdditionalOwnersLength",
      "outputs": [
        {
          "internalType": "uint256",
          "name": "",
          "type": "uint256"
        }
      ],
      "stateMutability": "view",
      "type": "function"
    },
    {
      "inputs": [],
      "name": "getOwner",
      "outputs": [
        {
          "internalType": "address",
          "name": "",
          "type": "address"
        }
      ],
      "stateMutability": "view",
      "type": "function"
    },
    {
      "inputs": [
        {
          "internalType": "address",
          "name": "_addr",
          "type": "address"
        }
      ],
      "name": "transferOwnership",
      "outputs": [],
      "stateMutability": "nonpayable",
      "type": "function"
    },
    {
      "inputs": [],
      "name": "getTotalSupply",
      "outputs": [
        {
          "internalType": "uint256",
          "name": "",
          "type": "uint256"
        }
      ],
      "stateMutability": "view",
      "type": "function"
    },
    {
      "inputs": [],
      "name": "getTotalEntitlements",
      "outputs": [
        {
          "internalType": "uint256",
          "name": "",
          "type": "uint256"
        }
      ],
      "stateMutability": "view",
      "type": "function"
    },
    {
      "inputs": [],
      "name": "getEntitiesLength",
      "outputs": [
        {
          "internalType": "uint256",
          "name": "",
          "type": "uint256"
        }
      ],
      "stateMutability": "view",
      "type": "function"
    },
    {
      "inputs": [
        {
          "internalType": "address",
          "name": "_entityContract",
          "type": "address"
        }
      ],
      "name": "getEntity",
      "outputs": [
        {
          "components": [
            {
              "internalType": "address",
              "name": "entityContract",
              "type": "address"
            },
            {
              "internalType": "uint256",
              "name": "entitlement",
              "type": "uint256"
            },
            {
              "internalType": "uint256",
              "name": "allocation",
              "type": "uint256"
            },
            {
              "internalType": "uint256",
              "name": "storedWater",
              "type": "uint256"
            },
            {
              "internalType": "address",
              "name": "parentAuthority",
              "type": "address"
            },
            {
              "internalType": "address[]",
              "name": "children",
              "type": "address[]"
            },
            {
              "internalType": "bool",
              "name": "added",
              "type": "bool"
            }
          ],
          "internalType": "struct Token.EntityProxyStruct",
          "name": "",
          "type": "tuple"
        }
      ],
      "stateMutability": "view",
      "type": "function"
    },
    {
      "inputs": [
        {
          "internalType": "uint256",
          "name": "_index",
          "type": "uint256"
        }
      ],
      "name": "getEntityAt",
      "outputs": [
        {
          "internalType": "address",
          "name": "",
          "type": "address"
        }
      ],
      "stateMutability": "view",
      "type": "function"
    },
    {
      "inputs": [
        {
          "internalType": "address",
          "name": "_addr",
          "type": "address"
        }
      ],
      "name": "getEntitiesParentAuthority",
      "outputs": [
        {
          "internalType": "address",
          "name": "",
          "type": "address"
        }
      ],
      "stateMutability": "view",
      "type": "function"
    },
    {
      "inputs": [
        {
          "internalType": "address",
          "name": "_addr",
          "type": "address"
        }
      ],
      "name": "getTraderAuthority",
      "outputs": [
        {
          "internalType": "address",
          "name": "",
          "type": "address"
        }
      ],
      "stateMutability": "view",
      "type": "function"
    },
    {
      "inputs": [
        {
          "internalType": "address",
          "name": "_address",
          "type": "address"
        }
      ],
      "name": "getChildrenLength",
      "outputs": [
        {
          "internalType": "uint256",
          "name": "",
          "type": "uint256"
        }
      ],
      "stateMutability": "view",
      "type": "function"
    },
    {
      "inputs": [
        {
          "internalType": "address",
          "name": "_address",
          "type": "address"
        },
        {
          "internalType": "uint256",
          "name": "_index",
          "type": "uint256"
        }
      ],
      "name": "getChildAt",
      "outputs": [
        {
          "internalType": "address",
          "name": "",
          "type": "address"
        }
      ],
      "stateMutability": "view",
      "type": "function"
    },
    {
      "inputs": [],
      "name": "getRootEntity",
      "outputs": [
        {
          "internalType": "address",
          "name": "",
          "type": "address"
        }
      ],
      "stateMutability": "view",
      "type": "function"
    },
    {
      "inputs": [
        {
          "internalType": "address",
          "name": "_entityContract",
          "type": "address"
        }
      ],
      "name": "addRootEntity",
      "outputs": [],
      "stateMutability": "nonpayable",
      "type": "function"
    },
    {
      "inputs": [
        {
          "internalType": "address",
          "name": "_entityContract",
          "type": "address"
        },
        {
          "internalType": "address",
          "name": "_parent",
          "type": "address"
        }
      ],
      "name": "addEntity",
      "outputs": [],
      "stateMutability": "nonpayable",
      "type": "function"
    },
    {
      "inputs": [
        {
          "internalType": "address",
          "name": "_addr",
          "type": "address"
        },
        {
          "internalType": "address",
          "name": "_authority",
          "type": "address"
        },
        {
          "internalType": "uint256",
          "name": "_storedWater",
          "type": "uint256"
        }
      ],
      "name": "addTrader",
      "outputs": [],
      "stateMutability": "nonpayable",
      "type": "function"
    },
    {
      "inputs": [
        {
          "internalType": "address",
          "name": "_from",
          "type": "address"
        },
        {
          "internalType": "address",
          "name": "_to",
          "type": "address"
        },
        {
          "internalType": "uint256",
          "name": "_amount",
          "type": "uint256"
        }
      ],
      "name": "trade",
      "outputs": [],
      "stateMutability": "nonpayable",
      "type": "function"
    }
  ],
  "bytecode": "0x60806040526012600260006101000a81548160ff021916908360ff160217905550336000806101000a81548173ffffffffffffffffffffffffffffffffffffffff021916908373ffffffffffffffffffffffffffffffffffffffff160217905550612c218061006f6000396000f3fe608060405234801561001057600080fd5b50600436106101215760003560e01c806375894e8c116100ad578063c4e41b2211610071578063c4e41b221461032c578063ca4543a61461034a578063cfd8cc3a14610368578063dd98f6f914610398578063f2fde38b146103b657610121565b806375894e8c1461024e578063893d20e81461027e578063a94be3df1461029c578063b16510b7146102cc578063b4893fed146102fc57610121565b806343bfb9d2116100f457806343bfb9d21461019a57806347c9fea2146101b65780634c039761146101d25780635253baae14610202578063737721301461021e57610121565b806303257e34146101265780630655b9ba146101425780630bd1eb3b146101605780632e34911e1461017e575b600080fd5b610140600480360361013b9190810190612405565b6103d2565b005b61014a61094e565b6040516101579190612925565b60405180910390f35b610168610ab2565b6040516101759190612af9565b60405180910390f35b610198600480360361019391908101906123a0565b610abc565b005b6101b460048036036101af91908101906123a0565b610c5c565b005b6101d060048036036101cb91908101906123c9565b6110dc565b005b6101ec60048036036101e791908101906123a0565b61169d565b6040516101f99190612925565b60405180910390f35b61021c60048036036102179190810190612405565b611709565b005b610238600480360361023391908101906124b9565b611758565b6040516102459190612925565b60405180910390f35b610268600480360361026391908101906123a0565b611799565b6040516102759190612ad7565b60405180910390f35b610286611965565b6040516102939190612925565b60405180910390f35b6102b660048036036102b191908101906123a0565b61198e565b6040516102c39190612925565b60405180910390f35b6102e660048036036102e19190810190612454565b6119fa565b6040516102f39190612925565b60405180910390f35b610316600480360361031191908101906124b9565b611a7c565b6040516103239190612925565b60405180910390f35b610334611abd565b6040516103419190612af9565b60405180910390f35b610352611ac7565b60405161035f9190612af9565b60405180910390f35b610382600480360361037d91908101906123a0565b611ad4565b60405161038f9190612af9565b60405180910390f35b6103a0611b23565b6040516103ad9190612af9565b60405180910390f35b6103d060048036036103cb91908101906123a0565b611b30565b005b60008090506000809054906101000a900473ffffffffffffffffffffffffffffffffffffffff1673ffffffffffffffffffffffffffffffffffffffff163373ffffffffffffffffffffffffffffffffffffffff16141561043557600190506104cb565b60008090505b6001805490508110156104c9573373ffffffffffffffffffffffffffffffffffffffff166001828154811061046c57fe5b9060005260206000200160009054906101000a900473ffffffffffffffffffffffffffffffffffffffff1673ffffffffffffffffffffffffffffffffffffffff1614156104bc57600191506104c9565b808060010191505061043b565b505b8061050b576040517f08c379a000000000000000000000000000000000000000000000000000000000815260040161050290612a97565b60405180910390fd5b600073ffffffffffffffffffffffffffffffffffffffff16600560009054906101000a900473ffffffffffffffffffffffffffffffffffffffff1673ffffffffffffffffffffffffffffffffffffffff16141561059d576040517f08c379a0000000000000000000000000000000000000000000000000000000008152600401610594906129d7565b60405180910390fd5b600660008473ffffffffffffffffffffffffffffffffffffffff1673ffffffffffffffffffffffffffffffffffffffff16815260200190815260200160002060060160009054906101000a900460ff16801561067357508273ffffffffffffffffffffffffffffffffffffffff166322f3e2d46040518163ffffffff1660e01b815260040160206040518083038186803b15801561063a57600080fd5b505afa15801561064e573d6000803e3d6000fd5b505050506040513d601f19601f820116820180604052506106729190810190612490565b5b6106b2576040517f08c379a00000000000000000000000000000000000000000000000000000000081526004016106a990612a37565b60405180910390fd5b600860008573ffffffffffffffffffffffffffffffffffffffff1673ffffffffffffffffffffffffffffffffffffffff16815260200190815260200160002060040160009054906101000a900460ff1615610742576040517f08c379a0000000000000000000000000000000000000000000000000000000008152600401610739906129f7565b60405180910390fd5b6009849080600181540180825580915050600190039060005260206000200160009091909190916101000a81548173ffffffffffffffffffffffffffffffffffffffff021916908373ffffffffffffffffffffffffffffffffffffffff1602179055506107ad61217f565b84816000019073ffffffffffffffffffffffffffffffffffffffff16908173ffffffffffffffffffffffffffffffffffffffff1681525050838160a0019073ffffffffffffffffffffffffffffffffffffffff16908173ffffffffffffffffffffffffffffffffffffffff168152505082816060018181525050600181608001901515908115158152505080600860008773ffffffffffffffffffffffffffffffffffffffff1673ffffffffffffffffffffffffffffffffffffffff16815260200190815260200160002060008201518160000160006101000a81548173ffffffffffffffffffffffffffffffffffffffff021916908373ffffffffffffffffffffffffffffffffffffffff16021790555060208201518160010155604082015181600201556060820151816003015560808201518160040160006101000a81548160ff02191690831515021790555060a08201518160040160016101000a81548173ffffffffffffffffffffffffffffffffffffffff021916908373ffffffffffffffffffffffffffffffffffffffff1602179055509050505050505050565b600080600090506000809054906101000a900473ffffffffffffffffffffffffffffffffffffffff1673ffffffffffffffffffffffffffffffffffffffff163373ffffffffffffffffffffffffffffffffffffffff1614156109b35760019050610a49565b60008090505b600180549050811015610a47573373ffffffffffffffffffffffffffffffffffffffff16600182815481106109ea57fe5b9060005260206000200160009054906101000a900473ffffffffffffffffffffffffffffffffffffffff1673ffffffffffffffffffffffffffffffffffffffff161415610a3a5760019150610a47565b80806001019150506109b9565b505b80610a89576040517f08c379a0000000000000000000000000000000000000000000000000000000008152600401610a8090612a97565b60405180910390fd5b600560009054906101000a900473ffffffffffffffffffffffffffffffffffffffff1691505090565b6000600454905090565b60008090506000809054906101000a900473ffffffffffffffffffffffffffffffffffffffff1673ffffffffffffffffffffffffffffffffffffffff163373ffffffffffffffffffffffffffffffffffffffff161415610b1f5760019050610bb5565b60008090505b600180549050811015610bb3573373ffffffffffffffffffffffffffffffffffffffff1660018281548110610b5657fe5b9060005260206000200160009054906101000a900473ffffffffffffffffffffffffffffffffffffffff1673ffffffffffffffffffffffffffffffffffffffff161415610ba65760019150610bb3565b8080600101915050610b25565b505b80610bf5576040517f08c379a0000000000000000000000000000000000000000000000000000000008152600401610bec90612a97565b60405180910390fd5b6001829080600181540180825580915050600190039060005260206000200160009091909190916101000a81548173ffffffffffffffffffffffffffffffffffffffff021916908373ffffffffffffffffffffffffffffffffffffffff1602179055505050565b60008090506000809054906101000a900473ffffffffffffffffffffffffffffffffffffffff1673ffffffffffffffffffffffffffffffffffffffff163373ffffffffffffffffffffffffffffffffffffffff161415610cbf5760019050610d55565b60008090505b600180549050811015610d53573373ffffffffffffffffffffffffffffffffffffffff1660018281548110610cf657fe5b9060005260206000200160009054906101000a900473ffffffffffffffffffffffffffffffffffffffff1673ffffffffffffffffffffffffffffffffffffffff161415610d465760019150610d53565b8080600101915050610cc5565b505b80610d95576040517f08c379a0000000000000000000000000000000000000000000000000000000008152600401610d8c90612a97565b60405180910390fd5b600073ffffffffffffffffffffffffffffffffffffffff16600560009054906101000a900473ffffffffffffffffffffffffffffffffffffffff1673ffffffffffffffffffffffffffffffffffffffff1614610e26576040517f08c379a0000000000000000000000000000000000000000000000000000000008152600401610e1d90612a17565b60405180910390fd5b600660008373ffffffffffffffffffffffffffffffffffffffff1673ffffffffffffffffffffffffffffffffffffffff16815260200190815260200160002060060160009054906101000a900460ff1615610eb6576040517f08c379a0000000000000000000000000000000000000000000000000000000008152600401610ead90612ab7565b60405180910390fd5b81600560006101000a81548173ffffffffffffffffffffffffffffffffffffffff021916908373ffffffffffffffffffffffffffffffffffffffff1602179055506007829080600181540180825580915050600190039060005260206000200160009091909190916101000a81548173ffffffffffffffffffffffffffffffffffffffff021916908373ffffffffffffffffffffffffffffffffffffffff160217905550610f626121e3565b82816000019073ffffffffffffffffffffffffffffffffffffffff16908173ffffffffffffffffffffffffffffffffffffffff168152505060018160c001901515908115158152505080600660008573ffffffffffffffffffffffffffffffffffffffff1673ffffffffffffffffffffffffffffffffffffffff16815260200190815260200160002060008201518160000160006101000a81548173ffffffffffffffffffffffffffffffffffffffff021916908373ffffffffffffffffffffffffffffffffffffffff16021790555060208201518160010155604082015181600201556060820151816003015560808201518160040160006101000a81548173ffffffffffffffffffffffffffffffffffffffff021916908373ffffffffffffffffffffffffffffffffffffffff16021790555060a08201518160050190805190602001906110b392919061224e565b5060c08201518160060160006101000a81548160ff021916908315150217905550905050505050565b600073ffffffffffffffffffffffffffffffffffffffff16600560009054906101000a900473ffffffffffffffffffffffffffffffffffffffff1673ffffffffffffffffffffffffffffffffffffffff16141561116e576040517f08c379a0000000000000000000000000000000000000000000000000000000008152600401611165906129d7565b60405180910390fd5b600660008373ffffffffffffffffffffffffffffffffffffffff1673ffffffffffffffffffffffffffffffffffffffff16815260200190815260200160002060060160009054906101000a900460ff16156111fe576040517f08c379a00000000000000000000000000000000000000000000000000000000081526004016111f590612ab7565b60405180910390fd5b600660008273ffffffffffffffffffffffffffffffffffffffff1673ffffffffffffffffffffffffffffffffffffffff16815260200190815260200160002060060160009054906101000a900460ff1680156112d457508073ffffffffffffffffffffffffffffffffffffffff166322f3e2d46040518163ffffffff1660e01b815260040160206040518083038186803b15801561129b57600080fd5b505afa1580156112af573d6000803e3d6000fd5b505050506040513d601f19601f820116820180604052506112d39190810190612490565b5b611313576040517f08c379a000000000000000000000000000000000000000000000000000000000815260040161130a90612a37565b60405180910390fd5b8073ffffffffffffffffffffffffffffffffffffffff1663de728e83836040518263ffffffff1660e01b815260040161134c9190612925565b602060405180830381600087803b15801561136657600080fd5b505af115801561137a573d6000803e3d6000fd5b505050506040513d601f19601f8201168201806040525061139e9190810190612490565b6113dd576040517f08c379a00000000000000000000000000000000000000000000000000000000081526004016113d490612997565b60405180910390fd5b6007829080600181540180825580915050600190039060005260206000200160009091909190916101000a81548173ffffffffffffffffffffffffffffffffffffffff021916908373ffffffffffffffffffffffffffffffffffffffff160217905550600660008273ffffffffffffffffffffffffffffffffffffffff1673ffffffffffffffffffffffffffffffffffffffff168152602001908152602001600020600501829080600181540180825580915050600190039060005260206000200160009091909190916101000a81548173ffffffffffffffffffffffffffffffffffffffff021916908373ffffffffffffffffffffffffffffffffffffffff1602179055506114eb6121e3565b82816000019073ffffffffffffffffffffffffffffffffffffffff16908173ffffffffffffffffffffffffffffffffffffffff168152505081816080019073ffffffffffffffffffffffffffffffffffffffff16908173ffffffffffffffffffffffffffffffffffffffff168152505060018160c001901515908115158152505080600660008573ffffffffffffffffffffffffffffffffffffffff1673ffffffffffffffffffffffffffffffffffffffff16815260200190815260200160002060008201518160000160006101000a81548173ffffffffffffffffffffffffffffffffffffffff021916908373ffffffffffffffffffffffffffffffffffffffff16021790555060208201518160010155604082015181600201556060820151816003015560808201518160040160006101000a81548173ffffffffffffffffffffffffffffffffffffffff021916908373ffffffffffffffffffffffffffffffffffffffff16021790555060a082015181600501908051906020019061167492919061224e565b5060c08201518160060160006101000a81548160ff021916908315150217905550905050505050565b6000600660008373ffffffffffffffffffffffffffffffffffffffff1673ffffffffffffffffffffffffffffffffffffffff16815260200190815260200160002060040160009054906101000a900473ffffffffffffffffffffffffffffffffffffffff169050919050565b611714838383611cbb565b611753576040517f08c379a000000000000000000000000000000000000000000000000000000000815260040161174a90612977565b60405180910390fd5b505050565b60006007828154811061176757fe5b9060005260206000200160009054906101000a900473ffffffffffffffffffffffffffffffffffffffff169050919050565b6117a16121e3565b600660008373ffffffffffffffffffffffffffffffffffffffff1673ffffffffffffffffffffffffffffffffffffffff1681526020019081526020016000206040518060e00160405290816000820160009054906101000a900473ffffffffffffffffffffffffffffffffffffffff1673ffffffffffffffffffffffffffffffffffffffff1673ffffffffffffffffffffffffffffffffffffffff1681526020016001820154815260200160028201548152602001600382015481526020016004820160009054906101000a900473ffffffffffffffffffffffffffffffffffffffff1673ffffffffffffffffffffffffffffffffffffffff1673ffffffffffffffffffffffffffffffffffffffff1681526020016005820180548060200260200160405190810160405280929190818152602001828054801561193a57602002820191906000526020600020905b8160009054906101000a900473ffffffffffffffffffffffffffffffffffffffff1673ffffffffffffffffffffffffffffffffffffffff16815260200190600101908083116118f0575b505050505081526020016006820160009054906101000a900460ff1615151515815250509050919050565b60008060009054906101000a900473ffffffffffffffffffffffffffffffffffffffff16905090565b6000600860008373ffffffffffffffffffffffffffffffffffffffff1673ffffffffffffffffffffffffffffffffffffffff16815260200190815260200160002060040160019054906101000a900473ffffffffffffffffffffffffffffffffffffffff169050919050565b6000600660008473ffffffffffffffffffffffffffffffffffffffff1673ffffffffffffffffffffffffffffffffffffffff1681526020019081526020016000206005018281548110611a4957fe5b9060005260206000200160009054906101000a900473ffffffffffffffffffffffffffffffffffffffff16905092915050565b600060018281548110611a8b57fe5b9060005260206000200160009054906101000a900473ffffffffffffffffffffffffffffffffffffffff169050919050565b6000600354905090565b6000600780549050905090565b6000600660008373ffffffffffffffffffffffffffffffffffffffff1673ffffffffffffffffffffffffffffffffffffffff168152602001908152602001600020600501805490509050919050565b6000600180549050905090565b60008090506000809054906101000a900473ffffffffffffffffffffffffffffffffffffffff1673ffffffffffffffffffffffffffffffffffffffff163373ffffffffffffffffffffffffffffffffffffffff161415611b935760019050611c29565b60008090505b600180549050811015611c27573373ffffffffffffffffffffffffffffffffffffffff1660018281548110611bca57fe5b9060005260206000200160009054906101000a900473ffffffffffffffffffffffffffffffffffffffff1673ffffffffffffffffffffffffffffffffffffffff161415611c1a5760019150611c27565b8080600101915050611b99565b505b80611c69576040517f08c379a0000000000000000000000000000000000000000000000000000000008152600401611c6090612a97565b60405180910390fd5b816000806101000a81548173ffffffffffffffffffffffffffffffffffffffff021916908373ffffffffffffffffffffffffffffffffffffffff16021790555060016000611cb791906122d8565b5050565b600080600860008673ffffffffffffffffffffffffffffffffffffffff1673ffffffffffffffffffffffffffffffffffffffff16815260200190815260200160002060040160019054906101000a900473ffffffffffffffffffffffffffffffffffffffff1690506000600860008673ffffffffffffffffffffffffffffffffffffffff1673ffffffffffffffffffffffffffffffffffffffff16815260200190815260200160002060040160019054906101000a900473ffffffffffffffffffffffffffffffffffffffff1690508073ffffffffffffffffffffffffffffffffffffffff168273ffffffffffffffffffffffffffffffffffffffff161415611e91578173ffffffffffffffffffffffffffffffffffffffff1663b9705c928787876040518463ffffffff1660e01b8152600401611dfb93929190612940565b602060405180830381600087803b158015611e1557600080fd5b505af1158015611e29573d6000803e3d6000fd5b505050506040513d601f19601f82011682018060405250611e4d9190810190612490565b611e8c576040517f08c379a0000000000000000000000000000000000000000000000000000000008152600401611e8390612a77565b60405180910390fd5b612082565b5b600560009054906101000a900473ffffffffffffffffffffffffffffffffffffffff1673ffffffffffffffffffffffffffffffffffffffff16600660008473ffffffffffffffffffffffffffffffffffffffff1673ffffffffffffffffffffffffffffffffffffffff16815260200190815260200160002060040160009054906101000a900473ffffffffffffffffffffffffffffffffffffffff1673ffffffffffffffffffffffffffffffffffffffff1614612081578173ffffffffffffffffffffffffffffffffffffffff1663b9705c928787876040518463ffffffff1660e01b8152600401611f8693929190612940565b602060405180830381600087803b158015611fa057600080fd5b505af1158015611fb4573d6000803e3d6000fd5b505050506040513d601f19601f82011682018060405250611fd89190810190612490565b612017576040517f08c379a000000000000000000000000000000000000000000000000000000000815260040161200e906129b7565b60405180910390fd5b600660008373ffffffffffffffffffffffffffffffffffffffff1673ffffffffffffffffffffffffffffffffffffffff16815260200190815260200160002060040160009054906101000a900473ffffffffffffffffffffffffffffffffffffffff169150611e92565b5b600560009054906101000a900473ffffffffffffffffffffffffffffffffffffffff1673ffffffffffffffffffffffffffffffffffffffff1663b9705c928787876040518463ffffffff1660e01b81526004016120e193929190612940565b602060405180830381600087803b1580156120fb57600080fd5b505af115801561210f573d6000803e3d6000fd5b505050506040513d601f19601f820116820180604052506121339190810190612490565b612172576040517f08c379a000000000000000000000000000000000000000000000000000000000815260040161216990612a57565b60405180910390fd5b6001925050509392505050565b6040518060c00160405280600073ffffffffffffffffffffffffffffffffffffffff168152602001600081526020016000815260200160008152602001600015158152602001600073ffffffffffffffffffffffffffffffffffffffff1681525090565b6040518060e00160405280600073ffffffffffffffffffffffffffffffffffffffff168152602001600081526020016000815260200160008152602001600073ffffffffffffffffffffffffffffffffffffffff168152602001606081526020016000151581525090565b8280548282559060005260206000209081019282156122c7579160200282015b828111156122c65782518260006101000a81548173ffffffffffffffffffffffffffffffffffffffff021916908373ffffffffffffffffffffffffffffffffffffffff1602179055509160200191906001019061226e565b5b5090506122d491906122f9565b5090565b50805460008255906000526020600020908101906122f6919061233c565b50565b61233991905b8082111561233557600081816101000a81549073ffffffffffffffffffffffffffffffffffffffff0219169055506001016122ff565b5090565b90565b61235e91905b8082111561235a576000816000905550600101612342565b5090565b90565b60008135905061237081612ba6565b92915050565b60008151905061238581612bbd565b92915050565b60008135905061239a81612bd4565b92915050565b6000602082840312156123b257600080fd5b60006123c084828501612361565b91505092915050565b600080604083850312156123dc57600080fd5b60006123ea85828601612361565b92505060206123fb85828601612361565b9150509250929050565b60008060006060848603121561241a57600080fd5b600061242886828701612361565b935050602061243986828701612361565b925050604061244a8682870161238b565b9150509250925092565b6000806040838503121561246757600080fd5b600061247585828601612361565b92505060206124868582860161238b565b9150509250929050565b6000602082840312156124a257600080fd5b60006124b084828501612376565b91505092915050565b6000602082840312156124cb57600080fd5b60006124d98482850161238b565b91505092915050565b60006124ee83836124fa565b60208301905092915050565b61250381612b5e565b82525050565b61251281612b5e565b82525050565b600061252382612b24565b61252d8185612b3c565b935061253883612b14565b8060005b8381101561256957815161255088826124e2565b975061255b83612b2f565b92505060018101905061253c565b5085935050505092915050565b61257f81612b70565b82525050565b6000612592600d83612b4d565b91507f496e76616c6964207472616465000000000000000000000000000000000000006000830152602082019050919050565b60006125d2601f83612b4d565b91507f506172656e7420617574686f726974792064656e6965642072657175657374006000830152602082019050919050565b6000612612601b83612b4d565b91507f466f726569676e20656e746974792064656e69656420747261646500000000006000830152602082019050919050565b6000612652602483612b4d565b91507f4e6f20726f6f7420656e746974792c20637265617465206265666f726520616460008301527f64696e67000000000000000000000000000000000000000000000000000000006020830152604082019050919050565b60006126b8601583612b4d565b91507f54726164657220616c72656164792065786973747300000000000000000000006000830152602082019050919050565b60006126f8601c83612b4d565b91507f526f6f7420456e7469747920616c72656164792061737369676e6564000000006000830152602082019050919050565b6000612738601883612b4d565b91507f506172656e7420656e74697479206e6f742061637469766500000000000000006000830152602082019050919050565b6000612778601d83612b4d565b91507f54726164652064656e696564206f6e202766726f6d27206272616e63680000006000830152602082019050919050565b60006127b8601983612b4d565b91507f4c6f63616c20656e746974792064656e696564207472616465000000000000006000830152602082019050919050565b60006127f8601a83612b4d565b91507f596f7520617265206e6f74206120546f6b656e206f776e6572210000000000006000830152602082019050919050565b6000612838601583612b4d565b91507f456e7469747920616c72656164792065786973747300000000000000000000006000830152602082019050919050565b600060e08301600083015161288360008601826124fa565b5060208301516128966020860182612907565b5060408301516128a96040860182612907565b5060608301516128bc6060860182612907565b5060808301516128cf60808601826124fa565b5060a083015184820360a08601526128e78282612518565b91505060c08301516128fc60c0860182612576565b508091505092915050565b61291081612b9c565b82525050565b61291f81612b9c565b82525050565b600060208201905061293a6000830184612509565b92915050565b60006060820190506129556000830186612509565b6129626020830185612509565b61296f6040830184612916565b949350505050565b6000602082019050818103600083015261299081612585565b9050919050565b600060208201905081810360008301526129b0816125c5565b9050919050565b600060208201905081810360008301526129d081612605565b9050919050565b600060208201905081810360008301526129f081612645565b9050919050565b60006020820190508181036000830152612a10816126ab565b9050919050565b60006020820190508181036000830152612a30816126eb565b9050919050565b60006020820190508181036000830152612a508161272b565b9050919050565b60006020820190508181036000830152612a708161276b565b9050919050565b60006020820190508181036000830152612a90816127ab565b9050919050565b60006020820190508181036000830152612ab0816127eb565b9050919050565b60006020820190508181036000830152612ad08161282b565b9050919050565b60006020820190508181036000830152612af1818461286b565b905092915050565b6000602082019050612b0e6000830184612916565b92915050565b6000819050602082019050919050565b600081519050919050565b6000602082019050919050565b600082825260208201905092915050565b600082825260208201905092915050565b6000612b6982612b7c565b9050919050565b60008115159050919050565b600073ffffffffffffffffffffffffffffffffffffffff82169050919050565b6000819050919050565b612baf81612b5e565b8114612bba57600080fd5b50565b612bc681612b70565b8114612bd157600080fd5b50565b612bdd81612b9c565b8114612be857600080fd5b5056fea2646970667358221220d0fe09ea18eb8eedea89517ab68279fe3fd5755ccce3a8e635ef7658c7e582aa64736f6c63430006020033",
  "source": "pragma solidity ^0.6.2;\npragma experimental ABIEncoderV2;\n\nimport \"./Ownable.sol\";\nimport \"./Entity.sol\";\n\n\n/**\n * This Token represnets an\n */\ncontract Token is Ownable {\n    uint8 private decimals = 18;\n    uint256 private totalSupply; // allocations\n    uint256 private totalEntitlements; // entitlements\n\n    struct EntityProxyStruct {\n        address entityContract;\n        uint256 entitlement;\n        uint256 allocation;\n        uint256 storedWater;\n        address parentAuthority;\n        address[] children;\n        bool added;\n    }\n\n    struct Trader {\n        address trader;\n        uint256 entitlement;\n        uint256 allocation;\n        uint256 storedWater;\n        bool active;\n        address authority;\n    }\n\n    // Storing entities as array and mapping for easier access and traversal\n    address private rootEntity;\n    mapping(address => EntityProxyStruct) private entities;\n    address[] private entityAddresses;\n\n    // Storing traders as array and mapping for easier access and traversal\n    mapping(address => Trader) private traders;\n    address[] private traderAddresses;\n\n    modifier activeTrader(address _addr) {\n        require(\n            traders[_addr].active,\n            \"Not an active trader address\"\n        );\n        _;\n    }\n\n    // ----------------- GETTERS ----------------- //\n    function getTotalSupply() public view returns (uint256) {\n        return totalSupply;\n    }\n\n    function getTotalEntitlements() public view returns (uint256) {\n        return totalEntitlements;\n    }\n\n    function getEntitiesLength() public view returns (uint256) {\n        return entityAddresses.length;\n    }\n\n    function getEntity(address _entityContract)\n        public\n        view\n        returns (EntityProxyStruct memory)\n    {\n        return entities[_entityContract];\n    }\n\n    function getEntityAt(uint256 _index)\n        public\n        view\n        returns (address)\n    {\n        return entityAddresses[_index];\n    }\n\n    function getEntitiesParentAuthority(address _addr)\n        public\n        view\n        returns (address)\n    {\n        return entities[_addr].parentAuthority;\n    }\n\n    // Trader's parent enitity\n    function getTraderAuthority(address _addr)\n        public\n        view\n        returns (address)\n    {\n        return traders[_addr].authority;\n    }\n\n    function getChildrenLength(address _address)\n        public\n        view\n        returns (uint256)\n    {\n        return entities[_address].children.length;\n    }\n\n    function getChildAt(address _address, uint256 _index)\n        public\n        view\n        returns (address)\n    {\n        return entities[_address].children[_index];\n    }\n\n    function getRootEntity() public view isOwner() returns (address) {\n        return rootEntity;\n    }\n\n    // --------------- END GETTERS ----------------- //\n\n    // ---------- TOKEN ENTITY FUNCTIONS ---------- //\n\n    function addRootEntity(address _entityContract) public isOwner() {\n        require(\n            rootEntity == address(0),\n            \"Root Entity already assigned\"\n        );\n        require(\n            !entities[_entityContract].added,\n            \"Entity already exists\"\n        );\n        rootEntity = _entityContract;\n        entityAddresses.push(_entityContract);\n\n        EntityProxyStruct memory entityStruct;\n        entityStruct.entityContract = _entityContract;\n        entityStruct.added = true;\n\n        entities[_entityContract] = entityStruct;\n    }\n\n    /**\n     * Entity created by calling the entity contract outside of this function\n     * and adding to the structure by calling addEntity\n     */\n    function addEntity(address _entityContract, address _parent)\n        public\n    {\n        require(\n            rootEntity != address(0),\n            \"No root entity, create before adding\"\n        );\n        require(\n            !entities[_entityContract].added,\n            \"Entity already exists\"\n        );\n        require(\n            entities[_parent].added && Entity(_parent).isActive(),\n            \"Parent entity not active\"\n        );\n        require(\n            Entity(_parent).askToAdd(_entityContract),\n            \"Parent authority denied request\"\n        );\n\n        entityAddresses.push(_entityContract);\n        entities[_parent].children.push(_entityContract);\n\n        EntityProxyStruct memory entityStruct;\n        entityStruct.entityContract = _entityContract;\n        entityStruct.parentAuthority = _parent;\n        entityStruct.added = true;\n        entities[_entityContract] = entityStruct;\n    }\n\n    // ---------- TOKEN TRADER FUNCTIONS ---------- //\n\n    function validTrade(\n        address _from,\n        address _to,\n        uint256 _amount\n    ) private returns (bool) {\n        address fromAuthority = traders[_from].authority;\n        address toAuthority = traders[_to].authority;\n\n        // LOCAL\n        if (fromAuthority == toAuthority) {\n            require(\n                Entity(fromAuthority).approveTrade(\n                    _from,\n                    _to,\n                    _amount\n                ),\n                \"Local entity denied trade\"\n            );\n        } else {\n            // FOREIGN\n            while (\n                entities[fromAuthority].parentAuthority != rootEntity\n            ) {\n                require(\n                    Entity(fromAuthority).approveTrade(\n                        _from,\n                        _to,\n                        _amount\n                    ),\n                    \"Foreign entity denied trade\"\n                );\n                fromAuthority = entities[fromAuthority]\n                    .parentAuthority;\n            }\n        }\n        require(\n            Entity(rootEntity).approveTrade(_from, _to, _amount),\n            \"Trade denied on 'from' branch\"\n        );\n        return true;\n    }\n\n    function addTrader(\n        address _addr,\n        address _authority,\n        uint256 _storedWater\n    ) public isOwner() {\n        require(\n            rootEntity != address(0),\n            \"No root entity, create before adding\"\n        );\n        require(\n            entities[_authority].added &&\n                Entity(_authority).isActive(),\n            \"Parent entity not active\"\n        );\n        require(!traders[_addr].active, \"Trader already exists\");\n\n        traderAddresses.push(_addr);\n\n        Trader memory trader;\n        trader.trader = _addr;\n        trader.authority = _authority;\n        trader.storedWater = _storedWater;\n        trader.active = true;\n        traders[_addr] = trader;\n    }\n\n    // TODO: enum for the trade type: deliver, allocaiton, entitlement\n    function trade(\n        address _from,\n        address _to,\n        uint256 _amount\n    ) public {\n        require(validTrade(_from, _to, _amount), \"Invalid trade\");\n        // TODO: transfer water\n    }\n\n    // -------- END TOKEN TRADE FUNCTIONS -------- //\n}\n",
  "sourcePath": "/Users/dagan/Documents/Blockchain/ChainShot/DAPPS/testDAPP/CommodityMarket/contracts/Token.sol",
  "compiler": {
    "name": "solc",
    "version": "0.6.2+commit.bacdbe57.Emscripten.clang"
  },
  "schemaVersion": "3.0.20",
  "updatedAt": "2020-05-27T12:55:27.212Z",
  "devdoc": {
    "methods": {}
  },
  "userdoc": {
    "methods": {
      "addEntity(address,address)": {
        "notice": "Entity created by calling the entity contract outside of this function and adding to the structure by calling addEntity"
      },
      "transferOwnership(address)": {
        "notice": "Ownership given to a new authority, all other ownership cleared"
      }
    },
    "notice": "This Token represnets an"
  }
}