{
  "contractName": "Token",
  "abi": [
    {
      "inputs": [
        {
          "internalType": "address",
          "name": "_addr",
          "type": "address"
        }
      ],
      "name": "addAdditionalOwner",
      "outputs": [],
      "stateMutability": "nonpayable",
      "type": "function"
    },
    {
      "inputs": [
        {
          "internalType": "uint256",
          "name": "_index",
          "type": "uint256"
        }
      ],
      "name": "getAdditionalOwner",
      "outputs": [
        {
          "internalType": "address",
          "name": "",
          "type": "address"
        }
      ],
      "stateMutability": "view",
      "type": "function"
    },
    {
      "inputs": [],
      "name": "getAdditionalOwnersLength",
      "outputs": [
        {
          "internalType": "uint256",
          "name": "",
          "type": "uint256"
        }
      ],
      "stateMutability": "view",
      "type": "function"
    },
    {
      "inputs": [],
      "name": "getOwner",
      "outputs": [
        {
          "internalType": "address",
          "name": "",
          "type": "address"
        }
      ],
      "stateMutability": "view",
      "type": "function"
    },
    {
      "inputs": [
        {
          "internalType": "address",
          "name": "_addr",
          "type": "address"
        }
      ],
      "name": "transferOwnership",
      "outputs": [],
      "stateMutability": "nonpayable",
      "type": "function"
    },
    {
      "inputs": [],
      "name": "getEntitiesLength",
      "outputs": [
        {
          "internalType": "uint256",
          "name": "",
          "type": "uint256"
        }
      ],
      "stateMutability": "view",
      "type": "function"
    },
    {
      "inputs": [
        {
          "internalType": "address",
          "name": "_entityContract",
          "type": "address"
        }
      ],
      "name": "getEntity",
      "outputs": [
        {
          "components": [
            {
              "internalType": "address",
              "name": "entityContract",
              "type": "address"
            },
            {
              "internalType": "uint256",
              "name": "entitlement",
              "type": "uint256"
            },
            {
              "internalType": "uint256",
              "name": "allocation",
              "type": "uint256"
            },
            {
              "internalType": "uint256",
              "name": "storedWater",
              "type": "uint256"
            },
            {
              "internalType": "address",
              "name": "parentAuthority",
              "type": "address"
            },
            {
              "internalType": "address[]",
              "name": "children",
              "type": "address[]"
            },
            {
              "internalType": "bool",
              "name": "added",
              "type": "bool"
            }
          ],
          "internalType": "struct Token.EntityStruct",
          "name": "",
          "type": "tuple"
        }
      ],
      "stateMutability": "view",
      "type": "function"
    },
    {
      "inputs": [],
      "name": "getRootEnitity",
      "outputs": [
        {
          "internalType": "address",
          "name": "",
          "type": "address"
        }
      ],
      "stateMutability": "view",
      "type": "function"
    },
    {
      "inputs": [
        {
          "internalType": "address",
          "name": "_entityContract",
          "type": "address"
        }
      ],
      "name": "addRootEntity",
      "outputs": [],
      "stateMutability": "nonpayable",
      "type": "function"
    },
    {
      "inputs": [
        {
          "internalType": "address",
          "name": "_entityContract",
          "type": "address"
        },
        {
          "internalType": "address",
          "name": "_parent",
          "type": "address"
        }
      ],
      "name": "addEntity",
      "outputs": [],
      "stateMutability": "nonpayable",
      "type": "function"
    },
    {
      "inputs": [],
      "name": "getTotalSupply",
      "outputs": [
        {
          "internalType": "uint256",
          "name": "",
          "type": "uint256"
        }
      ],
      "stateMutability": "view",
      "type": "function"
    },
    {
      "inputs": [],
      "name": "getTotalEntitlements",
      "outputs": [
        {
          "internalType": "uint256",
          "name": "",
          "type": "uint256"
        }
      ],
      "stateMutability": "view",
      "type": "function"
    },
    {
      "inputs": [
        {
          "internalType": "address",
          "name": "_addr",
          "type": "address"
        },
        {
          "internalType": "uint256",
          "name": "_storedWater",
          "type": "uint256"
        }
      ],
      "name": "addTrader",
      "outputs": [],
      "stateMutability": "nonpayable",
      "type": "function"
    },
    {
      "inputs": [],
      "name": "getTraderLength",
      "outputs": [
        {
          "internalType": "uint256",
          "name": "",
          "type": "uint256"
        }
      ],
      "stateMutability": "view",
      "type": "function"
    },
    {
      "inputs": [
        {
          "internalType": "address",
          "name": "_addr",
          "type": "address"
        }
      ],
      "name": "getTrader",
      "outputs": [
        {
          "components": [
            {
              "internalType": "address",
              "name": "trader",
              "type": "address"
            },
            {
              "internalType": "uint256",
              "name": "entitlement",
              "type": "uint256"
            },
            {
              "internalType": "uint256",
              "name": "allocation",
              "type": "uint256"
            },
            {
              "internalType": "uint256",
              "name": "storedWater",
              "type": "uint256"
            },
            {
              "internalType": "bool",
              "name": "active",
              "type": "bool"
            },
            {
              "internalType": "address",
              "name": "authority",
              "type": "address"
            }
          ],
          "internalType": "struct Token.Trader",
          "name": "",
          "type": "tuple"
        }
      ],
      "stateMutability": "view",
      "type": "function"
    }
  ],
  "bytecode": "0x60806040526012600260006101000a81548160ff021916908360ff160217905550336000806101000a81548173ffffffffffffffffffffffffffffffffffffffff021916908373ffffffffffffffffffffffffffffffffffffffff16021790555061223d8061006f6000396000f3fe608060405234801561001057600080fd5b50600436106100f55760003560e01c8063893d20e811610097578063d200138211610066578063d200138214610260578063dd98f6f914610290578063f2fde38b146102ae578063f972bce3146102ca576100f5565b8063893d20e8146101d6578063b4893fed146101f4578063c4e41b2214610224578063ca4543a614610242576100f5565b806343bfb9d2116100d357806343bfb9d21461015057806347c9fea21461016c5780636e5599951461018857806375894e8c146101a6576100f5565b80630bd1eb3b146100fa57806327e0f952146101185780632e34911e14610134575b600080fd5b6101026102e8565b60405161010f9190612115565b60405180910390f35b610132600480360361012d9190810190611b91565b6102f2565b005b61014e60048036036101499190810190611b2c565b610601565b005b61016a60048036036101659190810190611b2c565b6107a2565b005b61018660048036036101819190810190611b55565b610c23565b005b6101906111e4565b60405161019d9190612115565b60405180910390f35b6101c060048036036101bb9190810190611b2c565b6111f1565b6040516101cd91906120d8565b60405180910390f35b6101de6113bd565b6040516101eb9190611fdd565b60405180910390f35b61020e60048036036102099190810190611bf6565b6113e6565b60405161021b9190611fdd565b60405180910390f35b61022c611427565b6040516102399190612115565b60405180910390f35b61024a611431565b6040516102579190612115565b60405180910390f35b61027a60048036036102759190810190611b2c565b61143e565b60405161028791906120fa565b60405180910390f35b61029861160d565b6040516102a59190612115565b60405180910390f35b6102c860048036036102c39190810190611b2c565b61161a565b005b6102d26117a6565b6040516102df9190611fdd565b60405180910390f35b6000600454905090565b60008090506000809054906101000a900473ffffffffffffffffffffffffffffffffffffffff1673ffffffffffffffffffffffffffffffffffffffff163373ffffffffffffffffffffffffffffffffffffffff16141561035157600190505b806103ec5760008090505b6001805490508110156103ea573373ffffffffffffffffffffffffffffffffffffffff166001828154811061038d57fe5b9060005260206000200160009054906101000a900473ffffffffffffffffffffffffffffffffffffffff1673ffffffffffffffffffffffffffffffffffffffff1614156103dd57600191506103ea565b808060010191505061035c565b505b8061042c576040517f08c379a000000000000000000000000000000000000000000000000000000000815260040161042390612098565b60405180910390fd5b6006839080600181540180825580915050600190039060005260206000200160009091909190916101000a81548173ffffffffffffffffffffffffffffffffffffffff021916908373ffffffffffffffffffffffffffffffffffffffff1602179055506040518060c001604052808473ffffffffffffffffffffffffffffffffffffffff1681526020016000815260200160008152602001838152602001600115158152602001600073ffffffffffffffffffffffffffffffffffffffff16815250600560008573ffffffffffffffffffffffffffffffffffffffff1673ffffffffffffffffffffffffffffffffffffffff16815260200190815260200160002060008201518160000160006101000a81548173ffffffffffffffffffffffffffffffffffffffff021916908373ffffffffffffffffffffffffffffffffffffffff16021790555060208201518160010155604082015181600201556060820151816003015560808201518160040160006101000a81548160ff02191690831515021790555060a08201518160040160016101000a81548173ffffffffffffffffffffffffffffffffffffffff021916908373ffffffffffffffffffffffffffffffffffffffff160217905550905050505050565b60008090506000809054906101000a900473ffffffffffffffffffffffffffffffffffffffff1673ffffffffffffffffffffffffffffffffffffffff163373ffffffffffffffffffffffffffffffffffffffff16141561066057600190505b806106fb5760008090505b6001805490508110156106f9573373ffffffffffffffffffffffffffffffffffffffff166001828154811061069c57fe5b9060005260206000200160009054906101000a900473ffffffffffffffffffffffffffffffffffffffff1673ffffffffffffffffffffffffffffffffffffffff1614156106ec57600191506106f9565b808060010191505061066b565b505b8061073b576040517f08c379a000000000000000000000000000000000000000000000000000000000815260040161073290612098565b60405180910390fd5b6001829080600181540180825580915050600190039060005260206000200160009091909190916101000a81548173ffffffffffffffffffffffffffffffffffffffff021916908373ffffffffffffffffffffffffffffffffffffffff1602179055505050565b60008090506000809054906101000a900473ffffffffffffffffffffffffffffffffffffffff1673ffffffffffffffffffffffffffffffffffffffff163373ffffffffffffffffffffffffffffffffffffffff16141561080157600190505b8061089c5760008090505b60018054905081101561089a573373ffffffffffffffffffffffffffffffffffffffff166001828154811061083d57fe5b9060005260206000200160009054906101000a900473ffffffffffffffffffffffffffffffffffffffff1673ffffffffffffffffffffffffffffffffffffffff16141561088d576001915061089a565b808060010191505061080c565b505b806108dc576040517f08c379a00000000000000000000000000000000000000000000000000000000081526004016108d390612098565b60405180910390fd5b600073ffffffffffffffffffffffffffffffffffffffff16600760009054906101000a900473ffffffffffffffffffffffffffffffffffffffff1673ffffffffffffffffffffffffffffffffffffffff161461096d576040517f08c379a000000000000000000000000000000000000000000000000000000000815260040161096490612058565b60405180910390fd5b600860008373ffffffffffffffffffffffffffffffffffffffff1673ffffffffffffffffffffffffffffffffffffffff16815260200190815260200160002060060160009054906101000a900460ff16156109fd576040517f08c379a00000000000000000000000000000000000000000000000000000000081526004016109f4906120b8565b60405180910390fd5b81600760006101000a81548173ffffffffffffffffffffffffffffffffffffffff021916908373ffffffffffffffffffffffffffffffffffffffff1602179055506009829080600181540180825580915050600190039060005260206000200160009091909190916101000a81548173ffffffffffffffffffffffffffffffffffffffff021916908373ffffffffffffffffffffffffffffffffffffffff160217905550610aa961190b565b82816000019073ffffffffffffffffffffffffffffffffffffffff16908173ffffffffffffffffffffffffffffffffffffffff168152505060018160c001901515908115158152505080600860008573ffffffffffffffffffffffffffffffffffffffff1673ffffffffffffffffffffffffffffffffffffffff16815260200190815260200160002060008201518160000160006101000a81548173ffffffffffffffffffffffffffffffffffffffff021916908373ffffffffffffffffffffffffffffffffffffffff16021790555060208201518160010155604082015181600201556060820151816003015560808201518160040160006101000a81548173ffffffffffffffffffffffffffffffffffffffff021916908373ffffffffffffffffffffffffffffffffffffffff16021790555060a0820151816005019080519060200190610bfa929190611976565b5060c08201518160060160006101000a81548160ff021916908315150217905550905050505050565b600073ffffffffffffffffffffffffffffffffffffffff16600760009054906101000a900473ffffffffffffffffffffffffffffffffffffffff1673ffffffffffffffffffffffffffffffffffffffff161415610cb5576040517f08c379a0000000000000000000000000000000000000000000000000000000008152600401610cac90612038565b60405180910390fd5b600860008373ffffffffffffffffffffffffffffffffffffffff1673ffffffffffffffffffffffffffffffffffffffff16815260200190815260200160002060060160009054906101000a900460ff1615610d45576040517f08c379a0000000000000000000000000000000000000000000000000000000008152600401610d3c906120b8565b60405180910390fd5b600860008273ffffffffffffffffffffffffffffffffffffffff1673ffffffffffffffffffffffffffffffffffffffff16815260200190815260200160002060060160009054906101000a900460ff168015610e1b57508073ffffffffffffffffffffffffffffffffffffffff166322f3e2d46040518163ffffffff1660e01b815260040160206040518083038186803b158015610de257600080fd5b505afa158015610df6573d6000803e3d6000fd5b505050506040513d601f19601f82011682018060405250610e1a9190810190611bcd565b5b610e5a576040517f08c379a0000000000000000000000000000000000000000000000000000000008152600401610e5190612078565b60405180910390fd5b8073ffffffffffffffffffffffffffffffffffffffff1663de728e83836040518263ffffffff1660e01b8152600401610e939190611fdd565b602060405180830381600087803b158015610ead57600080fd5b505af1158015610ec1573d6000803e3d6000fd5b505050506040513d601f19601f82011682018060405250610ee59190810190611bcd565b610f24576040517f08c379a0000000000000000000000000000000000000000000000000000000008152600401610f1b90611ff8565b60405180910390fd5b6009829080600181540180825580915050600190039060005260206000200160009091909190916101000a81548173ffffffffffffffffffffffffffffffffffffffff021916908373ffffffffffffffffffffffffffffffffffffffff160217905550600860008273ffffffffffffffffffffffffffffffffffffffff1673ffffffffffffffffffffffffffffffffffffffff168152602001908152602001600020600501829080600181540180825580915050600190039060005260206000200160009091909190916101000a81548173ffffffffffffffffffffffffffffffffffffffff021916908373ffffffffffffffffffffffffffffffffffffffff16021790555061103261190b565b82816000019073ffffffffffffffffffffffffffffffffffffffff16908173ffffffffffffffffffffffffffffffffffffffff168152505081816080019073ffffffffffffffffffffffffffffffffffffffff16908173ffffffffffffffffffffffffffffffffffffffff168152505060018160c001901515908115158152505080600860008573ffffffffffffffffffffffffffffffffffffffff1673ffffffffffffffffffffffffffffffffffffffff16815260200190815260200160002060008201518160000160006101000a81548173ffffffffffffffffffffffffffffffffffffffff021916908373ffffffffffffffffffffffffffffffffffffffff16021790555060208201518160010155604082015181600201556060820151816003015560808201518160040160006101000a81548173ffffffffffffffffffffffffffffffffffffffff021916908373ffffffffffffffffffffffffffffffffffffffff16021790555060a08201518160050190805190602001906111bb929190611976565b5060c08201518160060160006101000a81548160ff021916908315150217905550905050505050565b6000600680549050905090565b6111f961190b565b600860008373ffffffffffffffffffffffffffffffffffffffff1673ffffffffffffffffffffffffffffffffffffffff1681526020019081526020016000206040518060e00160405290816000820160009054906101000a900473ffffffffffffffffffffffffffffffffffffffff1673ffffffffffffffffffffffffffffffffffffffff1673ffffffffffffffffffffffffffffffffffffffff1681526020016001820154815260200160028201548152602001600382015481526020016004820160009054906101000a900473ffffffffffffffffffffffffffffffffffffffff1673ffffffffffffffffffffffffffffffffffffffff1673ffffffffffffffffffffffffffffffffffffffff1681526020016005820180548060200260200160405190810160405280929190818152602001828054801561139257602002820191906000526020600020905b8160009054906101000a900473ffffffffffffffffffffffffffffffffffffffff1673ffffffffffffffffffffffffffffffffffffffff1681526020019060010190808311611348575b505050505081526020016006820160009054906101000a900460ff1615151515815250509050919050565b60008060009054906101000a900473ffffffffffffffffffffffffffffffffffffffff16905090565b6000600182815481106113f557fe5b9060005260206000200160009054906101000a900473ffffffffffffffffffffffffffffffffffffffff169050919050565b6000600354905090565b6000600980549050905090565b611446611a00565b81600560008273ffffffffffffffffffffffffffffffffffffffff1673ffffffffffffffffffffffffffffffffffffffff16815260200190815260200160002060040160009054906101000a900460ff166114d6576040517f08c379a00000000000000000000000000000000000000000000000000000000081526004016114cd90612018565b60405180910390fd5b600560008473ffffffffffffffffffffffffffffffffffffffff1673ffffffffffffffffffffffffffffffffffffffff1681526020019081526020016000206040518060c00160405290816000820160009054906101000a900473ffffffffffffffffffffffffffffffffffffffff1673ffffffffffffffffffffffffffffffffffffffff1673ffffffffffffffffffffffffffffffffffffffff1681526020016001820154815260200160028201548152602001600382015481526020016004820160009054906101000a900460ff161515151581526020016004820160019054906101000a900473ffffffffffffffffffffffffffffffffffffffff1673ffffffffffffffffffffffffffffffffffffffff1673ffffffffffffffffffffffffffffffffffffffff1681525050915050919050565b6000600180549050905090565b60008090506000809054906101000a900473ffffffffffffffffffffffffffffffffffffffff1673ffffffffffffffffffffffffffffffffffffffff163373ffffffffffffffffffffffffffffffffffffffff16141561167957600190505b806117145760008090505b600180549050811015611712573373ffffffffffffffffffffffffffffffffffffffff16600182815481106116b557fe5b9060005260206000200160009054906101000a900473ffffffffffffffffffffffffffffffffffffffff1673ffffffffffffffffffffffffffffffffffffffff1614156117055760019150611712565b8080600101915050611684565b505b80611754576040517f08c379a000000000000000000000000000000000000000000000000000000000815260040161174b90612098565b60405180910390fd5b816000806101000a81548173ffffffffffffffffffffffffffffffffffffffff021916908373ffffffffffffffffffffffffffffffffffffffff160217905550600160006117a29190611a64565b5050565b600080600090506000809054906101000a900473ffffffffffffffffffffffffffffffffffffffff1673ffffffffffffffffffffffffffffffffffffffff163373ffffffffffffffffffffffffffffffffffffffff16141561180757600190505b806118a25760008090505b6001805490508110156118a0573373ffffffffffffffffffffffffffffffffffffffff166001828154811061184357fe5b9060005260206000200160009054906101000a900473ffffffffffffffffffffffffffffffffffffffff1673ffffffffffffffffffffffffffffffffffffffff16141561189357600191506118a0565b8080600101915050611812565b505b806118e2576040517f08c379a00000000000000000000000000000000000000000000000000000000081526004016118d990612098565b60405180910390fd5b600760009054906101000a900473ffffffffffffffffffffffffffffffffffffffff1691505090565b6040518060e00160405280600073ffffffffffffffffffffffffffffffffffffffff168152602001600081526020016000815260200160008152602001600073ffffffffffffffffffffffffffffffffffffffff168152602001606081526020016000151581525090565b8280548282559060005260206000209081019282156119ef579160200282015b828111156119ee5782518260006101000a81548173ffffffffffffffffffffffffffffffffffffffff021916908373ffffffffffffffffffffffffffffffffffffffff16021790555091602001919060010190611996565b5b5090506119fc9190611a85565b5090565b6040518060c00160405280600073ffffffffffffffffffffffffffffffffffffffff168152602001600081526020016000815260200160008152602001600015158152602001600073ffffffffffffffffffffffffffffffffffffffff1681525090565b5080546000825590600052602060002090810190611a829190611ac8565b50565b611ac591905b80821115611ac157600081816101000a81549073ffffffffffffffffffffffffffffffffffffffff021916905550600101611a8b565b5090565b90565b611aea91905b80821115611ae6576000816000905550600101611ace565b5090565b90565b600081359050611afc816121c2565b92915050565b600081519050611b11816121d9565b92915050565b600081359050611b26816121f0565b92915050565b600060208284031215611b3e57600080fd5b6000611b4c84828501611aed565b91505092915050565b60008060408385031215611b6857600080fd5b6000611b7685828601611aed565b9250506020611b8785828601611aed565b9150509250929050565b60008060408385031215611ba457600080fd5b6000611bb285828601611aed565b9250506020611bc385828601611b17565b9150509250929050565b600060208284031215611bdf57600080fd5b6000611bed84828501611b02565b91505092915050565b600060208284031215611c0857600080fd5b6000611c1684828501611b17565b91505092915050565b6000611c2b8383611c37565b60208301905092915050565b611c408161217a565b82525050565b611c4f8161217a565b82525050565b6000611c6082612140565b611c6a8185612158565b9350611c7583612130565b8060005b83811015611ca6578151611c8d8882611c1f565b9750611c988361214b565b925050600181019050611c79565b5085935050505092915050565b611cbc8161218c565b82525050565b6000611ccf601f83612169565b91507f506172656e7420617574686f726974792064656e6965642072657175657374006000830152602082019050919050565b6000611d0f601c83612169565b91507f4e6f7420616e20616374697665207472616465722061646472657373000000006000830152602082019050919050565b6000611d4f602483612169565b91507f4e6f20726f6f7420656e746974792c20637265617465206265666f726520616460008301527f64696e67000000000000000000000000000000000000000000000000000000006020830152604082019050919050565b6000611db5601c83612169565b91507f526f6f7420456e7469747920616c72656164792061737369676e6564000000006000830152602082019050919050565b6000611df5601883612169565b91507f506172656e7420656e74697479206e6f742061637469766500000000000000006000830152602082019050919050565b6000611e35601a83612169565b91507f596f7520617265206e6f74206120546f6b656e206f776e6572210000000000006000830152602082019050919050565b6000611e75601583612169565b91507f456e7469747920616c72656164792065786973747300000000000000000000006000830152602082019050919050565b600060e083016000830151611ec06000860182611c37565b506020830151611ed36020860182611fbf565b506040830151611ee66040860182611fbf565b506060830151611ef96060860182611fbf565b506080830151611f0c6080860182611c37565b5060a083015184820360a0860152611f248282611c55565b91505060c0830151611f3960c0860182611cb3565b508091505092915050565b60c082016000820151611f5a6000850182611c37565b506020820151611f6d6020850182611fbf565b506040820151611f806040850182611fbf565b506060820151611f936060850182611fbf565b506080820151611fa66080850182611cb3565b5060a0820151611fb960a0850182611c37565b50505050565b611fc8816121b8565b82525050565b611fd7816121b8565b82525050565b6000602082019050611ff26000830184611c46565b92915050565b6000602082019050818103600083015261201181611cc2565b9050919050565b6000602082019050818103600083015261203181611d02565b9050919050565b6000602082019050818103600083015261205181611d42565b9050919050565b6000602082019050818103600083015261207181611da8565b9050919050565b6000602082019050818103600083015261209181611de8565b9050919050565b600060208201905081810360008301526120b181611e28565b9050919050565b600060208201905081810360008301526120d181611e68565b9050919050565b600060208201905081810360008301526120f28184611ea8565b905092915050565b600060c08201905061210f6000830184611f44565b92915050565b600060208201905061212a6000830184611fce565b92915050565b6000819050602082019050919050565b600081519050919050565b6000602082019050919050565b600082825260208201905092915050565b600082825260208201905092915050565b600061218582612198565b9050919050565b60008115159050919050565b600073ffffffffffffffffffffffffffffffffffffffff82169050919050565b6000819050919050565b6121cb8161217a565b81146121d657600080fd5b50565b6121e28161218c565b81146121ed57600080fd5b50565b6121f9816121b8565b811461220457600080fd5b5056fea264697066735822122055b4335396528339750f684e71a68e949b83bb0989eaa0c5bcf18749db44f12e64736f6c63430006020033",
  "source": "pragma solidity ^0.6.2;\npragma experimental ABIEncoderV2;\n\nimport \"./Ownable.sol\";\nimport \"./Entity.sol\";\n\n/**\n * This Token represnets an\n */\ncontract Token is Ownable {\n\tuint8 private decimals = 18;\n\tuint private totalSupply; // allocations\n\tuint private totalEntitlements; // entitlements\n\n\t/**\n\t * Each water entitlement holder is a trader\n\t */\n\tstruct Trader {\n\t\taddress trader;\n\t\tuint entitlement;\n\t\tuint allocation;\n\t\tuint storedWater;\n\t\tbool active;\n\t\taddress authority;\n\t}\n\n\tstruct EntityStruct {\n\t\taddress entityContract;\n\t\tuint entitlement;\n\t\tuint allocation;\n\t\tuint storedWater;\n\t\taddress parentAuthority;\n\t\taddress[] children;\n\t\tbool added;\n\t}\n\n\tmodifier activeTrader(address _addr) {\n\t\trequire(traders[_addr].active, \"Not an active trader address\");\n\t\t_;\n\t}\n\n\t// Storing traders as array and mapping for easier access and traversal\n\tmapping(address => Trader) private traders;\n\taddress[] private traderAddresses;\n\n\t// Storing entities as array and mapping for easier access and traversal\n\taddress private rootEntity;\n\tmapping(address => EntityStruct) private entities;\n\taddress[] private entityAddresses;\n\n\t// ---------- TOKEN ENTITY FUNCTIONS ---------- //\n\n\t// getters\n\n\tfunction getEntitiesLength() public view returns(uint) {\n\t\treturn entityAddresses.length;\n\t}\n\n\tfunction getEntity(address _entityContract) public view returns (EntityStruct memory) {\n\t\treturn entities[_entityContract];\n\t}\n\n\tfunction getRootEnitity() isOwner() public view returns(address) {\n\t\treturn rootEntity;\n\t}\n\n\t// end getters\n\n\t// operators\n\n\tfunction addRootEntity(address _entityContract) isOwner() public {\n\t\trequire(rootEntity == address(0), \"Root Entity already assigned\");\n\t\trequire(!entities[_entityContract].added, \"Entity already exists\");\n\t\trootEntity = _entityContract;\n\t\tentityAddresses.push(_entityContract);\n\n\t\tEntityStruct memory entityStruct;\n\t\tentityStruct.entityContract = _entityContract;\n\t\tentityStruct.added = true;\n\n\t\tentities[_entityContract] = entityStruct;\n\t}\n\n\t/**\n\t * Entity created by calling the entity contract outside of this function\n\t * and adding to the structure by calling addEntity\n\t */\n\tfunction addEntity(address _entityContract, address _parent) public {\n\t\trequire(rootEntity != address(0), \"No root entity, create before adding\");\n\t\trequire(!entities[_entityContract].added, \"Entity already exists\");\n\t\trequire(entities[_parent].added && Entity(_parent).isActive(), \"Parent entity not active\");\n\n\t\t// Ask parent to add\n\n\t\t// parentContract.askToAdd(rootEntity);\n\t\trequire(Entity(_parent).askToAdd(_entityContract), \"Parent authority denied request\");\n\n\t\tentityAddresses.push(_entityContract);\n\t\tentities[_parent].children.push(_entityContract);\n\n\t\tEntityStruct memory entityStruct;\n\t\tentityStruct.entityContract = _entityContract;\n\t\tentityStruct.parentAuthority = _parent;\n\t\tentityStruct.added = true;\n\t\tentities[_entityContract] = entityStruct;\n\t}\n\n\n\t// -------- END TOKEN ENTITY FUNCTIONS -------- //\n\n\n\n\n\t// -------- TOKEN MANAGMENT FUNCTIONS -------- //\n\n\t/**\n\t * Get total allocations within the network\n\t */\n\tfunction getTotalSupply() public view returns(uint) {\n\t\treturn totalSupply;\n\t}\n\n\tfunction getTotalEntitlements() public view returns(uint) {\n\t\treturn totalEntitlements;\n\t}\n\n\t// ------ END TOKEN MANAGMENT FUNCTIONS ------ //\n\n\t// ---------- TOKEN TRADE FUNCTIONS ---------- //\n\n\tfunction addTrader(\n\t\t\taddress _addr,\n\t\t\tuint _storedWater) isOwner() public {\n\t\ttraderAddresses.push(_addr);\n\t\ttraders[_addr] = Trader(\n\t\t\t_addr,\n\t\t\t0,\n\t\t\t0,\n\t\t\t_storedWater,\n\t\t\ttrue,\n\t\t\taddress(0)\n\t\t);\n\t}\n\n\tfunction getTraderLength() public view returns(uint) {\n\t\treturn traderAddresses.length;\n\t}\n\n\tfunction getTrader(address _addr) activeTrader(_addr) public view returns(Trader memory) {\n\t\treturn traders[_addr];\n\t}\n\n\t// -------- END TOKEN TRADE FUNCTIONS -------- //\n}\n",
  "sourcePath": "/Users/dagan/Documents/Blockchain/ChainShot/DAPPS/testDAPP/CommodityMarket/contracts/Token.sol",
  "compiler": {
    "name": "solc",
    "version": "0.6.2+commit.bacdbe57.Emscripten.clang"
  },
  "schemaVersion": "3.0.20",
  "updatedAt": "2020-05-23T06:18:35.044Z",
  "devdoc": {
    "methods": {}
  },
  "userdoc": {
    "methods": {
      "addEntity(address,address)": {
        "notice": "Entity created by calling the entity contract outside of this function and adding to the structure by calling addEntity"
      },
      "getTotalSupply()": {
        "notice": "Get total allocations within the network"
      },
      "transferOwnership(address)": {
        "notice": "Ownership given to a new authority, all other ownership cleared"
      }
    },
    "notice": "This Token represnets an"
  }
}