{
  "contractName": "Token",
  "abi": [
    {
      "inputs": [
        {
          "internalType": "address",
          "name": "_addr",
          "type": "address"
        }
      ],
      "name": "addAdditionalOwner",
      "outputs": [],
      "stateMutability": "nonpayable",
      "type": "function"
    },
    {
      "inputs": [
        {
          "internalType": "uint256",
          "name": "_index",
          "type": "uint256"
        }
      ],
      "name": "getAdditionalOwner",
      "outputs": [
        {
          "internalType": "address",
          "name": "",
          "type": "address"
        }
      ],
      "stateMutability": "view",
      "type": "function"
    },
    {
      "inputs": [],
      "name": "getAdditionalOwnersLength",
      "outputs": [
        {
          "internalType": "uint256",
          "name": "",
          "type": "uint256"
        }
      ],
      "stateMutability": "view",
      "type": "function"
    },
    {
      "inputs": [],
      "name": "getOwner",
      "outputs": [
        {
          "internalType": "address",
          "name": "",
          "type": "address"
        }
      ],
      "stateMutability": "view",
      "type": "function"
    },
    {
      "inputs": [
        {
          "internalType": "address",
          "name": "_addr",
          "type": "address"
        }
      ],
      "name": "transferOwnership",
      "outputs": [],
      "stateMutability": "nonpayable",
      "type": "function"
    },
    {
      "inputs": [],
      "name": "getEntitiesLength",
      "outputs": [
        {
          "internalType": "uint256",
          "name": "",
          "type": "uint256"
        }
      ],
      "stateMutability": "view",
      "type": "function"
    },
    {
      "inputs": [
        {
          "internalType": "address",
          "name": "_entityContract",
          "type": "address"
        }
      ],
      "name": "getEntity",
      "outputs": [
        {
          "components": [
            {
              "internalType": "address",
              "name": "entityContract",
              "type": "address"
            },
            {
              "internalType": "uint256",
              "name": "entitlement",
              "type": "uint256"
            },
            {
              "internalType": "uint256",
              "name": "allocation",
              "type": "uint256"
            },
            {
              "internalType": "uint256",
              "name": "storedWater",
              "type": "uint256"
            },
            {
              "internalType": "address",
              "name": "parentAuthority",
              "type": "address"
            },
            {
              "internalType": "address[]",
              "name": "children",
              "type": "address[]"
            },
            {
              "internalType": "bool",
              "name": "added",
              "type": "bool"
            }
          ],
          "internalType": "struct Token.EntityStruct",
          "name": "",
          "type": "tuple"
        }
      ],
      "stateMutability": "view",
      "type": "function"
    },
    {
      "inputs": [
        {
          "internalType": "uint256",
          "name": "_index",
          "type": "uint256"
        }
      ],
      "name": "getEntityAt",
      "outputs": [
        {
          "internalType": "address",
          "name": "",
          "type": "address"
        }
      ],
      "stateMutability": "view",
      "type": "function"
    },
    {
      "inputs": [
        {
          "internalType": "address",
          "name": "_address",
          "type": "address"
        }
      ],
      "name": "getChildrenLength",
      "outputs": [
        {
          "internalType": "uint256",
          "name": "",
          "type": "uint256"
        }
      ],
      "stateMutability": "view",
      "type": "function"
    },
    {
      "inputs": [
        {
          "internalType": "address",
          "name": "_address",
          "type": "address"
        },
        {
          "internalType": "uint256",
          "name": "_index",
          "type": "uint256"
        }
      ],
      "name": "getChildAt",
      "outputs": [
        {
          "internalType": "address",
          "name": "",
          "type": "address"
        }
      ],
      "stateMutability": "view",
      "type": "function"
    },
    {
      "inputs": [],
      "name": "getRootEntity",
      "outputs": [
        {
          "internalType": "address",
          "name": "",
          "type": "address"
        }
      ],
      "stateMutability": "view",
      "type": "function"
    },
    {
      "inputs": [
        {
          "internalType": "address",
          "name": "_entityContract",
          "type": "address"
        }
      ],
      "name": "addRootEntity",
      "outputs": [],
      "stateMutability": "nonpayable",
      "type": "function"
    },
    {
      "inputs": [
        {
          "internalType": "address",
          "name": "_entityContract",
          "type": "address"
        },
        {
          "internalType": "address",
          "name": "_parent",
          "type": "address"
        }
      ],
      "name": "addEntity",
      "outputs": [],
      "stateMutability": "nonpayable",
      "type": "function"
    },
    {
      "inputs": [],
      "name": "getTotalSupply",
      "outputs": [
        {
          "internalType": "uint256",
          "name": "",
          "type": "uint256"
        }
      ],
      "stateMutability": "view",
      "type": "function"
    },
    {
      "inputs": [],
      "name": "getTotalEntitlements",
      "outputs": [
        {
          "internalType": "uint256",
          "name": "",
          "type": "uint256"
        }
      ],
      "stateMutability": "view",
      "type": "function"
    },
    {
      "inputs": [
        {
          "internalType": "address",
          "name": "_addr",
          "type": "address"
        },
        {
          "internalType": "address",
          "name": "_authority",
          "type": "address"
        },
        {
          "internalType": "uint256",
          "name": "_storedWater",
          "type": "uint256"
        }
      ],
      "name": "addTrader",
      "outputs": [],
      "stateMutability": "nonpayable",
      "type": "function"
    },
    {
      "inputs": [],
      "name": "getTraderLength",
      "outputs": [
        {
          "internalType": "uint256",
          "name": "",
          "type": "uint256"
        }
      ],
      "stateMutability": "view",
      "type": "function"
    },
    {
      "inputs": [
        {
          "internalType": "address",
          "name": "_addr",
          "type": "address"
        }
      ],
      "name": "getTrader",
      "outputs": [
        {
          "components": [
            {
              "internalType": "address",
              "name": "trader",
              "type": "address"
            },
            {
              "internalType": "uint256",
              "name": "entitlement",
              "type": "uint256"
            },
            {
              "internalType": "uint256",
              "name": "allocation",
              "type": "uint256"
            },
            {
              "internalType": "uint256",
              "name": "storedWater",
              "type": "uint256"
            },
            {
              "internalType": "bool",
              "name": "active",
              "type": "bool"
            },
            {
              "internalType": "address",
              "name": "authority",
              "type": "address"
            }
          ],
          "internalType": "struct Token.Trader",
          "name": "",
          "type": "tuple"
        }
      ],
      "stateMutability": "view",
      "type": "function"
    },
    {
      "inputs": [
        {
          "internalType": "address",
          "name": "_from",
          "type": "address"
        },
        {
          "internalType": "address",
          "name": "_to",
          "type": "address"
        },
        {
          "internalType": "uint256",
          "name": "_amount",
          "type": "uint256"
        }
      ],
      "name": "trade",
      "outputs": [],
      "stateMutability": "nonpayable",
      "type": "function"
    }
  ],
  "bytecode": "0x60806040526012600260006101000a81548160ff021916908360ff160217905550336000806101000a81548173ffffffffffffffffffffffffffffffffffffffff021916908373ffffffffffffffffffffffffffffffffffffffff1602179055506127498061006f6000396000f3fe608060405234801561001057600080fd5b50600436106101215760003560e01c806375894e8c116100ad578063ca4543a611610071578063ca4543a614610308578063cfd8cc3a14610326578063d200138214610356578063dd98f6f914610386578063f2fde38b146103a457610121565b806375894e8c1461023c578063893d20e81461026c578063b16510b71461028a578063b4893fed146102ba578063c4e41b22146102ea57610121565b806343bfb9d2116100f457806343bfb9d21461019a57806347c9fea2146101b65780635253baae146101d25780636e559995146101ee578063737721301461020c57610121565b806303257e34146101265780630655b9ba146101425780630bd1eb3b146101605780632e34911e1461017e575b600080fd5b610140600480360361013b9190810190611fee565b6103c0565b005b61014a61093d565b60405161015791906124c9565b60405180910390f35b610168610aa2565b6040516101759190612621565b60405180910390f35b61019860048036036101939190810190611f89565b610aac565b005b6101b460048036036101af9190810190611f89565b610c4d565b005b6101d060048036036101cb9190810190611fb2565b6110ce565b005b6101ec60048036036101e79190810190611fee565b61168f565b005b6101f6611694565b6040516102039190612621565b60405180910390f35b610226600480360361022191908101906120a2565b6116a1565b60405161023391906124c9565b60405180910390f35b61025660048036036102519190810190611f89565b6116e2565b60405161026391906125e4565b60405180910390f35b6102746118ae565b60405161028191906124c9565b60405180910390f35b6102a4600480360361029f919081019061203d565b6118d7565b6040516102b191906124c9565b60405180910390f35b6102d460048036036102cf91908101906120a2565b611959565b6040516102e191906124c9565b60405180910390f35b6102f261199a565b6040516102ff9190612621565b60405180910390f35b6103106119a4565b60405161031d9190612621565b60405180910390f35b610340600480360361033b9190810190611f89565b6119b1565b60405161034d9190612621565b60405180910390f35b610370600480360361036b9190810190611f89565b611a00565b60405161037d9190612606565b60405180910390f35b61038e611bcf565b60405161039b9190612621565b60405180910390f35b6103be60048036036103b99190810190611f89565b611bdc565b005b60008090506000809054906101000a900473ffffffffffffffffffffffffffffffffffffffff1673ffffffffffffffffffffffffffffffffffffffff163373ffffffffffffffffffffffffffffffffffffffff16141561041f57600190505b806104ba5760008090505b6001805490508110156104b8573373ffffffffffffffffffffffffffffffffffffffff166001828154811061045b57fe5b9060005260206000200160009054906101000a900473ffffffffffffffffffffffffffffffffffffffff1673ffffffffffffffffffffffffffffffffffffffff1614156104ab57600191506104b8565b808060010191505061042a565b505b806104fa576040517f08c379a00000000000000000000000000000000000000000000000000000000081526004016104f1906125a4565b60405180910390fd5b600073ffffffffffffffffffffffffffffffffffffffff16600560009054906101000a900473ffffffffffffffffffffffffffffffffffffffff1673ffffffffffffffffffffffffffffffffffffffff16141561058c576040517f08c379a000000000000000000000000000000000000000000000000000000000815260040161058390612524565b60405180910390fd5b600660008473ffffffffffffffffffffffffffffffffffffffff1673ffffffffffffffffffffffffffffffffffffffff16815260200190815260200160002060060160009054906101000a900460ff16801561066257508273ffffffffffffffffffffffffffffffffffffffff166322f3e2d46040518163ffffffff1660e01b815260040160206040518083038186803b15801561062957600080fd5b505afa15801561063d573d6000803e3d6000fd5b505050506040513d601f19601f820116820180604052506106619190810190612079565b5b6106a1576040517f08c379a000000000000000000000000000000000000000000000000000000000815260040161069890612584565b60405180910390fd5b600860008573ffffffffffffffffffffffffffffffffffffffff1673ffffffffffffffffffffffffffffffffffffffff16815260200190815260200160002060040160009054906101000a900460ff1615610731576040517f08c379a000000000000000000000000000000000000000000000000000000000815260040161072890612544565b60405180910390fd5b6009849080600181540180825580915050600190039060005260206000200160009091909190916101000a81548173ffffffffffffffffffffffffffffffffffffffff021916908373ffffffffffffffffffffffffffffffffffffffff16021790555061079c611d68565b84816000019073ffffffffffffffffffffffffffffffffffffffff16908173ffffffffffffffffffffffffffffffffffffffff1681525050838160a0019073ffffffffffffffffffffffffffffffffffffffff16908173ffffffffffffffffffffffffffffffffffffffff168152505082816060018181525050600181608001901515908115158152505080600860008773ffffffffffffffffffffffffffffffffffffffff1673ffffffffffffffffffffffffffffffffffffffff16815260200190815260200160002060008201518160000160006101000a81548173ffffffffffffffffffffffffffffffffffffffff021916908373ffffffffffffffffffffffffffffffffffffffff16021790555060208201518160010155604082015181600201556060820151816003015560808201518160040160006101000a81548160ff02191690831515021790555060a08201518160040160016101000a81548173ffffffffffffffffffffffffffffffffffffffff021916908373ffffffffffffffffffffffffffffffffffffffff1602179055509050505050505050565b600080600090506000809054906101000a900473ffffffffffffffffffffffffffffffffffffffff1673ffffffffffffffffffffffffffffffffffffffff163373ffffffffffffffffffffffffffffffffffffffff16141561099e57600190505b80610a395760008090505b600180549050811015610a37573373ffffffffffffffffffffffffffffffffffffffff16600182815481106109da57fe5b9060005260206000200160009054906101000a900473ffffffffffffffffffffffffffffffffffffffff1673ffffffffffffffffffffffffffffffffffffffff161415610a2a5760019150610a37565b80806001019150506109a9565b505b80610a79576040517f08c379a0000000000000000000000000000000000000000000000000000000008152600401610a70906125a4565b60405180910390fd5b600560009054906101000a900473ffffffffffffffffffffffffffffffffffffffff1691505090565b6000600454905090565b60008090506000809054906101000a900473ffffffffffffffffffffffffffffffffffffffff1673ffffffffffffffffffffffffffffffffffffffff163373ffffffffffffffffffffffffffffffffffffffff161415610b0b57600190505b80610ba65760008090505b600180549050811015610ba4573373ffffffffffffffffffffffffffffffffffffffff1660018281548110610b4757fe5b9060005260206000200160009054906101000a900473ffffffffffffffffffffffffffffffffffffffff1673ffffffffffffffffffffffffffffffffffffffff161415610b975760019150610ba4565b8080600101915050610b16565b505b80610be6576040517f08c379a0000000000000000000000000000000000000000000000000000000008152600401610bdd906125a4565b60405180910390fd5b6001829080600181540180825580915050600190039060005260206000200160009091909190916101000a81548173ffffffffffffffffffffffffffffffffffffffff021916908373ffffffffffffffffffffffffffffffffffffffff1602179055505050565b60008090506000809054906101000a900473ffffffffffffffffffffffffffffffffffffffff1673ffffffffffffffffffffffffffffffffffffffff163373ffffffffffffffffffffffffffffffffffffffff161415610cac57600190505b80610d475760008090505b600180549050811015610d45573373ffffffffffffffffffffffffffffffffffffffff1660018281548110610ce857fe5b9060005260206000200160009054906101000a900473ffffffffffffffffffffffffffffffffffffffff1673ffffffffffffffffffffffffffffffffffffffff161415610d385760019150610d45565b8080600101915050610cb7565b505b80610d87576040517f08c379a0000000000000000000000000000000000000000000000000000000008152600401610d7e906125a4565b60405180910390fd5b600073ffffffffffffffffffffffffffffffffffffffff16600560009054906101000a900473ffffffffffffffffffffffffffffffffffffffff1673ffffffffffffffffffffffffffffffffffffffff1614610e18576040517f08c379a0000000000000000000000000000000000000000000000000000000008152600401610e0f90612564565b60405180910390fd5b600660008373ffffffffffffffffffffffffffffffffffffffff1673ffffffffffffffffffffffffffffffffffffffff16815260200190815260200160002060060160009054906101000a900460ff1615610ea8576040517f08c379a0000000000000000000000000000000000000000000000000000000008152600401610e9f906125c4565b60405180910390fd5b81600560006101000a81548173ffffffffffffffffffffffffffffffffffffffff021916908373ffffffffffffffffffffffffffffffffffffffff1602179055506007829080600181540180825580915050600190039060005260206000200160009091909190916101000a81548173ffffffffffffffffffffffffffffffffffffffff021916908373ffffffffffffffffffffffffffffffffffffffff160217905550610f54611dcc565b82816000019073ffffffffffffffffffffffffffffffffffffffff16908173ffffffffffffffffffffffffffffffffffffffff168152505060018160c001901515908115158152505080600660008573ffffffffffffffffffffffffffffffffffffffff1673ffffffffffffffffffffffffffffffffffffffff16815260200190815260200160002060008201518160000160006101000a81548173ffffffffffffffffffffffffffffffffffffffff021916908373ffffffffffffffffffffffffffffffffffffffff16021790555060208201518160010155604082015181600201556060820151816003015560808201518160040160006101000a81548173ffffffffffffffffffffffffffffffffffffffff021916908373ffffffffffffffffffffffffffffffffffffffff16021790555060a08201518160050190805190602001906110a5929190611e37565b5060c08201518160060160006101000a81548160ff021916908315150217905550905050505050565b600073ffffffffffffffffffffffffffffffffffffffff16600560009054906101000a900473ffffffffffffffffffffffffffffffffffffffff1673ffffffffffffffffffffffffffffffffffffffff161415611160576040517f08c379a000000000000000000000000000000000000000000000000000000000815260040161115790612524565b60405180910390fd5b600660008373ffffffffffffffffffffffffffffffffffffffff1673ffffffffffffffffffffffffffffffffffffffff16815260200190815260200160002060060160009054906101000a900460ff16156111f0576040517f08c379a00000000000000000000000000000000000000000000000000000000081526004016111e7906125c4565b60405180910390fd5b600660008273ffffffffffffffffffffffffffffffffffffffff1673ffffffffffffffffffffffffffffffffffffffff16815260200190815260200160002060060160009054906101000a900460ff1680156112c657508073ffffffffffffffffffffffffffffffffffffffff166322f3e2d46040518163ffffffff1660e01b815260040160206040518083038186803b15801561128d57600080fd5b505afa1580156112a1573d6000803e3d6000fd5b505050506040513d601f19601f820116820180604052506112c59190810190612079565b5b611305576040517f08c379a00000000000000000000000000000000000000000000000000000000081526004016112fc90612584565b60405180910390fd5b8073ffffffffffffffffffffffffffffffffffffffff1663de728e83836040518263ffffffff1660e01b815260040161133e91906124c9565b602060405180830381600087803b15801561135857600080fd5b505af115801561136c573d6000803e3d6000fd5b505050506040513d601f19601f820116820180604052506113909190810190612079565b6113cf576040517f08c379a00000000000000000000000000000000000000000000000000000000081526004016113c6906124e4565b60405180910390fd5b6007829080600181540180825580915050600190039060005260206000200160009091909190916101000a81548173ffffffffffffffffffffffffffffffffffffffff021916908373ffffffffffffffffffffffffffffffffffffffff160217905550600660008273ffffffffffffffffffffffffffffffffffffffff1673ffffffffffffffffffffffffffffffffffffffff168152602001908152602001600020600501829080600181540180825580915050600190039060005260206000200160009091909190916101000a81548173ffffffffffffffffffffffffffffffffffffffff021916908373ffffffffffffffffffffffffffffffffffffffff1602179055506114dd611dcc565b82816000019073ffffffffffffffffffffffffffffffffffffffff16908173ffffffffffffffffffffffffffffffffffffffff168152505081816080019073ffffffffffffffffffffffffffffffffffffffff16908173ffffffffffffffffffffffffffffffffffffffff168152505060018160c001901515908115158152505080600660008573ffffffffffffffffffffffffffffffffffffffff1673ffffffffffffffffffffffffffffffffffffffff16815260200190815260200160002060008201518160000160006101000a81548173ffffffffffffffffffffffffffffffffffffffff021916908373ffffffffffffffffffffffffffffffffffffffff16021790555060208201518160010155604082015181600201556060820151816003015560808201518160040160006101000a81548173ffffffffffffffffffffffffffffffffffffffff021916908373ffffffffffffffffffffffffffffffffffffffff16021790555060a0820151816005019080519060200190611666929190611e37565b5060c08201518160060160006101000a81548160ff021916908315150217905550905050505050565b505050565b6000600980549050905090565b6000600782815481106116b057fe5b9060005260206000200160009054906101000a900473ffffffffffffffffffffffffffffffffffffffff169050919050565b6116ea611dcc565b600660008373ffffffffffffffffffffffffffffffffffffffff1673ffffffffffffffffffffffffffffffffffffffff1681526020019081526020016000206040518060e00160405290816000820160009054906101000a900473ffffffffffffffffffffffffffffffffffffffff1673ffffffffffffffffffffffffffffffffffffffff1673ffffffffffffffffffffffffffffffffffffffff1681526020016001820154815260200160028201548152602001600382015481526020016004820160009054906101000a900473ffffffffffffffffffffffffffffffffffffffff1673ffffffffffffffffffffffffffffffffffffffff1673ffffffffffffffffffffffffffffffffffffffff1681526020016005820180548060200260200160405190810160405280929190818152602001828054801561188357602002820191906000526020600020905b8160009054906101000a900473ffffffffffffffffffffffffffffffffffffffff1673ffffffffffffffffffffffffffffffffffffffff1681526020019060010190808311611839575b505050505081526020016006820160009054906101000a900460ff1615151515815250509050919050565b60008060009054906101000a900473ffffffffffffffffffffffffffffffffffffffff16905090565b6000600660008473ffffffffffffffffffffffffffffffffffffffff1673ffffffffffffffffffffffffffffffffffffffff168152602001908152602001600020600501828154811061192657fe5b9060005260206000200160009054906101000a900473ffffffffffffffffffffffffffffffffffffffff16905092915050565b60006001828154811061196857fe5b9060005260206000200160009054906101000a900473ffffffffffffffffffffffffffffffffffffffff169050919050565b6000600354905090565b6000600780549050905090565b6000600660008373ffffffffffffffffffffffffffffffffffffffff1673ffffffffffffffffffffffffffffffffffffffff168152602001908152602001600020600501805490509050919050565b611a08611d68565b81600860008273ffffffffffffffffffffffffffffffffffffffff1673ffffffffffffffffffffffffffffffffffffffff16815260200190815260200160002060040160009054906101000a900460ff16611a98576040517f08c379a0000000000000000000000000000000000000000000000000000000008152600401611a8f90612504565b60405180910390fd5b600860008473ffffffffffffffffffffffffffffffffffffffff1673ffffffffffffffffffffffffffffffffffffffff1681526020019081526020016000206040518060c00160405290816000820160009054906101000a900473ffffffffffffffffffffffffffffffffffffffff1673ffffffffffffffffffffffffffffffffffffffff1673ffffffffffffffffffffffffffffffffffffffff1681526020016001820154815260200160028201548152602001600382015481526020016004820160009054906101000a900460ff161515151581526020016004820160019054906101000a900473ffffffffffffffffffffffffffffffffffffffff1673ffffffffffffffffffffffffffffffffffffffff1673ffffffffffffffffffffffffffffffffffffffff1681525050915050919050565b6000600180549050905090565b60008090506000809054906101000a900473ffffffffffffffffffffffffffffffffffffffff1673ffffffffffffffffffffffffffffffffffffffff163373ffffffffffffffffffffffffffffffffffffffff161415611c3b57600190505b80611cd65760008090505b600180549050811015611cd4573373ffffffffffffffffffffffffffffffffffffffff1660018281548110611c7757fe5b9060005260206000200160009054906101000a900473ffffffffffffffffffffffffffffffffffffffff1673ffffffffffffffffffffffffffffffffffffffff161415611cc75760019150611cd4565b8080600101915050611c46565b505b80611d16576040517f08c379a0000000000000000000000000000000000000000000000000000000008152600401611d0d906125a4565b60405180910390fd5b816000806101000a81548173ffffffffffffffffffffffffffffffffffffffff021916908373ffffffffffffffffffffffffffffffffffffffff16021790555060016000611d649190611ec1565b5050565b6040518060c00160405280600073ffffffffffffffffffffffffffffffffffffffff168152602001600081526020016000815260200160008152602001600015158152602001600073ffffffffffffffffffffffffffffffffffffffff1681525090565b6040518060e00160405280600073ffffffffffffffffffffffffffffffffffffffff168152602001600081526020016000815260200160008152602001600073ffffffffffffffffffffffffffffffffffffffff168152602001606081526020016000151581525090565b828054828255906000526020600020908101928215611eb0579160200282015b82811115611eaf5782518260006101000a81548173ffffffffffffffffffffffffffffffffffffffff021916908373ffffffffffffffffffffffffffffffffffffffff16021790555091602001919060010190611e57565b5b509050611ebd9190611ee2565b5090565b5080546000825590600052602060002090810190611edf9190611f25565b50565b611f2291905b80821115611f1e57600081816101000a81549073ffffffffffffffffffffffffffffffffffffffff021916905550600101611ee8565b5090565b90565b611f4791905b80821115611f43576000816000905550600101611f2b565b5090565b90565b600081359050611f59816126ce565b92915050565b600081519050611f6e816126e5565b92915050565b600081359050611f83816126fc565b92915050565b600060208284031215611f9b57600080fd5b6000611fa984828501611f4a565b91505092915050565b60008060408385031215611fc557600080fd5b6000611fd385828601611f4a565b9250506020611fe485828601611f4a565b9150509250929050565b60008060006060848603121561200357600080fd5b600061201186828701611f4a565b935050602061202286828701611f4a565b925050604061203386828701611f74565b9150509250925092565b6000806040838503121561205057600080fd5b600061205e85828601611f4a565b925050602061206f85828601611f74565b9150509250929050565b60006020828403121561208b57600080fd5b600061209984828501611f5f565b91505092915050565b6000602082840312156120b457600080fd5b60006120c284828501611f74565b91505092915050565b60006120d783836120e3565b60208301905092915050565b6120ec81612686565b82525050565b6120fb81612686565b82525050565b600061210c8261264c565b6121168185612664565b93506121218361263c565b8060005b8381101561215257815161213988826120cb565b975061214483612657565b925050600181019050612125565b5085935050505092915050565b61216881612698565b82525050565b600061217b601f83612675565b91507f506172656e7420617574686f726974792064656e6965642072657175657374006000830152602082019050919050565b60006121bb601c83612675565b91507f4e6f7420616e20616374697665207472616465722061646472657373000000006000830152602082019050919050565b60006121fb602483612675565b91507f4e6f20726f6f7420656e746974792c20637265617465206265666f726520616460008301527f64696e67000000000000000000000000000000000000000000000000000000006020830152604082019050919050565b6000612261601583612675565b91507f54726164657220616c72656164792065786973747300000000000000000000006000830152602082019050919050565b60006122a1601c83612675565b91507f526f6f7420456e7469747920616c72656164792061737369676e6564000000006000830152602082019050919050565b60006122e1601883612675565b91507f506172656e7420656e74697479206e6f742061637469766500000000000000006000830152602082019050919050565b6000612321601a83612675565b91507f596f7520617265206e6f74206120546f6b656e206f776e6572210000000000006000830152602082019050919050565b6000612361601583612675565b91507f456e7469747920616c72656164792065786973747300000000000000000000006000830152602082019050919050565b600060e0830160008301516123ac60008601826120e3565b5060208301516123bf60208601826124ab565b5060408301516123d260408601826124ab565b5060608301516123e560608601826124ab565b5060808301516123f860808601826120e3565b5060a083015184820360a08601526124108282612101565b91505060c083015161242560c086018261215f565b508091505092915050565b60c08201600082015161244660008501826120e3565b50602082015161245960208501826124ab565b50604082015161246c60408501826124ab565b50606082015161247f60608501826124ab565b506080820151612492608085018261215f565b5060a08201516124a560a08501826120e3565b50505050565b6124b4816126c4565b82525050565b6124c3816126c4565b82525050565b60006020820190506124de60008301846120f2565b92915050565b600060208201905081810360008301526124fd8161216e565b9050919050565b6000602082019050818103600083015261251d816121ae565b9050919050565b6000602082019050818103600083015261253d816121ee565b9050919050565b6000602082019050818103600083015261255d81612254565b9050919050565b6000602082019050818103600083015261257d81612294565b9050919050565b6000602082019050818103600083015261259d816122d4565b9050919050565b600060208201905081810360008301526125bd81612314565b9050919050565b600060208201905081810360008301526125dd81612354565b9050919050565b600060208201905081810360008301526125fe8184612394565b905092915050565b600060c08201905061261b6000830184612430565b92915050565b600060208201905061263660008301846124ba565b92915050565b6000819050602082019050919050565b600081519050919050565b6000602082019050919050565b600082825260208201905092915050565b600082825260208201905092915050565b6000612691826126a4565b9050919050565b60008115159050919050565b600073ffffffffffffffffffffffffffffffffffffffff82169050919050565b6000819050919050565b6126d781612686565b81146126e257600080fd5b50565b6126ee81612698565b81146126f957600080fd5b50565b612705816126c4565b811461271057600080fd5b5056fea264697066735822122033a3f44b973a3981e24767f93348c99aad81e5c3db46e958841519c7f371838064736f6c63430006020033",
  "source": "pragma solidity ^0.6.2;\npragma experimental ABIEncoderV2;\n\nimport \"./Ownable.sol\";\nimport \"./Entity.sol\";\n\n/**\n * This Token represnets an\n */\ncontract Token is Ownable {\n\tuint8 private decimals = 18;\n\tuint private totalSupply; // allocations\n\tuint private totalEntitlements; // entitlements\n\n\t/**\n\t * Each water entitlement holder is a trader\n\t */\n\n\tstruct EntityStruct {\n\t\taddress entityContract;\n\t\tuint entitlement;\n\t\tuint allocation;\n\t\tuint storedWater;\n\t\taddress parentAuthority;\n\t\taddress[] children;\n\t\tbool added;\n\t}\n\n\t// Storing entities as array and mapping for easier access and traversal\n\taddress private rootEntity;\n\tmapping(address => EntityStruct) private entities;\n\taddress[] private entityAddresses;\n\n\t// ---------- TOKEN ENTITY FUNCTIONS ---------- //\n\n\t// ----------------- GETTERS ----------------- //\n\n\tfunction getEntitiesLength() public view returns(uint) {\n\t\treturn entityAddresses.length;\n\t}\n\n\tfunction getEntity(address _entityContract) public view returns (EntityStruct memory) {\n\t\treturn entities[_entityContract];\n\t}\n\n\tfunction getEntityAt(uint _index) public view returns(address) {\n\t\treturn entityAddresses[_index];\n\t}\n\n\tfunction getChildrenLength(address _address) public view returns(uint) {\n\t\treturn entities[_address].children.length;\n\t}\n\n\tfunction getChildAt(address _address, uint _index) public view returns(address) {\n\t\treturn entities[_address].children[_index];\n\t}\n\n\tfunction getRootEntity() isOwner() public view returns(address) {\n\t\treturn rootEntity;\n\t}\n\n\t// --------------- END GETTERS ----------------- //\n\n\n\t// ---------- TOKEN ENTITY FUNCTIONS ---------- //\n\n\tfunction addRootEntity(address _entityContract) isOwner() public {\n\t\trequire(rootEntity == address(0), \"Root Entity already assigned\");\n\t\trequire(!entities[_entityContract].added, \"Entity already exists\");\n\t\trootEntity = _entityContract;\n\t\tentityAddresses.push(_entityContract);\n\n\t\tEntityStruct memory entityStruct;\n\t\tentityStruct.entityContract = _entityContract;\n\t\tentityStruct.added = true;\n\n\t\tentities[_entityContract] = entityStruct;\n\t}\n\n\t/**\n\t * Entity created by calling the entity contract outside of this function\n\t * and adding to the structure by calling addEntity\n\t */\n\tfunction addEntity(address _entityContract, address _parent) public {\n\t\trequire(rootEntity != address(0), \"No root entity, create before adding\");\n\t\trequire(!entities[_entityContract].added, \"Entity already exists\");\n\t\trequire(entities[_parent].added && Entity(_parent).isActive(), \"Parent entity not active\");\n\n\t\t// Ask parent to add\n\n\t\t// parentContract.askToAdd(rootEntity);\n\t\trequire(Entity(_parent).askToAdd(_entityContract), \"Parent authority denied request\");\n\n\t\tentityAddresses.push(_entityContract);\n\t\tentities[_parent].children.push(_entityContract);\n\n\t\tEntityStruct memory entityStruct;\n\t\tentityStruct.entityContract = _entityContract;\n\t\tentityStruct.parentAuthority = _parent;\n\t\tentityStruct.added = true;\n\t\tentities[_entityContract] = entityStruct;\n\t}\n\n\t// -------- END TOKEN ENTITY FUNCTIONS -------- //\n\n\n\t// -------- TOKEN MANAGMENT FUNCTIONS -------- //\n\n\t/**\n\t * Get total allocations within the network\n\t */\n\tfunction getTotalSupply() public view returns(uint) {\n\t\treturn totalSupply;\n\t}\n\n\tfunction getTotalEntitlements() public view returns(uint) {\n\t\treturn totalEntitlements;\n\t}\n\n\t// ------ END TOKEN MANAGMENT FUNCTIONS ------ //\n\n\t// ---------- TOKEN TRADE FUNCTIONS ---------- //\n\n\tfunction addTrader(\n\t\t\taddress _addr,\n\t\t\taddress _authority,\n\t\t\tuint _storedWater) isOwner() public {\n\t\trequire(rootEntity != address(0),\n\t\t\t\t\"No root entity, create before adding\");\n\t\trequire(entities[_authority].added &&\n\t\t\t\tEntity(_authority).isActive(),\n\t\t\t\t\"Parent entity not active\");\n\t\trequire(!traders[_addr].active, \"Trader already exists\");\n\n\t\ttraderAddresses.push(_addr);\n\n\t\tTrader memory trader;\n\t\ttrader.trader = _addr;\n\t\ttrader.authority = _authority;\n\t\ttrader.storedWater = _storedWater;\n\t\ttrader.active = true;\n\t\ttraders[_addr] = trader;\n\t}\n\n\tfunction getTraderLength() public view returns(uint) {\n\t\treturn traderAddresses.length;\n\t}\n\n\tfunction getTrader(address _addr) activeTrader(_addr) public view returns(Trader memory) {\n\t\treturn traders[_addr];\n\t}\n\n\tfunction validTrade(address _from,\n\t\t\taddress _to,\n\t\t\tuint _amount) private returns(bool) {\n\n\t\taddress cur = _from;\n\t\twhile(cur != rootEntity) {\n\t\t\trequire(Entity(cur).approveTrade(_from, _to, _amount), \"Trade denied on 'to' branch\");\n\t\t\tcur == entities[cur].parentAuthority;\n\t\t}\n\n\t\tcur = _to;\n\t\twhile(cur != rootEntity) {\n\t\t\trequire(Entity(cur).approveTrade(_from, _to, _amount), \"Trade denied on 'from' branch\");\n\t\t\tcur == entities[cur].parentAuthority;\n\t\t}\n\t\treturn true;\n\t}\n\n\t// Storing traders as array and mapping for easier access and traversal\n\tmapping(address => Trader) private traders;\n\taddress[] private traderAddresses;\n\n\t/**\n\t * Each water entitlement holder is a trader\n\t */\n\tstruct Trader {\n\t\taddress trader;\n\t\tuint entitlement;\n\t\tuint allocation;\n\t\tuint storedWater;\n\t\tbool active;\n\t\taddress authority;\n\t}\n\n\tmodifier activeTrader(address _addr) {\n\t\trequire(traders[_addr].active, \"Not an active trader address\");\n\t\t_;\n\t}\n\n\t// TODO: enum for the trade type: deliver, allocaiton, entitlement\n\tfunction trade(\n\t\t\taddress _from,\n\t\t\taddress _to,\n\t\t\tuint _amount) public {\n\t\t// traverse up the tree during both from and to and ask to trade\n\t\t// validTrade(_from, _to, _amount);\n\t\t// require(validTrade(_from, _to, _amount), \"Trade not approved\");\n\n\t\t// TODO: if approved, trade\n\t}\n\n\t// -------- END TOKEN TRADE FUNCTIONS -------- //\n}\n",
  "sourcePath": "/Users/dagan/Documents/Blockchain/ChainShot/DAPPS/testDAPP/CommodityMarket/contracts/Token.sol",
  "compiler": {
    "name": "solc",
    "version": "0.6.2+commit.bacdbe57.Emscripten.clang"
  },
  "schemaVersion": "3.0.20",
  "updatedAt": "2020-05-23T12:02:44.450Z",
  "devdoc": {
    "methods": {}
  },
  "userdoc": {
    "methods": {
      "addEntity(address,address)": {
        "notice": "Entity created by calling the entity contract outside of this function and adding to the structure by calling addEntity"
      },
      "getTotalSupply()": {
        "notice": "Get total allocations within the network"
      },
      "transferOwnership(address)": {
        "notice": "Ownership given to a new authority, all other ownership cleared"
      }
    },
    "notice": "This Token represnets an"
  }
}