{
  "contractName": "Token",
  "abi": [
    {
      "inputs": [
        {
          "internalType": "address",
          "name": "_addr",
          "type": "address"
        }
      ],
      "name": "addAdditionalOwner",
      "outputs": [],
      "stateMutability": "nonpayable",
      "type": "function"
    },
    {
      "inputs": [
        {
          "internalType": "uint256",
          "name": "_index",
          "type": "uint256"
        }
      ],
      "name": "getAdditionalOwner",
      "outputs": [
        {
          "internalType": "address",
          "name": "",
          "type": "address"
        }
      ],
      "stateMutability": "view",
      "type": "function",
      "constant": true
    },
    {
      "inputs": [],
      "name": "getAdditionalOwnersLength",
      "outputs": [
        {
          "internalType": "uint256",
          "name": "",
          "type": "uint256"
        }
      ],
      "stateMutability": "view",
      "type": "function",
      "constant": true
    },
    {
      "inputs": [],
      "name": "getOwner",
      "outputs": [
        {
          "internalType": "address",
          "name": "",
          "type": "address"
        }
      ],
      "stateMutability": "view",
      "type": "function",
      "constant": true
    },
    {
      "inputs": [
        {
          "internalType": "address",
          "name": "_addr",
          "type": "address"
        }
      ],
      "name": "transferOwnership",
      "outputs": [],
      "stateMutability": "nonpayable",
      "type": "function"
    },
    {
      "inputs": [],
      "name": "getTotalSupply",
      "outputs": [
        {
          "internalType": "uint256",
          "name": "",
          "type": "uint256"
        }
      ],
      "stateMutability": "view",
      "type": "function",
      "constant": true
    },
    {
      "inputs": [],
      "name": "getTotalEntitlements",
      "outputs": [
        {
          "internalType": "uint256",
          "name": "",
          "type": "uint256"
        }
      ],
      "stateMutability": "view",
      "type": "function",
      "constant": true
    },
    {
      "inputs": [],
      "name": "getEntitiesLength",
      "outputs": [
        {
          "internalType": "uint256",
          "name": "",
          "type": "uint256"
        }
      ],
      "stateMutability": "view",
      "type": "function",
      "constant": true
    },
    {
      "inputs": [
        {
          "internalType": "address",
          "name": "_entityContract",
          "type": "address"
        }
      ],
      "name": "getEntity",
      "outputs": [
        {
          "components": [
            {
              "internalType": "address",
              "name": "entityContract",
              "type": "address"
            },
            {
              "internalType": "uint256",
              "name": "entitlement",
              "type": "uint256"
            },
            {
              "internalType": "uint256",
              "name": "allocation",
              "type": "uint256"
            },
            {
              "internalType": "uint256",
              "name": "storedWater",
              "type": "uint256"
            },
            {
              "internalType": "address",
              "name": "parentAuthority",
              "type": "address"
            },
            {
              "internalType": "address[]",
              "name": "children",
              "type": "address[]"
            },
            {
              "internalType": "bool",
              "name": "added",
              "type": "bool"
            }
          ],
          "internalType": "struct Token.EntityProxyStruct",
          "name": "",
          "type": "tuple"
        }
      ],
      "stateMutability": "view",
      "type": "function",
      "constant": true
    },
    {
      "inputs": [
        {
          "internalType": "uint256",
          "name": "_index",
          "type": "uint256"
        }
      ],
      "name": "getEntityAt",
      "outputs": [
        {
          "internalType": "address",
          "name": "",
          "type": "address"
        }
      ],
      "stateMutability": "view",
      "type": "function",
      "constant": true
    },
    {
      "inputs": [
        {
          "internalType": "address",
          "name": "_addr",
          "type": "address"
        }
      ],
      "name": "getEntitiesParentAuthority",
      "outputs": [
        {
          "internalType": "address",
          "name": "",
          "type": "address"
        }
      ],
      "stateMutability": "view",
      "type": "function",
      "constant": true
    },
    {
      "inputs": [
        {
          "internalType": "address",
          "name": "_addr",
          "type": "address"
        }
      ],
      "name": "getTraderAuthority",
      "outputs": [
        {
          "internalType": "address",
          "name": "",
          "type": "address"
        }
      ],
      "stateMutability": "view",
      "type": "function",
      "constant": true
    },
    {
      "inputs": [],
      "name": "getTraderLength",
      "outputs": [
        {
          "internalType": "uint256",
          "name": "",
          "type": "uint256"
        }
      ],
      "stateMutability": "view",
      "type": "function",
      "constant": true
    },
    {
      "inputs": [
        {
          "internalType": "address",
          "name": "_addr",
          "type": "address"
        }
      ],
      "name": "getTrader",
      "outputs": [
        {
          "components": [
            {
              "internalType": "address",
              "name": "trader",
              "type": "address"
            },
            {
              "internalType": "uint256",
              "name": "entitlement",
              "type": "uint256"
            },
            {
              "internalType": "uint256",
              "name": "allocation",
              "type": "uint256"
            },
            {
              "internalType": "uint256",
              "name": "storedWater",
              "type": "uint256"
            },
            {
              "internalType": "bool",
              "name": "active",
              "type": "bool"
            },
            {
              "internalType": "address",
              "name": "authority",
              "type": "address"
            }
          ],
          "internalType": "struct Token.Trader",
          "name": "",
          "type": "tuple"
        }
      ],
      "stateMutability": "view",
      "type": "function",
      "constant": true
    },
    {
      "inputs": [
        {
          "internalType": "address",
          "name": "_address",
          "type": "address"
        }
      ],
      "name": "getChildrenLength",
      "outputs": [
        {
          "internalType": "uint256",
          "name": "",
          "type": "uint256"
        }
      ],
      "stateMutability": "view",
      "type": "function",
      "constant": true
    },
    {
      "inputs": [
        {
          "internalType": "address",
          "name": "_address",
          "type": "address"
        },
        {
          "internalType": "uint256",
          "name": "_index",
          "type": "uint256"
        }
      ],
      "name": "getChildAt",
      "outputs": [
        {
          "internalType": "address",
          "name": "",
          "type": "address"
        }
      ],
      "stateMutability": "view",
      "type": "function",
      "constant": true
    },
    {
      "inputs": [],
      "name": "getRootEntity",
      "outputs": [
        {
          "internalType": "address",
          "name": "",
          "type": "address"
        }
      ],
      "stateMutability": "view",
      "type": "function",
      "constant": true
    },
    {
      "inputs": [
        {
          "internalType": "address",
          "name": "_entityContract",
          "type": "address"
        }
      ],
      "name": "addRootEntity",
      "outputs": [],
      "stateMutability": "nonpayable",
      "type": "function"
    },
    {
      "inputs": [
        {
          "internalType": "address",
          "name": "_entityContract",
          "type": "address"
        },
        {
          "internalType": "address",
          "name": "_parent",
          "type": "address"
        }
      ],
      "name": "addEntity",
      "outputs": [],
      "stateMutability": "nonpayable",
      "type": "function"
    },
    {
      "inputs": [
        {
          "internalType": "address",
          "name": "_addr",
          "type": "address"
        },
        {
          "internalType": "address",
          "name": "_authority",
          "type": "address"
        },
        {
          "internalType": "uint256",
          "name": "_storedWater",
          "type": "uint256"
        }
      ],
      "name": "addTrader",
      "outputs": [],
      "stateMutability": "nonpayable",
      "type": "function"
    },
    {
      "inputs": [
        {
          "internalType": "address",
          "name": "_from",
          "type": "address"
        },
        {
          "internalType": "address",
          "name": "_to",
          "type": "address"
        },
        {
          "internalType": "uint256",
          "name": "_amount",
          "type": "uint256"
        }
      ],
      "name": "trade",
      "outputs": [],
      "stateMutability": "nonpayable",
      "type": "function"
    }
  ],
  "bytecode": "0x60806040526012600260006101000a81548160ff021916908360ff160217905550336000806101000a81548173ffffffffffffffffffffffffffffffffffffffff021916908373ffffffffffffffffffffffffffffffffffffffff160217905550613b9c8061006f6000396000f3fe608060405234801561001057600080fd5b50600436106101375760003560e01c806375894e8c116100b8578063c4e41b221161007c578063c4e41b2214610360578063ca4543a61461037e578063cfd8cc3a1461039c578063d2001382146103cc578063dd98f6f9146103fc578063f2fde38b1461041a57610137565b806375894e8c14610282578063893d20e8146102b2578063a94be3df146102d0578063b16510b714610300578063b4893fed1461033057610137565b806347c9fea2116100ff57806347c9fea2146101cc5780634c039761146101e85780635253baae146102185780636e55999514610234578063737721301461025257610137565b806303257e341461013c5780630655b9ba146101585780630bd1eb3b146101765780632e34911e1461019457806343bfb9d2146101b0575b600080fd5b6101566004803603610151919081019061328a565b610436565b005b6101606109b2565b60405161016d9190613865565b60405180910390f35b61017e610b16565b60405161018b9190613a74565b60405180910390f35b6101ae60048036036101a99190810190613225565b610b20565b005b6101ca60048036036101c59190810190613225565b610cc0565b005b6101e660048036036101e1919081019061324e565b611140565b005b61020260048036036101fd9190810190613225565b61183b565b60405161020f9190613865565b60405180910390f35b610232600480360361022d919081019061328a565b6119e1565b005b61023c611b6a565b6040516102499190613a74565b60405180910390f35b61026c6004803603610267919081019061333e565b611b77565b6040516102799190613865565b60405180910390f35b61029c60048036036102979190810190613225565b611cf2565b6040516102a99190613a37565b60405180910390f35b6102ba611ff8565b6040516102c79190613865565b60405180910390f35b6102ea60048036036102e59190810190613225565b612021565b6040516102f79190613865565b60405180910390f35b61031a600480360361031591908101906132d9565b6121c7565b6040516103279190613865565b60405180910390f35b61034a6004803603610345919081019061333e565b612383565b6040516103579190613865565b60405180910390f35b6103686123c4565b6040516103759190613a74565b60405180910390f35b6103866123ce565b6040516103939190613a74565b60405180910390f35b6103b660048036036103b19190810190613225565b6123db565b6040516103c39190613a74565b60405180910390f35b6103e660048036036103e19190810190613225565b612564565b6040516103f39190613a59565b60405180910390f35b61040461286d565b6040516104119190613a74565b60405180910390f35b610434600480360361042f9190810190613225565b61287a565b005b60008090506000809054906101000a900473ffffffffffffffffffffffffffffffffffffffff1673ffffffffffffffffffffffffffffffffffffffff163373ffffffffffffffffffffffffffffffffffffffff161415610499576001905061052f565b60008090505b60018054905081101561052d573373ffffffffffffffffffffffffffffffffffffffff16600182815481106104d057fe5b9060005260206000200160009054906101000a900473ffffffffffffffffffffffffffffffffffffffff1673ffffffffffffffffffffffffffffffffffffffff161415610520576001915061052d565b808060010191505061049f565b505b8061056f576040517f08c379a0000000000000000000000000000000000000000000000000000000008152600401610566906139f7565b60405180910390fd5b600073ffffffffffffffffffffffffffffffffffffffff16600560009054906101000a900473ffffffffffffffffffffffffffffffffffffffff1673ffffffffffffffffffffffffffffffffffffffff161415610601576040517f08c379a00000000000000000000000000000000000000000000000000000000081526004016105f890613937565b60405180910390fd5b600660008473ffffffffffffffffffffffffffffffffffffffff1673ffffffffffffffffffffffffffffffffffffffff16815260200190815260200160002060060160009054906101000a900460ff1680156106d757508273ffffffffffffffffffffffffffffffffffffffff166322f3e2d46040518163ffffffff1660e01b815260040160206040518083038186803b15801561069e57600080fd5b505afa1580156106b2573d6000803e3d6000fd5b505050506040513d601f19601f820116820180604052506106d69190810190613315565b5b610716576040517f08c379a000000000000000000000000000000000000000000000000000000000815260040161070d90613997565b60405180910390fd5b600860008573ffffffffffffffffffffffffffffffffffffffff1673ffffffffffffffffffffffffffffffffffffffff16815260200190815260200160002060040160009054906101000a900460ff16156107a6576040517f08c379a000000000000000000000000000000000000000000000000000000000815260040161079d90613957565b60405180910390fd5b6009849080600181540180825580915050600190039060005260206000200160009091909190916101000a81548173ffffffffffffffffffffffffffffffffffffffff021916908373ffffffffffffffffffffffffffffffffffffffff160217905550610811613004565b84816000019073ffffffffffffffffffffffffffffffffffffffff16908173ffffffffffffffffffffffffffffffffffffffff1681525050838160a0019073ffffffffffffffffffffffffffffffffffffffff16908173ffffffffffffffffffffffffffffffffffffffff168152505082816060018181525050600181608001901515908115158152505080600860008773ffffffffffffffffffffffffffffffffffffffff1673ffffffffffffffffffffffffffffffffffffffff16815260200190815260200160002060008201518160000160006101000a81548173ffffffffffffffffffffffffffffffffffffffff021916908373ffffffffffffffffffffffffffffffffffffffff16021790555060208201518160010155604082015181600201556060820151816003015560808201518160040160006101000a81548160ff02191690831515021790555060a08201518160040160016101000a81548173ffffffffffffffffffffffffffffffffffffffff021916908373ffffffffffffffffffffffffffffffffffffffff1602179055509050505050505050565b600080600090506000809054906101000a900473ffffffffffffffffffffffffffffffffffffffff1673ffffffffffffffffffffffffffffffffffffffff163373ffffffffffffffffffffffffffffffffffffffff161415610a175760019050610aad565b60008090505b600180549050811015610aab573373ffffffffffffffffffffffffffffffffffffffff1660018281548110610a4e57fe5b9060005260206000200160009054906101000a900473ffffffffffffffffffffffffffffffffffffffff1673ffffffffffffffffffffffffffffffffffffffff161415610a9e5760019150610aab565b8080600101915050610a1d565b505b80610aed576040517f08c379a0000000000000000000000000000000000000000000000000000000008152600401610ae4906139f7565b60405180910390fd5b600560009054906101000a900473ffffffffffffffffffffffffffffffffffffffff1691505090565b6000600454905090565b60008090506000809054906101000a900473ffffffffffffffffffffffffffffffffffffffff1673ffffffffffffffffffffffffffffffffffffffff163373ffffffffffffffffffffffffffffffffffffffff161415610b835760019050610c19565b60008090505b600180549050811015610c17573373ffffffffffffffffffffffffffffffffffffffff1660018281548110610bba57fe5b9060005260206000200160009054906101000a900473ffffffffffffffffffffffffffffffffffffffff1673ffffffffffffffffffffffffffffffffffffffff161415610c0a5760019150610c17565b8080600101915050610b89565b505b80610c59576040517f08c379a0000000000000000000000000000000000000000000000000000000008152600401610c50906139f7565b60405180910390fd5b6001829080600181540180825580915050600190039060005260206000200160009091909190916101000a81548173ffffffffffffffffffffffffffffffffffffffff021916908373ffffffffffffffffffffffffffffffffffffffff1602179055505050565b60008090506000809054906101000a900473ffffffffffffffffffffffffffffffffffffffff1673ffffffffffffffffffffffffffffffffffffffff163373ffffffffffffffffffffffffffffffffffffffff161415610d235760019050610db9565b60008090505b600180549050811015610db7573373ffffffffffffffffffffffffffffffffffffffff1660018281548110610d5a57fe5b9060005260206000200160009054906101000a900473ffffffffffffffffffffffffffffffffffffffff1673ffffffffffffffffffffffffffffffffffffffff161415610daa5760019150610db7565b8080600101915050610d29565b505b80610df9576040517f08c379a0000000000000000000000000000000000000000000000000000000008152600401610df0906139f7565b60405180910390fd5b600073ffffffffffffffffffffffffffffffffffffffff16600560009054906101000a900473ffffffffffffffffffffffffffffffffffffffff1673ffffffffffffffffffffffffffffffffffffffff1614610e8a576040517f08c379a0000000000000000000000000000000000000000000000000000000008152600401610e8190613977565b60405180910390fd5b600660008373ffffffffffffffffffffffffffffffffffffffff1673ffffffffffffffffffffffffffffffffffffffff16815260200190815260200160002060060160009054906101000a900460ff1615610f1a576040517f08c379a0000000000000000000000000000000000000000000000000000000008152600401610f1190613a17565b60405180910390fd5b81600560006101000a81548173ffffffffffffffffffffffffffffffffffffffff021916908373ffffffffffffffffffffffffffffffffffffffff1602179055506007829080600181540180825580915050600190039060005260206000200160009091909190916101000a81548173ffffffffffffffffffffffffffffffffffffffff021916908373ffffffffffffffffffffffffffffffffffffffff160217905550610fc6613068565b82816000019073ffffffffffffffffffffffffffffffffffffffff16908173ffffffffffffffffffffffffffffffffffffffff168152505060018160c001901515908115158152505080600660008573ffffffffffffffffffffffffffffffffffffffff1673ffffffffffffffffffffffffffffffffffffffff16815260200190815260200160002060008201518160000160006101000a81548173ffffffffffffffffffffffffffffffffffffffff021916908373ffffffffffffffffffffffffffffffffffffffff16021790555060208201518160010155604082015181600201556060820151816003015560808201518160040160006101000a81548173ffffffffffffffffffffffffffffffffffffffff021916908373ffffffffffffffffffffffffffffffffffffffff16021790555060a08201518160050190805190602001906111179291906130d3565b5060c08201518160060160006101000a81548160ff021916908315150217905550905050505050565b60008090506000809054906101000a900473ffffffffffffffffffffffffffffffffffffffff1673ffffffffffffffffffffffffffffffffffffffff163373ffffffffffffffffffffffffffffffffffffffff1614156111a35760019050611239565b60008090505b600180549050811015611237573373ffffffffffffffffffffffffffffffffffffffff16600182815481106111da57fe5b9060005260206000200160009054906101000a900473ffffffffffffffffffffffffffffffffffffffff1673ffffffffffffffffffffffffffffffffffffffff16141561122a5760019150611237565b80806001019150506111a9565b505b80611279576040517f08c379a0000000000000000000000000000000000000000000000000000000008152600401611270906139f7565b60405180910390fd5b600073ffffffffffffffffffffffffffffffffffffffff16600560009054906101000a900473ffffffffffffffffffffffffffffffffffffffff1673ffffffffffffffffffffffffffffffffffffffff16141561130b576040517f08c379a000000000000000000000000000000000000000000000000000000000815260040161130290613937565b60405180910390fd5b600660008473ffffffffffffffffffffffffffffffffffffffff1673ffffffffffffffffffffffffffffffffffffffff16815260200190815260200160002060060160009054906101000a900460ff161561139b576040517f08c379a000000000000000000000000000000000000000000000000000000000815260040161139290613a17565b60405180910390fd5b600660008373ffffffffffffffffffffffffffffffffffffffff1673ffffffffffffffffffffffffffffffffffffffff16815260200190815260200160002060060160009054906101000a900460ff16801561147157508173ffffffffffffffffffffffffffffffffffffffff166322f3e2d46040518163ffffffff1660e01b815260040160206040518083038186803b15801561143857600080fd5b505afa15801561144c573d6000803e3d6000fd5b505050506040513d601f19601f820116820180604052506114709190810190613315565b5b6114b0576040517f08c379a00000000000000000000000000000000000000000000000000000000081526004016114a790613997565b60405180910390fd5b8173ffffffffffffffffffffffffffffffffffffffff1663de728e83846040518263ffffffff1660e01b81526004016114e99190613865565b602060405180830381600087803b15801561150357600080fd5b505af1158015611517573d6000803e3d6000fd5b505050506040513d601f19601f8201168201806040525061153b9190810190613315565b61157a576040517f08c379a0000000000000000000000000000000000000000000000000000000008152600401611571906138d7565b60405180910390fd5b6007839080600181540180825580915050600190039060005260206000200160009091909190916101000a81548173ffffffffffffffffffffffffffffffffffffffff021916908373ffffffffffffffffffffffffffffffffffffffff160217905550600660008373ffffffffffffffffffffffffffffffffffffffff1673ffffffffffffffffffffffffffffffffffffffff168152602001908152602001600020600501839080600181540180825580915050600190039060005260206000200160009091909190916101000a81548173ffffffffffffffffffffffffffffffffffffffff021916908373ffffffffffffffffffffffffffffffffffffffff160217905550611688613068565b83816000019073ffffffffffffffffffffffffffffffffffffffff16908173ffffffffffffffffffffffffffffffffffffffff168152505082816080019073ffffffffffffffffffffffffffffffffffffffff16908173ffffffffffffffffffffffffffffffffffffffff168152505060018160c001901515908115158152505080600660008673ffffffffffffffffffffffffffffffffffffffff1673ffffffffffffffffffffffffffffffffffffffff16815260200190815260200160002060008201518160000160006101000a81548173ffffffffffffffffffffffffffffffffffffffff021916908373ffffffffffffffffffffffffffffffffffffffff16021790555060208201518160010155604082015181600201556060820151816003015560808201518160040160006101000a81548173ffffffffffffffffffffffffffffffffffffffff021916908373ffffffffffffffffffffffffffffffffffffffff16021790555060a08201518160050190805190602001906118119291906130d3565b5060c08201518160060160006101000a81548160ff02191690831515021790555090505050505050565b600080600090506000809054906101000a900473ffffffffffffffffffffffffffffffffffffffff1673ffffffffffffffffffffffffffffffffffffffff163373ffffffffffffffffffffffffffffffffffffffff1614156118a05760019050611936565b60008090505b600180549050811015611934573373ffffffffffffffffffffffffffffffffffffffff16600182815481106118d757fe5b9060005260206000200160009054906101000a900473ffffffffffffffffffffffffffffffffffffffff1673ffffffffffffffffffffffffffffffffffffffff1614156119275760019150611934565b80806001019150506118a6565b505b80611976576040517f08c379a000000000000000000000000000000000000000000000000000000000815260040161196d906139f7565b60405180910390fd5b600660008473ffffffffffffffffffffffffffffffffffffffff1673ffffffffffffffffffffffffffffffffffffffff16815260200190815260200160002060040160009054906101000a900473ffffffffffffffffffffffffffffffffffffffff16915050919050565b60008090506000809054906101000a900473ffffffffffffffffffffffffffffffffffffffff1673ffffffffffffffffffffffffffffffffffffffff163373ffffffffffffffffffffffffffffffffffffffff161415611a445760019050611ada565b60008090505b600180549050811015611ad8573373ffffffffffffffffffffffffffffffffffffffff1660018281548110611a7b57fe5b9060005260206000200160009054906101000a900473ffffffffffffffffffffffffffffffffffffffff1673ffffffffffffffffffffffffffffffffffffffff161415611acb5760019150611ad8565b8080600101915050611a4a565b505b80611b1a576040517f08c379a0000000000000000000000000000000000000000000000000000000008152600401611b11906139f7565b60405180910390fd5b611b25848484612a05565b611b64576040517f08c379a0000000000000000000000000000000000000000000000000000000008152600401611b5b906138b7565b60405180910390fd5b50505050565b6000600980549050905090565b600080600090506000809054906101000a900473ffffffffffffffffffffffffffffffffffffffff1673ffffffffffffffffffffffffffffffffffffffff163373ffffffffffffffffffffffffffffffffffffffff161415611bdc5760019050611c72565b60008090505b600180549050811015611c70573373ffffffffffffffffffffffffffffffffffffffff1660018281548110611c1357fe5b9060005260206000200160009054906101000a900473ffffffffffffffffffffffffffffffffffffffff1673ffffffffffffffffffffffffffffffffffffffff161415611c635760019150611c70565b8080600101915050611be2565b505b80611cb2576040517f08c379a0000000000000000000000000000000000000000000000000000000008152600401611ca9906139f7565b60405180910390fd5b60078381548110611cbf57fe5b9060005260206000200160009054906101000a900473ffffffffffffffffffffffffffffffffffffffff16915050919050565b611cfa613068565b60008090506000809054906101000a900473ffffffffffffffffffffffffffffffffffffffff1673ffffffffffffffffffffffffffffffffffffffff163373ffffffffffffffffffffffffffffffffffffffff161415611d5d5760019050611df3565b60008090505b600180549050811015611df1573373ffffffffffffffffffffffffffffffffffffffff1660018281548110611d9457fe5b9060005260206000200160009054906101000a900473ffffffffffffffffffffffffffffffffffffffff1673ffffffffffffffffffffffffffffffffffffffff161415611de45760019150611df1565b8080600101915050611d63565b505b80611e33576040517f08c379a0000000000000000000000000000000000000000000000000000000008152600401611e2a906139f7565b60405180910390fd5b600660008473ffffffffffffffffffffffffffffffffffffffff1673ffffffffffffffffffffffffffffffffffffffff1681526020019081526020016000206040518060e00160405290816000820160009054906101000a900473ffffffffffffffffffffffffffffffffffffffff1673ffffffffffffffffffffffffffffffffffffffff1673ffffffffffffffffffffffffffffffffffffffff1681526020016001820154815260200160028201548152602001600382015481526020016004820160009054906101000a900473ffffffffffffffffffffffffffffffffffffffff1673ffffffffffffffffffffffffffffffffffffffff1673ffffffffffffffffffffffffffffffffffffffff16815260200160058201805480602002602001604051908101604052809291908181526020018280548015611fcc57602002820191906000526020600020905b8160009054906101000a900473ffffffffffffffffffffffffffffffffffffffff1673ffffffffffffffffffffffffffffffffffffffff1681526020019060010190808311611f82575b505050505081526020016006820160009054906101000a900460ff161515151581525050915050919050565b60008060009054906101000a900473ffffffffffffffffffffffffffffffffffffffff16905090565b600080600090506000809054906101000a900473ffffffffffffffffffffffffffffffffffffffff1673ffffffffffffffffffffffffffffffffffffffff163373ffffffffffffffffffffffffffffffffffffffff161415612086576001905061211c565b60008090505b60018054905081101561211a573373ffffffffffffffffffffffffffffffffffffffff16600182815481106120bd57fe5b9060005260206000200160009054906101000a900473ffffffffffffffffffffffffffffffffffffffff1673ffffffffffffffffffffffffffffffffffffffff16141561210d576001915061211a565b808060010191505061208c565b505b8061215c576040517f08c379a0000000000000000000000000000000000000000000000000000000008152600401612153906139f7565b60405180910390fd5b600860008473ffffffffffffffffffffffffffffffffffffffff1673ffffffffffffffffffffffffffffffffffffffff16815260200190815260200160002060040160019054906101000a900473ffffffffffffffffffffffffffffffffffffffff16915050919050565b600080600090506000809054906101000a900473ffffffffffffffffffffffffffffffffffffffff1673ffffffffffffffffffffffffffffffffffffffff163373ffffffffffffffffffffffffffffffffffffffff16141561222c57600190506122c2565b60008090505b6001805490508110156122c0573373ffffffffffffffffffffffffffffffffffffffff166001828154811061226357fe5b9060005260206000200160009054906101000a900473ffffffffffffffffffffffffffffffffffffffff1673ffffffffffffffffffffffffffffffffffffffff1614156122b357600191506122c0565b8080600101915050612232565b505b80612302576040517f08c379a00000000000000000000000000000000000000000000000000000000081526004016122f9906139f7565b60405180910390fd5b600660008573ffffffffffffffffffffffffffffffffffffffff1673ffffffffffffffffffffffffffffffffffffffff168152602001908152602001600020600501838154811061234f57fe5b9060005260206000200160009054906101000a900473ffffffffffffffffffffffffffffffffffffffff1691505092915050565b60006001828154811061239257fe5b9060005260206000200160009054906101000a900473ffffffffffffffffffffffffffffffffffffffff169050919050565b6000600354905090565b6000600780549050905090565b600080600090506000809054906101000a900473ffffffffffffffffffffffffffffffffffffffff1673ffffffffffffffffffffffffffffffffffffffff163373ffffffffffffffffffffffffffffffffffffffff16141561244057600190506124d6565b60008090505b6001805490508110156124d4573373ffffffffffffffffffffffffffffffffffffffff166001828154811061247757fe5b9060005260206000200160009054906101000a900473ffffffffffffffffffffffffffffffffffffffff1673ffffffffffffffffffffffffffffffffffffffff1614156124c757600191506124d4565b8080600101915050612446565b505b80612516576040517f08c379a000000000000000000000000000000000000000000000000000000000815260040161250d906139f7565b60405180910390fd5b600660008473ffffffffffffffffffffffffffffffffffffffff1673ffffffffffffffffffffffffffffffffffffffff16815260200190815260200160002060050180549050915050919050565b61256c613004565b60008090506000809054906101000a900473ffffffffffffffffffffffffffffffffffffffff1673ffffffffffffffffffffffffffffffffffffffff163373ffffffffffffffffffffffffffffffffffffffff1614156125cf5760019050612665565b60008090505b600180549050811015612663573373ffffffffffffffffffffffffffffffffffffffff166001828154811061260657fe5b9060005260206000200160009054906101000a900473ffffffffffffffffffffffffffffffffffffffff1673ffffffffffffffffffffffffffffffffffffffff1614156126565760019150612663565b80806001019150506125d5565b505b806126a5576040517f08c379a000000000000000000000000000000000000000000000000000000000815260040161269c906139f7565b60405180910390fd5b82600860008273ffffffffffffffffffffffffffffffffffffffff1673ffffffffffffffffffffffffffffffffffffffff16815260200190815260200160002060040160009054906101000a900460ff16612735576040517f08c379a000000000000000000000000000000000000000000000000000000000815260040161272c906138f7565b60405180910390fd5b600860008573ffffffffffffffffffffffffffffffffffffffff1673ffffffffffffffffffffffffffffffffffffffff1681526020019081526020016000206040518060c00160405290816000820160009054906101000a900473ffffffffffffffffffffffffffffffffffffffff1673ffffffffffffffffffffffffffffffffffffffff1673ffffffffffffffffffffffffffffffffffffffff1681526020016001820154815260200160028201548152602001600382015481526020016004820160009054906101000a900460ff161515151581526020016004820160019054906101000a900473ffffffffffffffffffffffffffffffffffffffff1673ffffffffffffffffffffffffffffffffffffffff1673ffffffffffffffffffffffffffffffffffffffff168152505092505050919050565b6000600180549050905090565b60008090506000809054906101000a900473ffffffffffffffffffffffffffffffffffffffff1673ffffffffffffffffffffffffffffffffffffffff163373ffffffffffffffffffffffffffffffffffffffff1614156128dd5760019050612973565b60008090505b600180549050811015612971573373ffffffffffffffffffffffffffffffffffffffff166001828154811061291457fe5b9060005260206000200160009054906101000a900473ffffffffffffffffffffffffffffffffffffffff1673ffffffffffffffffffffffffffffffffffffffff1614156129645760019150612971565b80806001019150506128e3565b505b806129b3576040517f08c379a00000000000000000000000000000000000000000000000000000000081526004016129aa906139f7565b60405180910390fd5b816000806101000a81548173ffffffffffffffffffffffffffffffffffffffff021916908373ffffffffffffffffffffffffffffffffffffffff16021790555060016000612a01919061315d565b5050565b600080600090506000809054906101000a900473ffffffffffffffffffffffffffffffffffffffff1673ffffffffffffffffffffffffffffffffffffffff163373ffffffffffffffffffffffffffffffffffffffff161415612a6a5760019050612b00565b60008090505b600180549050811015612afe573373ffffffffffffffffffffffffffffffffffffffff1660018281548110612aa157fe5b9060005260206000200160009054906101000a900473ffffffffffffffffffffffffffffffffffffffff1673ffffffffffffffffffffffffffffffffffffffff161415612af15760019150612afe565b8080600101915050612a70565b505b80612b40576040517f08c379a0000000000000000000000000000000000000000000000000000000008152600401612b37906139f7565b60405180910390fd5b6000600860008773ffffffffffffffffffffffffffffffffffffffff1673ffffffffffffffffffffffffffffffffffffffff16815260200190815260200160002060040160019054906101000a900473ffffffffffffffffffffffffffffffffffffffff1690506000600860008773ffffffffffffffffffffffffffffffffffffffff1673ffffffffffffffffffffffffffffffffffffffff16815260200190815260200160002060040160019054906101000a900473ffffffffffffffffffffffffffffffffffffffff1690508073ffffffffffffffffffffffffffffffffffffffff168273ffffffffffffffffffffffffffffffffffffffff161415612d15578173ffffffffffffffffffffffffffffffffffffffff1663b9705c928888886040518463ffffffff1660e01b8152600401612c7f93929190613880565b602060405180830381600087803b158015612c9957600080fd5b505af1158015612cad573d6000803e3d6000fd5b505050506040513d601f19601f82011682018060405250612cd19190810190613315565b612d10576040517f08c379a0000000000000000000000000000000000000000000000000000000008152600401612d07906139d7565b60405180910390fd5b612f06565b5b600560009054906101000a900473ffffffffffffffffffffffffffffffffffffffff1673ffffffffffffffffffffffffffffffffffffffff16600660008473ffffffffffffffffffffffffffffffffffffffff1673ffffffffffffffffffffffffffffffffffffffff16815260200190815260200160002060040160009054906101000a900473ffffffffffffffffffffffffffffffffffffffff1673ffffffffffffffffffffffffffffffffffffffff1614612f05578173ffffffffffffffffffffffffffffffffffffffff1663b9705c928888886040518463ffffffff1660e01b8152600401612e0a93929190613880565b602060405180830381600087803b158015612e2457600080fd5b505af1158015612e38573d6000803e3d6000fd5b505050506040513d601f19601f82011682018060405250612e5c9190810190613315565b612e9b576040517f08c379a0000000000000000000000000000000000000000000000000000000008152600401612e9290613917565b60405180910390fd5b600660008373ffffffffffffffffffffffffffffffffffffffff1673ffffffffffffffffffffffffffffffffffffffff16815260200190815260200160002060040160009054906101000a900473ffffffffffffffffffffffffffffffffffffffff169150612d16565b5b600560009054906101000a900473ffffffffffffffffffffffffffffffffffffffff1673ffffffffffffffffffffffffffffffffffffffff1663b9705c928888886040518463ffffffff1660e01b8152600401612f6593929190613880565b602060405180830381600087803b158015612f7f57600080fd5b505af1158015612f93573d6000803e3d6000fd5b505050506040513d601f19601f82011682018060405250612fb79190810190613315565b612ff6576040517f08c379a0000000000000000000000000000000000000000000000000000000008152600401612fed906139b7565b60405180910390fd5b600193505050509392505050565b6040518060c00160405280600073ffffffffffffffffffffffffffffffffffffffff168152602001600081526020016000815260200160008152602001600015158152602001600073ffffffffffffffffffffffffffffffffffffffff1681525090565b6040518060e00160405280600073ffffffffffffffffffffffffffffffffffffffff168152602001600081526020016000815260200160008152602001600073ffffffffffffffffffffffffffffffffffffffff168152602001606081526020016000151581525090565b82805482825590600052602060002090810192821561314c579160200282015b8281111561314b5782518260006101000a81548173ffffffffffffffffffffffffffffffffffffffff021916908373ffffffffffffffffffffffffffffffffffffffff160217905550916020019190600101906130f3565b5b509050613159919061317e565b5090565b508054600082559060005260206000209081019061317b91906131c1565b50565b6131be91905b808211156131ba57600081816101000a81549073ffffffffffffffffffffffffffffffffffffffff021916905550600101613184565b5090565b90565b6131e391905b808211156131df5760008160009055506001016131c7565b5090565b90565b6000813590506131f581613b21565b92915050565b60008151905061320a81613b38565b92915050565b60008135905061321f81613b4f565b92915050565b60006020828403121561323757600080fd5b6000613245848285016131e6565b91505092915050565b6000806040838503121561326157600080fd5b600061326f858286016131e6565b9250506020613280858286016131e6565b9150509250929050565b60008060006060848603121561329f57600080fd5b60006132ad868287016131e6565b93505060206132be868287016131e6565b92505060406132cf86828701613210565b9150509250925092565b600080604083850312156132ec57600080fd5b60006132fa858286016131e6565b925050602061330b85828601613210565b9150509250929050565b60006020828403121561332757600080fd5b6000613335848285016131fb565b91505092915050565b60006020828403121561335057600080fd5b600061335e84828501613210565b91505092915050565b6000613373838361337f565b60208301905092915050565b61338881613ad9565b82525050565b61339781613ad9565b82525050565b60006133a882613a9f565b6133b28185613ab7565b93506133bd83613a8f565b8060005b838110156133ee5781516133d58882613367565b97506133e083613aaa565b9250506001810190506133c1565b5085935050505092915050565b61340481613aeb565b82525050565b6000613417600d83613ac8565b91507f496e76616c6964207472616465000000000000000000000000000000000000006000830152602082019050919050565b6000613457601f83613ac8565b91507f506172656e7420617574686f726974792064656e6965642072657175657374006000830152602082019050919050565b6000613497601c83613ac8565b91507f4e6f7420616e20616374697665207472616465722061646472657373000000006000830152602082019050919050565b60006134d7601b83613ac8565b91507f466f726569676e20656e746974792064656e69656420747261646500000000006000830152602082019050919050565b6000613517602483613ac8565b91507f4e6f20726f6f7420656e746974792c20637265617465206265666f726520616460008301527f64696e67000000000000000000000000000000000000000000000000000000006020830152604082019050919050565b600061357d601583613ac8565b91507f54726164657220616c72656164792065786973747300000000000000000000006000830152602082019050919050565b60006135bd601c83613ac8565b91507f526f6f7420456e7469747920616c72656164792061737369676e6564000000006000830152602082019050919050565b60006135fd601883613ac8565b91507f506172656e7420656e74697479206e6f742061637469766500000000000000006000830152602082019050919050565b600061363d601d83613ac8565b91507f54726164652064656e696564206f6e202766726f6d27206272616e63680000006000830152602082019050919050565b600061367d601983613ac8565b91507f4c6f63616c20656e746974792064656e696564207472616465000000000000006000830152602082019050919050565b60006136bd601a83613ac8565b91507f596f7520617265206e6f74206120546f6b656e206f776e6572210000000000006000830152602082019050919050565b60006136fd601583613ac8565b91507f456e7469747920616c72656164792065786973747300000000000000000000006000830152602082019050919050565b600060e083016000830151613748600086018261337f565b50602083015161375b6020860182613847565b50604083015161376e6040860182613847565b5060608301516137816060860182613847565b506080830151613794608086018261337f565b5060a083015184820360a08601526137ac828261339d565b91505060c08301516137c160c08601826133fb565b508091505092915050565b60c0820160008201516137e2600085018261337f565b5060208201516137f56020850182613847565b5060408201516138086040850182613847565b50606082015161381b6060850182613847565b50608082015161382e60808501826133fb565b5060a082015161384160a085018261337f565b50505050565b61385081613b17565b82525050565b61385f81613b17565b82525050565b600060208201905061387a600083018461338e565b92915050565b6000606082019050613895600083018661338e565b6138a2602083018561338e565b6138af6040830184613856565b949350505050565b600060208201905081810360008301526138d08161340a565b9050919050565b600060208201905081810360008301526138f08161344a565b9050919050565b600060208201905081810360008301526139108161348a565b9050919050565b60006020820190508181036000830152613930816134ca565b9050919050565b600060208201905081810360008301526139508161350a565b9050919050565b6000602082019050818103600083015261397081613570565b9050919050565b60006020820190508181036000830152613990816135b0565b9050919050565b600060208201905081810360008301526139b0816135f0565b9050919050565b600060208201905081810360008301526139d081613630565b9050919050565b600060208201905081810360008301526139f081613670565b9050919050565b60006020820190508181036000830152613a10816136b0565b9050919050565b60006020820190508181036000830152613a30816136f0565b9050919050565b60006020820190508181036000830152613a518184613730565b905092915050565b600060c082019050613a6e60008301846137cc565b92915050565b6000602082019050613a896000830184613856565b92915050565b6000819050602082019050919050565b600081519050919050565b6000602082019050919050565b600082825260208201905092915050565b600082825260208201905092915050565b6000613ae482613af7565b9050919050565b60008115159050919050565b600073ffffffffffffffffffffffffffffffffffffffff82169050919050565b6000819050919050565b613b2a81613ad9565b8114613b3557600080fd5b50565b613b4181613aeb565b8114613b4c57600080fd5b50565b613b5881613b17565b8114613b6357600080fd5b5056fea2646970667358221220fffaf15351cf82f26191a4f837e16a8eab898d4b70ebf370eaffcb06ba88e3e964736f6c63430006020033",
  "source": "pragma solidity ^0.6.2;\npragma experimental ABIEncoderV2;\n\nimport \"./Ownable.sol\";\nimport \"./Entity.sol\";\n\n\n/**\n * This Token represnets an\n */\ncontract Token is Ownable {\n    uint8 private decimals = 18;\n    uint256 private totalSupply; // allocations\n    uint256 private totalEntitlements; // entitlements\n\n    struct EntityProxyStruct {\n        address entityContract;\n        uint256 entitlement;\n        uint256 allocation;\n        uint256 storedWater;\n        address parentAuthority;\n        address[] children;\n        bool added;\n    }\n\n    struct Trader {\n        address trader;\n        uint256 entitlement;\n        uint256 allocation;\n        uint256 storedWater;\n        bool active;\n        address authority;\n    }\n\n    // Storing entities as array and mapping for easier access and traversal\n    address private rootEntity;\n    mapping(address => EntityProxyStruct) private entities;\n    address[] private entityAddresses;\n\n    // Storing traders as array and mapping for easier access and traversal\n    mapping(address => Trader) private traders;\n    address[] private traderAddresses;\n\n    modifier activeTrader(address _addr) {\n        require(\n            traders[_addr].active,\n            \"Not an active trader address\"\n        );\n        _;\n    }\n\n    // ----------------- GETTERS ----------------- //\n    function getTotalSupply() public view returns (uint256) {\n        return totalSupply;\n    }\n\n    function getTotalEntitlements() public view returns (uint256) {\n        return totalEntitlements;\n    }\n\n    function getEntitiesLength() public view returns (uint256) {\n        return entityAddresses.length;\n    }\n\n    function getEntity(address _entityContract) isOwner()\n        public\n        view\n        returns (EntityProxyStruct memory)\n    {\n        return entities[_entityContract];\n    }\n\n    function getEntityAt(uint256 _index) isOwner()\n        public\n        view\n        returns (address)\n    {\n        return entityAddresses[_index];\n    }\n\n    function getEntitiesParentAuthority(address _addr) isOwner()\n        public\n        view\n        returns (address)\n    {\n        return entities[_addr].parentAuthority;\n    }\n\n    // Trader's parent enitity\n    function getTraderAuthority(address _addr) isOwner()\n        public\n        view\n        returns (address)\n    {\n        return traders[_addr].authority;\n    }\n\n    function getTraderLength() public view returns (uint256) {\n        return traderAddresses.length;\n    }\n\n    function getTrader(address _addr) isOwner()\n        public\n        view\n        activeTrader(_addr)\n        returns (Trader memory)\n    {\n        return traders[_addr];\n    }\n\n    function getChildrenLength(address _address) isOwner()\n        public\n        view\n        returns (uint256)\n    {\n        return entities[_address].children.length;\n    }\n\n    function getChildAt(address _address, uint256 _index) isOwner()\n        public\n        view\n        returns (address)\n    {\n        return entities[_address].children[_index];\n    }\n\n    function getRootEntity() public view isOwner() returns (address) {\n        return rootEntity;\n    }\n\n    // --------------- END GETTERS ----------------- //\n\n    // ---------- TOKEN ENTITY FUNCTIONS ---------- //\n\n    function addRootEntity(address _entityContract) public isOwner() {\n        require(\n            rootEntity == address(0),\n            \"Root Entity already assigned\"\n        );\n        require(\n            !entities[_entityContract].added,\n            \"Entity already exists\"\n        );\n        rootEntity = _entityContract;\n        entityAddresses.push(_entityContract);\n\n        EntityProxyStruct memory entityStruct;\n        entityStruct.entityContract = _entityContract;\n        entityStruct.added = true;\n\n        entities[_entityContract] = entityStruct;\n    }\n\n    /**\n     * Entity created by calling the entity contract outside of this function\n     * and adding to the structure by calling addEntity\n     */\n    function addEntity(address _entityContract, address _parent) isOwner()\n        public\n    {\n        require(\n            rootEntity != address(0),\n            \"No root entity, create before adding\"\n        );\n        require(\n            !entities[_entityContract].added,\n            \"Entity already exists\"\n        );\n        require(\n            entities[_parent].added && Entity(_parent).isActive(),\n            \"Parent entity not active\"\n        );\n        require(\n            Entity(_parent).askToAdd(_entityContract),\n            \"Parent authority denied request\"\n        );\n\n        entityAddresses.push(_entityContract);\n        entities[_parent].children.push(_entityContract);\n\n        EntityProxyStruct memory entityStruct;\n        entityStruct.entityContract = _entityContract;\n        entityStruct.parentAuthority = _parent;\n        entityStruct.added = true;\n        entities[_entityContract] = entityStruct;\n    }\n\n    // ---------- TOKEN TRADER FUNCTIONS ---------- //\n\n    function validTrade(\n        address _from,\n        address _to,\n        uint256 _amount\n    ) isOwner() private returns (bool) {\n        address fromAuthority = traders[_from].authority;\n        address toAuthority = traders[_to].authority;\n\n        // LOCAL\n        if (fromAuthority == toAuthority) {\n            require(\n                Entity(fromAuthority).approveTrade(\n                    _from,\n                    _to,\n                    _amount\n                ),\n                \"Local entity denied trade\"\n            );\n        } else {\n            // FOREIGN\n            while (\n                entities[fromAuthority].parentAuthority != rootEntity\n            ) {\n                require(\n                    Entity(fromAuthority).approveTrade(\n                        _from,\n                        _to,\n                        _amount\n                    ),\n                    \"Foreign entity denied trade\"\n                );\n                fromAuthority = entities[fromAuthority]\n                    .parentAuthority;\n            }\n        }\n        require(\n            Entity(rootEntity).approveTrade(_from, _to, _amount),\n            \"Trade denied on 'from' branch\"\n        );\n        return true;\n    }\n\n    function addTrader(\n        address _addr,\n        address _authority,\n        uint256 _storedWater\n    ) public isOwner() {\n        require(\n            rootEntity != address(0),\n            \"No root entity, create before adding\"\n        );\n        require(\n            entities[_authority].added &&\n                Entity(_authority).isActive(),\n            \"Parent entity not active\"\n        );\n        require(!traders[_addr].active, \"Trader already exists\");\n\n        traderAddresses.push(_addr);\n\n        Trader memory trader;\n        trader.trader = _addr;\n        trader.authority = _authority;\n        trader.storedWater = _storedWater;\n        trader.active = true;\n        traders[_addr] = trader;\n    }\n\n    // TODO: enum for the trade type: deliver, allocaiton, entitlement\n    function trade(\n        address _from,\n        address _to,\n        uint256 _amount\n    ) isOwner() public {\n        require(validTrade(_from, _to, _amount), \"Invalid trade\");\n        // TODO: transfer water\n    }\n\n    // -------- END TOKEN TRADE FUNCTIONS -------- //\n}\n",
  "sourcePath": "/Users/dagan/Code/CommodityMarket/water-consortium-contracts/contracts/Token.sol",
  "compiler": {
    "name": "solc",
    "version": "0.6.2+commit.bacdbe57.Emscripten.clang"
  },
  "schemaVersion": "3.0.20",
  "updatedAt": "2020-06-25T04:14:07.699Z",
  "networkType": "ethereum",
  "devdoc": {
    "methods": {}
  },
  "userdoc": {
    "methods": {
      "addEntity(address,address)": {
        "notice": "Entity created by calling the entity contract outside of this function and adding to the structure by calling addEntity"
      },
      "transferOwnership(address)": {
        "notice": "Ownership given to a new authority, all other ownership cleared"
      }
    },
    "notice": "This Token represnets an"
  }
}